{
  "_format": "hh-sol-artifact-1",
  "contractName": "NFTManager",
  "sourceName": "contracts/NFTManager.sol",
  "abi": [
    {
      "inputs": [],
      "stateMutability": "payable",
      "type": "constructor"
    },
    {
      "anonymous": false,
      "inputs": [
        {
          "indexed": false,
          "internalType": "address",
          "name": "nftContract",
          "type": "address"
        },
        {
          "indexed": false,
          "internalType": "uint256",
          "name": "tokenId",
          "type": "uint256"
        },
        {
          "indexed": false,
          "internalType": "address",
          "name": "storeAddress",
          "type": "address"
        },
        {
          "indexed": false,
          "internalType": "address",
          "name": "owner",
          "type": "address"
        },
        {
          "indexed": false,
          "internalType": "uint256",
          "name": "amount",
          "type": "uint256"
        },
        {
          "indexed": false,
          "internalType": "string",
          "name": "store",
          "type": "string"
        }
      ],
      "name": "NFTListed",
      "type": "event"
    },
    {
      "anonymous": false,
      "inputs": [
        {
          "indexed": false,
          "internalType": "address",
          "name": "nftContract",
          "type": "address"
        },
        {
          "indexed": false,
          "internalType": "uint256",
          "name": "tokenId",
          "type": "uint256"
        },
        {
          "indexed": false,
          "internalType": "address",
          "name": "storeAddress",
          "type": "address"
        },
        {
          "indexed": false,
          "internalType": "address",
          "name": "owner",
          "type": "address"
        },
        {
          "indexed": false,
          "internalType": "uint256",
          "name": "amount",
          "type": "uint256"
        },
        {
          "indexed": false,
          "internalType": "string",
          "name": "store",
          "type": "string"
        }
      ],
      "name": "NFTSold",
      "type": "event"
    },
    {
      "inputs": [
        {
          "internalType": "address",
          "name": "_nftContract",
          "type": "address"
        },
        {
          "internalType": "uint256",
          "name": "_tokenId",
          "type": "uint256"
        },
        {
          "internalType": "uint256",
          "name": "_amount",
          "type": "uint256"
        }
      ],
      "name": "approveTransaction",
      "outputs": [],
      "stateMutability": "payable",
      "type": "function"
    },
    {
      "inputs": [],
      "name": "getBalance",
      "outputs": [
        {
          "internalType": "uint256",
          "name": "",
          "type": "uint256"
        }
      ],
      "stateMutability": "view",
      "type": "function"
    },
    {
      "inputs": [],
      "name": "getMyActiveTransactions",
      "outputs": [
        {
          "components": [
            {
              "internalType": "address",
              "name": "nftContract",
              "type": "address"
            },
            {
              "internalType": "uint256",
              "name": "tokenId",
              "type": "uint256"
            },
            {
              "internalType": "address payable",
              "name": "storeAddress",
              "type": "address"
            },
            {
              "internalType": "address payable",
              "name": "owner",
              "type": "address"
            },
            {
              "internalType": "uint256",
              "name": "amount",
              "type": "uint256"
            },
            {
              "internalType": "string",
              "name": "store",
              "type": "string"
            }
          ],
          "internalType": "struct NFTManager.NFT[]",
          "name": "",
          "type": "tuple[]"
        }
      ],
      "stateMutability": "view",
      "type": "function"
    },
    {
      "inputs": [],
      "name": "getStoreActiveTransactions",
      "outputs": [
        {
          "components": [
            {
              "internalType": "address",
              "name": "nftContract",
              "type": "address"
            },
            {
              "internalType": "uint256",
              "name": "tokenId",
              "type": "uint256"
            },
            {
              "internalType": "address payable",
              "name": "storeAddress",
              "type": "address"
            },
            {
              "internalType": "address payable",
              "name": "owner",
              "type": "address"
            },
            {
              "internalType": "uint256",
              "name": "amount",
              "type": "uint256"
            },
            {
              "internalType": "string",
              "name": "store",
              "type": "string"
            }
          ],
          "internalType": "struct NFTManager.NFT[]",
          "name": "",
          "type": "tuple[]"
        }
      ],
      "stateMutability": "view",
      "type": "function"
    },
    {
      "inputs": [
        {
          "internalType": "address",
          "name": "_nftContract",
          "type": "address"
        },
        {
          "internalType": "uint256",
          "name": "_tokenId",
          "type": "uint256"
        },
        {
          "internalType": "uint256",
          "name": "_amount",
          "type": "uint256"
        },
        {
          "internalType": "address payable",
          "name": "_storeAddress",
          "type": "address"
        },
        {
          "internalType": "string",
          "name": "store",
          "type": "string"
        }
      ],
      "name": "initTransaction",
      "outputs": [],
      "stateMutability": "payable",
      "type": "function"
    }
  ],
  "bytecode": "0x6080604052600160008190555033600360006101000a81548173ffffffffffffffffffffffffffffffffffffffff021916908373ffffffffffffffffffffffffffffffffffffffff160217905550611ef98061005c6000396000f3fe60806040526004361061004a5760003560e01c806312065fe01461004f578063544ba4da1461007a5780635cee548f146100a5578063eb42546a146100c1578063ec0d8e81146100dd575b600080fd5b34801561005b57600080fd5b50610064610108565b6040516100719190611033565b60405180910390f35b34801561008657600080fd5b5061008f610127565b60405161009c919061129a565b60405180910390f35b6100bf60048036038101906100ba9190611489565b6104d1565b005b6100db60048036038101906100d69190611520565b610747565b005b3480156100e957600080fd5b506100f2610b1e565b6040516100ff919061129a565b60405180910390f35b60003373ffffffffffffffffffffffffffffffffffffffff1631905090565b606060006101356002610ec8565b90506000805b828110156101da573373ffffffffffffffffffffffffffffffffffffffff166004600060018461016b91906115a2565b815260200190815260200160002060020160009054906101000a900473ffffffffffffffffffffffffffffffffffffffff1673ffffffffffffffffffffffffffffffffffffffff16036101c75781806101c3906115d6565b9250505b80806101d2906115d6565b91505061013b565b5060008167ffffffffffffffff8111156101f7576101f661135e565b5b60405190808252806020026020018201604052801561023057816020015b61021d610f45565b8152602001906001900390816102155790505b5090506000805b848110156104c6573373ffffffffffffffffffffffffffffffffffffffff166004600060018461026791906115a2565b815260200190815260200160002060020160009054906101000a900473ffffffffffffffffffffffffffffffffffffffff1673ffffffffffffffffffffffffffffffffffffffff16036104b357600460006001836102c591906115a2565b81526020019081526020016000206040518060c00160405290816000820160009054906101000a900473ffffffffffffffffffffffffffffffffffffffff1673ffffffffffffffffffffffffffffffffffffffff1673ffffffffffffffffffffffffffffffffffffffff168152602001600182015481526020016002820160009054906101000a900473ffffffffffffffffffffffffffffffffffffffff1673ffffffffffffffffffffffffffffffffffffffff1673ffffffffffffffffffffffffffffffffffffffff1681526020016003820160009054906101000a900473ffffffffffffffffffffffffffffffffffffffff1673ffffffffffffffffffffffffffffffffffffffff1673ffffffffffffffffffffffffffffffffffffffff168152602001600482015481526020016005820180546104049061164d565b80601f01602080910402602001604051908101604052809291908181526020018280546104309061164d565b801561047d5780601f106104525761010080835404028352916020019161047d565b820191906000526020600020905b81548152906001019060200180831161046057829003601f168201915b5050505050815250508383815181106104995761049861167e565b5b602002602001018190525081806104af906115d6565b9250505b80806104be906115d6565b915050610237565b508194505050505090565b6104d9610ed6565b6000831161051c576040517f08c379a00000000000000000000000000000000000000000000000000000000081526004016105139061170a565b60405180910390fd5b8173ffffffffffffffffffffffffffffffffffffffff166108fc849081150290604051600060405180830381858888f19350505050158015610562573d6000803e3d6000fd5b5060003390506105726002610f25565b6040518060c001604052808773ffffffffffffffffffffffffffffffffffffffff1681526020018681526020018473ffffffffffffffffffffffffffffffffffffffff1681526020018273ffffffffffffffffffffffffffffffffffffffff168152602001858152602001838152506004600087815260200190815260200160002060008201518160000160006101000a81548173ffffffffffffffffffffffffffffffffffffffff021916908373ffffffffffffffffffffffffffffffffffffffff1602179055506020820151816001015560408201518160020160006101000a81548173ffffffffffffffffffffffffffffffffffffffff021916908373ffffffffffffffffffffffffffffffffffffffff16021790555060608201518160030160006101000a81548173ffffffffffffffffffffffffffffffffffffffff021916908373ffffffffffffffffffffffffffffffffffffffff1602179055506080820151816004015560a08201518160050190816106f291906118d6565b509050507f9ede18d7b9c044d04258d1889736d61143963d5c3550c02d199b34515b87d37786868584888760405161072f96959493929190611a45565b60405180910390a150610740610f3b565b5050505050565b61074f610ed6565b60006004600084815260200190815260200160002090508060020160009054906101000a900473ffffffffffffffffffffffffffffffffffffffff1673ffffffffffffffffffffffffffffffffffffffff163373ffffffffffffffffffffffffffffffffffffffff16146107f8576040517f08c379a00000000000000000000000000000000000000000000000000000000081526004016107ef90611b1f565b60405180910390fd5b6000821161083b576040517f08c379a000000000000000000000000000000000000000000000000000000000815260040161083290611b8b565b60405180910390fd5b8060040154821115610882576040517f08c379a000000000000000000000000000000000000000000000000000000000815260040161087990611c1d565b60405180910390fd5b60008160040154905082816108979190611c3d565b90508160030160009054906101000a900473ffffffffffffffffffffffffffffffffffffffff1673ffffffffffffffffffffffffffffffffffffffff166108fc829081150290604051600060405180830381858888f19350505050158015610903573d6000803e3d6000fd5b507f126bf6785cb2aa0d587fe998c66c22c0615ade30316dc2242b2accc2462f03ca85858460020160009054906101000a900473ffffffffffffffffffffffffffffffffffffffff168560030160009054906101000a900473ffffffffffffffffffffffffffffffffffffffff16878760050160405161098896959493929190611cf5565b60405180910390a18473ffffffffffffffffffffffffffffffffffffffff166323b872dd8360030160009054906101000a900473ffffffffffffffffffffffffffffffffffffffff166040518060400160405280601181526020017f3078303030303030303030303030303030000000000000000000000000000000815250610a1090611db9565b60601c876040518463ffffffff1660e01b8152600401610a3293929190611e20565b600060405180830381600087803b158015610a4c57600080fd5b505af1158015610a60573d6000803e3d6000fd5b5050505060046000858152602001908152602001600020600080820160006101000a81549073ffffffffffffffffffffffffffffffffffffffff021916905560018201600090556002820160006101000a81549073ffffffffffffffffffffffffffffffffffffffff02191690556003820160006101000a81549073ffffffffffffffffffffffffffffffffffffffff02191690556004820160009055600582016000610b0d9190610fbd565b50505050610b19610f3b565b505050565b60606000610b2c6002610ec8565b90506000805b82811015610bd1573373ffffffffffffffffffffffffffffffffffffffff1660046000600184610b6291906115a2565b815260200190815260200160002060030160009054906101000a900473ffffffffffffffffffffffffffffffffffffffff1673ffffffffffffffffffffffffffffffffffffffff1603610bbe578180610bba906115d6565b9250505b8080610bc9906115d6565b915050610b32565b5060008167ffffffffffffffff811115610bee57610bed61135e565b5b604051908082528060200260200182016040528015610c2757816020015b610c14610f45565b815260200190600190039081610c0c5790505b5090506000805b84811015610ebd573373ffffffffffffffffffffffffffffffffffffffff1660046000600184610c5e91906115a2565b815260200190815260200160002060030160009054906101000a900473ffffffffffffffffffffffffffffffffffffffff1673ffffffffffffffffffffffffffffffffffffffff1603610eaa5760046000600183610cbc91906115a2565b81526020019081526020016000206040518060c00160405290816000820160009054906101000a900473ffffffffffffffffffffffffffffffffffffffff1673ffffffffffffffffffffffffffffffffffffffff1673ffffffffffffffffffffffffffffffffffffffff168152602001600182015481526020016002820160009054906101000a900473ffffffffffffffffffffffffffffffffffffffff1673ffffffffffffffffffffffffffffffffffffffff1673ffffffffffffffffffffffffffffffffffffffff1681526020016003820160009054906101000a900473ffffffffffffffffffffffffffffffffffffffff1673ffffffffffffffffffffffffffffffffffffffff1673ffffffffffffffffffffffffffffffffffffffff16815260200160048201548152602001600582018054610dfb9061164d565b80601f0160208091040260200160405190810160405280929190818152602001828054610e279061164d565b8015610e745780601f10610e4957610100808354040283529160200191610e74565b820191906000526020600020905b815481529060010190602001808311610e5757829003601f168201915b505050505081525050838381518110610e9057610e8f61167e565b5b60200260200101819052508180610ea6906115d6565b9250505b8080610eb5906115d6565b915050610c2e565b508194505050505090565b600081600001549050919050565b600260005403610f1b576040517f08c379a0000000000000000000000000000000000000000000000000000000008152600401610f1290611ea3565b60405180910390fd5b6002600081905550565b6001816000016000828254019250508190555050565b6001600081905550565b6040518060c00160405280600073ffffffffffffffffffffffffffffffffffffffff16815260200160008152602001600073ffffffffffffffffffffffffffffffffffffffff168152602001600073ffffffffffffffffffffffffffffffffffffffff16815260200160008152602001606081525090565b508054610fc99061164d565b6000825580601f10610fdb5750610ffa565b601f016020900490600052602060002090810190610ff99190610ffd565b5b50565b5b80821115611016576000816000905550600101610ffe565b5090565b6000819050919050565b61102d8161101a565b82525050565b60006020820190506110486000830184611024565b92915050565b600081519050919050565b600082825260208201905092915050565b6000819050602082019050919050565b600073ffffffffffffffffffffffffffffffffffffffff82169050919050565b60006110a58261107a565b9050919050565b6110b58161109a565b82525050565b6110c48161101a565b82525050565b60006110d58261107a565b9050919050565b6110e5816110ca565b82525050565b600081519050919050565b600082825260208201905092915050565b60005b8381101561112557808201518184015260208101905061110a565b60008484015250505050565b6000601f19601f8301169050919050565b600061114d826110eb565b61115781856110f6565b9350611167818560208601611107565b61117081611131565b840191505092915050565b600060c08301600083015161119360008601826110ac565b5060208301516111a660208601826110bb565b5060408301516111b960408601826110dc565b5060608301516111cc60608601826110dc565b5060808301516111df60808601826110bb565b5060a083015184820360a08601526111f78282611142565b9150508091505092915050565b6000611210838361117b565b905092915050565b6000602082019050919050565b60006112308261104e565b61123a8185611059565b93508360208202850161124c8561106a565b8060005b8581101561128857848403895281516112698582611204565b945061127483611218565b925060208a01995050600181019050611250565b50829750879550505050505092915050565b600060208201905081810360008301526112b48184611225565b905092915050565b6000604051905090565b600080fd5b600080fd5b6112d98161109a565b81146112e457600080fd5b50565b6000813590506112f6816112d0565b92915050565b6113058161101a565b811461131057600080fd5b50565b600081359050611322816112fc565b92915050565b611331816110ca565b811461133c57600080fd5b50565b60008135905061134e81611328565b92915050565b600080fd5b600080fd5b7f4e487b7100000000000000000000000000000000000000000000000000000000600052604160045260246000fd5b61139682611131565b810181811067ffffffffffffffff821117156113b5576113b461135e565b5b80604052505050565b60006113c86112bc565b90506113d4828261138d565b919050565b600067ffffffffffffffff8211156113f4576113f361135e565b5b6113fd82611131565b9050602081019050919050565b82818337600083830152505050565b600061142c611427846113d9565b6113be565b90508281526020810184848401111561144857611447611359565b5b61145384828561140a565b509392505050565b600082601f8301126114705761146f611354565b5b8135611480848260208601611419565b91505092915050565b600080600080600060a086880312156114a5576114a46112c6565b5b60006114b3888289016112e7565b95505060206114c488828901611313565b94505060406114d588828901611313565b93505060606114e68882890161133f565b925050608086013567ffffffffffffffff811115611507576115066112cb565b5b6115138882890161145b565b9150509295509295909350565b600080600060608486031215611539576115386112c6565b5b6000611547868287016112e7565b935050602061155886828701611313565b925050604061156986828701611313565b9150509250925092565b7f4e487b7100000000000000000000000000000000000000000000000000000000600052601160045260246000fd5b60006115ad8261101a565b91506115b88361101a565b92508282019050808211156115d0576115cf611573565b5b92915050565b60006115e18261101a565b91507fffffffffffffffffffffffffffffffffffffffffffffffffffffffffffffffff820361161357611612611573565b5b600182019050919050565b7f4e487b7100000000000000000000000000000000000000000000000000000000600052602260045260246000fd5b6000600282049050600182168061166557607f821691505b6020821081036116785761167761161e565b5b50919050565b7f4e487b7100000000000000000000000000000000000000000000000000000000600052603260045260246000fd5b600082825260208201905092915050565b7f416d6f756e74206d757374206265206174206c65617374203120776569000000600082015250565b60006116f4601d836116ad565b91506116ff826116be565b602082019050919050565b60006020820190508181036000830152611723816116e7565b9050919050565b60008190508160005260206000209050919050565b60006020601f8301049050919050565b600082821b905092915050565b60006008830261178c7fffffffffffffffffffffffffffffffffffffffffffffffffffffffffffffffff8261174f565b611796868361174f565b95508019841693508086168417925050509392505050565b6000819050919050565b60006117d36117ce6117c98461101a565b6117ae565b61101a565b9050919050565b6000819050919050565b6117ed836117b8565b6118016117f9826117da565b84845461175c565b825550505050565b600090565b611816611809565b6118218184846117e4565b505050565b5b818110156118455761183a60008261180e565b600181019050611827565b5050565b601f82111561188a5761185b8161172a565b6118648461173f565b81016020851015611873578190505b61188761187f8561173f565b830182611826565b50505b505050565b600082821c905092915050565b60006118ad6000198460080261188f565b1980831691505092915050565b60006118c6838361189c565b9150826002028217905092915050565b6118df826110eb565b67ffffffffffffffff8111156118f8576118f761135e565b5b611902825461164d565b61190d828285611849565b600060209050601f831160018114611940576000841561192e578287015190505b61193885826118ba565b8655506119a0565b601f19841661194e8661172a565b60005b8281101561197657848901518255600182019150602085019450602081019050611951565b86831015611993578489015161198f601f89168261189c565b8355505b6001600288020188555050505b505050505050565b6119b18161109a565b82525050565b60006119d26119cd6119c88461107a565b6117ae565b61107a565b9050919050565b60006119e4826119b7565b9050919050565b60006119f6826119d9565b9050919050565b611a06816119eb565b82525050565b6000611a17826110eb565b611a2181856116ad565b9350611a31818560208601611107565b611a3a81611131565b840191505092915050565b600060c082019050611a5a60008301896119a8565b611a676020830188611024565b611a7460408301876119fd565b611a8160608301866119fd565b611a8e6080830185611024565b81810360a0830152611aa08184611a0c565b9050979650505050505050565b7f796f752063616e6e6f7420617070726f766520746865207472616e736163746960008201527f6f6e000000000000000000000000000000000000000000000000000000000000602082015250565b6000611b096022836116ad565b9150611b1482611aad565b604082019050919050565b60006020820190508181036000830152611b3881611afc565b9050919050565b7f616d6f756e74206d757374206265206174206c65617374203120776569000000600082015250565b6000611b75601d836116ad565b9150611b8082611b3f565b602082019050919050565b60006020820190508181036000830152611ba481611b68565b9050919050565b7f616d6f756e74206d757374206265206c657373207468616e206f72206571756160008201527f6c20746f207468652076616c7565000000000000000000000000000000000000602082015250565b6000611c07602e836116ad565b9150611c1282611bab565b604082019050919050565b60006020820190508181036000830152611c3681611bfa565b9050919050565b6000611c488261101a565b9150611c538361101a565b9250828203905081811115611c6b57611c6a611573565b5b92915050565b60008154611c7e8161164d565b611c8881866116ad565b94506001821660008114611ca35760018114611cb957611cec565b60ff198316865281151560200286019350611cec565b611cc28561172a565b60005b83811015611ce457815481890152600182019150602081019050611cc5565b808801955050505b50505092915050565b600060c082019050611d0a60008301896119a8565b611d176020830188611024565b611d2460408301876119fd565b611d3160608301866119fd565b611d3e6080830185611024565b81810360a0830152611d508184611c71565b9050979650505050505050565b600081519050919050565b6000819050602082019050919050565b60007fffffffffffffffffffffffffffffffffffffffff00000000000000000000000082169050919050565b6000611db08251611d78565b80915050919050565b6000611dc482611d5d565b82611dce84611d68565b9050611dd981611da4565b92506014821015611e1957611e147fffffffffffffffffffffffffffffffffffffffff0000000000000000000000008360140360080261174f565b831692505b5050919050565b6000606082019050611e3560008301866119fd565b611e4260208301856119a8565b611e4f6040830184611024565b949350505050565b7f5265656e7472616e637947756172643a207265656e7472616e742063616c6c00600082015250565b6000611e8d601f836116ad565b9150611e9882611e57565b602082019050919050565b60006020820190508181036000830152611ebc81611e80565b905091905056fea2646970667358221220b32e6eb19a284f40b9b8e622c7f4becbfd6477b0ee94ba53adfa8ea3dd78d0b564736f6c63430008130033",
  "linkReferences": {},
  "deployedLinkReferences": {}
}