{
  "_format": "hh-sol-artifact-1",
  "contractName": "NFTManager",
  "sourceName": "contracts/NFTManager.sol",
  "abi": [
    {
      "inputs": [],
      "stateMutability": "payable",
      "type": "constructor"
    },
    {
      "anonymous": false,
      "inputs": [
        {
          "indexed": false,
          "internalType": "address",
          "name": "nftContract",
          "type": "address"
        },
        {
          "indexed": false,
          "internalType": "uint256",
          "name": "tokenId",
          "type": "uint256"
        },
        {
          "indexed": false,
          "internalType": "string",
          "name": "name",
          "type": "string"
        },
        {
          "indexed": false,
          "internalType": "address",
          "name": "storeAddress",
          "type": "address"
        },
        {
          "indexed": false,
          "internalType": "address",
          "name": "owner",
          "type": "address"
        },
        {
          "indexed": false,
          "internalType": "uint256",
          "name": "amount",
          "type": "uint256"
        },
        {
          "indexed": false,
          "internalType": "string",
          "name": "store",
          "type": "string"
        }
      ],
      "name": "NFTListed",
      "type": "event"
    },
    {
      "anonymous": false,
      "inputs": [
        {
          "indexed": false,
          "internalType": "address",
          "name": "nftContract",
          "type": "address"
        },
        {
          "indexed": false,
          "internalType": "uint256",
          "name": "tokenId",
          "type": "uint256"
        },
        {
          "indexed": false,
          "internalType": "string",
          "name": "name",
          "type": "string"
        },
        {
          "indexed": false,
          "internalType": "address",
          "name": "storeAddress",
          "type": "address"
        },
        {
          "indexed": false,
          "internalType": "address",
          "name": "owner",
          "type": "address"
        },
        {
          "indexed": false,
          "internalType": "uint256",
          "name": "amount",
          "type": "uint256"
        },
        {
          "indexed": false,
          "internalType": "string",
          "name": "store",
          "type": "string"
        },
        {
          "indexed": false,
          "internalType": "string",
          "name": "invoice",
          "type": "string"
        },
        {
          "indexed": false,
          "internalType": "uint256",
          "name": "totalAmount",
          "type": "uint256"
        }
      ],
      "name": "NFTSold",
      "type": "event"
    },
    {
      "inputs": [
        {
          "internalType": "string",
          "name": "store",
          "type": "string"
        },
        {
          "internalType": "address",
          "name": "storeAddress",
          "type": "address"
        },
        {
          "internalType": "string",
          "name": "image",
          "type": "string"
        }
      ],
      "name": "addStore",
      "outputs": [],
      "stateMutability": "payable",
      "type": "function"
    },
    {
      "inputs": [
        {
          "internalType": "address",
          "name": "_nftContract",
          "type": "address"
        },
        {
          "internalType": "uint256",
          "name": "_tokenId",
          "type": "uint256"
        },
        {
          "internalType": "uint256",
          "name": "_amount",
          "type": "uint256"
        },
        {
          "internalType": "string",
          "name": "invoice",
          "type": "string"
        }
      ],
      "name": "approveTransaction",
      "outputs": [],
      "stateMutability": "payable",
      "type": "function"
    },
    {
      "inputs": [
        {
          "internalType": "address",
          "name": "_nftContract",
          "type": "address"
        },
        {
          "internalType": "uint256",
          "name": "_tokenId",
          "type": "uint256"
        }
      ],
      "name": "cancelTransaction",
      "outputs": [],
      "stateMutability": "payable",
      "type": "function"
    },
    {
      "inputs": [],
      "name": "getAllStores",
      "outputs": [
        {
          "components": [
            {
              "internalType": "string",
              "name": "storeName",
              "type": "string"
            },
            {
              "internalType": "address",
              "name": "storeAddress",
              "type": "address"
            },
            {
              "internalType": "string",
              "name": "image",
              "type": "string"
            }
          ],
          "internalType": "struct NFTManager.storeDetails[]",
          "name": "",
          "type": "tuple[]"
        }
      ],
      "stateMutability": "view",
      "type": "function"
    },
    {
      "inputs": [],
      "name": "getMyTransactions",
      "outputs": [
        {
          "components": [
            {
              "internalType": "address",
              "name": "nftContract",
              "type": "address"
            },
            {
              "internalType": "uint256",
              "name": "tokenId",
              "type": "uint256"
            },
            {
              "internalType": "string",
              "name": "name",
              "type": "string"
            },
            {
              "internalType": "address payable",
              "name": "storeAddress",
              "type": "address"
            },
            {
              "internalType": "address payable",
              "name": "owner",
              "type": "address"
            },
            {
              "internalType": "uint256",
              "name": "amount",
              "type": "uint256"
            },
            {
              "internalType": "string",
              "name": "store",
              "type": "string"
            },
            {
              "internalType": "string",
              "name": "invoice",
              "type": "string"
            },
            {
              "internalType": "bool",
              "name": "done",
              "type": "bool"
            },
            {
              "internalType": "uint256",
              "name": "totalAmount",
              "type": "uint256"
            },
            {
              "internalType": "uint256",
              "name": "time",
              "type": "uint256"
            }
          ],
          "internalType": "struct NFTManager.NFT[]",
          "name": "",
          "type": "tuple[]"
        }
      ],
      "stateMutability": "view",
      "type": "function"
    },
    {
      "inputs": [
        {
          "internalType": "address",
          "name": "storeAddress",
          "type": "address"
        }
      ],
      "name": "getStoreTransactions",
      "outputs": [
        {
          "components": [
            {
              "internalType": "address",
              "name": "nftContract",
              "type": "address"
            },
            {
              "internalType": "uint256",
              "name": "tokenId",
              "type": "uint256"
            },
            {
              "internalType": "string",
              "name": "name",
              "type": "string"
            },
            {
              "internalType": "address payable",
              "name": "storeAddress",
              "type": "address"
            },
            {
              "internalType": "address payable",
              "name": "owner",
              "type": "address"
            },
            {
              "internalType": "uint256",
              "name": "amount",
              "type": "uint256"
            },
            {
              "internalType": "string",
              "name": "store",
              "type": "string"
            },
            {
              "internalType": "string",
              "name": "invoice",
              "type": "string"
            },
            {
              "internalType": "bool",
              "name": "done",
              "type": "bool"
            },
            {
              "internalType": "uint256",
              "name": "totalAmount",
              "type": "uint256"
            },
            {
              "internalType": "uint256",
              "name": "time",
              "type": "uint256"
            }
          ],
          "internalType": "struct NFTManager.NFT[]",
          "name": "",
          "type": "tuple[]"
        }
      ],
      "stateMutability": "view",
      "type": "function"
    },
    {
      "inputs": [
        {
          "internalType": "address",
          "name": "_nftContract",
          "type": "address"
        },
        {
          "internalType": "string",
          "name": "name",
          "type": "string"
        },
        {
          "internalType": "uint256",
          "name": "_tokenId",
          "type": "uint256"
        },
        {
          "internalType": "uint256",
          "name": "_amount",
          "type": "uint256"
        },
        {
          "internalType": "address payable",
          "name": "_storeAddress",
          "type": "address"
        },
        {
          "internalType": "string",
          "name": "store",
          "type": "string"
        }
      ],
      "name": "initTransaction",
      "outputs": [],
      "stateMutability": "payable",
      "type": "function"
    },
    {
      "inputs": [
        {
          "internalType": "uint256",
          "name": "",
          "type": "uint256"
        }
      ],
      "name": "stores",
      "outputs": [
        {
          "internalType": "string",
          "name": "storeName",
          "type": "string"
        },
        {
          "internalType": "address",
          "name": "storeAddress",
          "type": "address"
        },
        {
          "internalType": "string",
          "name": "image",
          "type": "string"
        }
      ],
      "stateMutability": "view",
      "type": "function"
    },
    {
      "inputs": [
        {
          "internalType": "address",
          "name": "_nftContract",
          "type": "address"
        },
        {
          "internalType": "uint256",
          "name": "_tokenId",
          "type": "uint256"
        },
        {
          "internalType": "address payable",
          "name": "to",
          "type": "address"
        }
      ],
      "name": "transferNFT",
      "outputs": [],
      "stateMutability": "payable",
      "type": "function"
    }
  ],
  "bytecode": "0x6080604052600160008190555033600360006101000a81548173ffffffffffffffffffffffffffffffffffffffff021916908373ffffffffffffffffffffffffffffffffffffffff1602179055506136be8061005c6000396000f3fe6080604052600436106100865760003560e01c8063a86658ab11610059578063a86658ab14610119578063b44a8cea14610135578063c8883e4414610172578063d2f0922a1461018e578063e8a59cd8146101aa57610086565b8063535dd68b1461008b5780638252dda3146100a75780638b4bd105146100c357806397e4ca70146100ee575b600080fd5b6100a560048036038101906100a09190612329565b6101e9565b005b6100c160048036038101906100bc91906123ee565b6104b0565b005b3480156100cf57600080fd5b506100d8610a55565b6040516100e59190612618565b60405180910390f35b3480156100fa57600080fd5b50610103610c2e565b6040516101109190612832565b60405180910390f35b610133600480360381019061012e9190612854565b61112c565b005b34801561014157600080fd5b5061015c60048036038101906101579190612894565b6113ff565b6040516101699190612832565b60405180910390f35b61018c600480360381019061018791906128c1565b6118ff565b005b6101a860048036038101906101a3919061294c565b611c7d565b005b3480156101b657600080fd5b506101d160048036038101906101cc919061299f565b611e1b565b6040516101e093929190612a25565b60405180910390f35b6101f1611f85565b60008311610234576040517f08c379a000000000000000000000000000000000000000000000000000000000815260040161022b90612ab6565b60405180910390fd5b60003390506102436002611fd4565b6040518061016001604052808873ffffffffffffffffffffffffffffffffffffffff1681526020018681526020018781526020018473ffffffffffffffffffffffffffffffffffffffff1681526020018273ffffffffffffffffffffffffffffffffffffffff16815260200185815260200183815260200160405180602001604052806000815250815260200160001515815260200160008152602001428152506004600087815260200190815260200160002060008201518160000160006101000a81548173ffffffffffffffffffffffffffffffffffffffff021916908373ffffffffffffffffffffffffffffffffffffffff16021790555060208201518160010155604082015181600201908161035d9190612ce2565b5060608201518160030160006101000a81548173ffffffffffffffffffffffffffffffffffffffff021916908373ffffffffffffffffffffffffffffffffffffffff16021790555060808201518160040160006101000a81548173ffffffffffffffffffffffffffffffffffffffff021916908373ffffffffffffffffffffffffffffffffffffffff16021790555060a0820151816005015560c082015181600601908161040b9190612ce2565b5060e08201518160070190816104219190612ce2565b506101008201518160080160006101000a81548160ff021916908315150217905550610120820151816009015561014082015181600a01559050507f49114c8d400c11c0c6dd4c393d79d123d68c3c2f9690163a7dabd2eb7b202472878688868589886040516104979796959493929190612e18565b60405180910390a1506104a8611fea565b505050505050565b6104b8611f85565b60006004600085815260200190815260200160002090508060030160009054906101000a900473ffffffffffffffffffffffffffffffffffffffff1673ffffffffffffffffffffffffffffffffffffffff163373ffffffffffffffffffffffffffffffffffffffff1614610561576040517f08c379a000000000000000000000000000000000000000000000000000000000815260040161055890612f07565b60405180910390fd5b600083116105a4576040517f08c379a000000000000000000000000000000000000000000000000000000000815260040161059b90612f73565b60405180910390fd5b80600501548311156105eb576040517f08c379a00000000000000000000000000000000000000000000000000000000081526004016105e290613005565b60405180910390fd5b6000816005015490508160030160009054906101000a900473ffffffffffffffffffffffffffffffffffffffff1673ffffffffffffffffffffffffffffffffffffffff166108fc859081150290604051600060405180830381858888f1935050505015801561065e573d6000803e3d6000fd5b50838161066b9190613054565b90508160040160009054906101000a900473ffffffffffffffffffffffffffffffffffffffff1673ffffffffffffffffffffffffffffffffffffffff166108fc829081150290604051600060405180830381858888f193505050501580156106d7573d6000803e3d6000fd5b50828260070190816106e99190612ce2565b5060018260080160006101000a81548160ff0219169083151502179055508382600901819055504282600a018190555081600460008781526020019081526020016000206000820160009054906101000a900473ffffffffffffffffffffffffffffffffffffffff168160000160006101000a81548173ffffffffffffffffffffffffffffffffffffffff021916908373ffffffffffffffffffffffffffffffffffffffff16021790555060018201548160010155600282018160020190816107b2919061309e565b506003820160009054906101000a900473ffffffffffffffffffffffffffffffffffffffff168160030160006101000a81548173ffffffffffffffffffffffffffffffffffffffff021916908373ffffffffffffffffffffffffffffffffffffffff1602179055506004820160009054906101000a900473ffffffffffffffffffffffffffffffffffffffff168160040160006101000a81548173ffffffffffffffffffffffffffffffffffffffff021916908373ffffffffffffffffffffffffffffffffffffffff160217905550600582015481600501556006820181600601908161089f919061309e565b50600782018160070190816108b4919061309e565b506008820160009054906101000a900460ff168160080160006101000a81548160ff02191690831515021790555060098201548160090155600a82015481600a01559050507f34508b70a5a1f90d3eafb233756aa94db2f7aa878ee9d3dcd7470c7bfedeeeef8686846002018560030160009054906101000a900473ffffffffffffffffffffffffffffffffffffffff168660040160009054906101000a900473ffffffffffffffffffffffffffffffffffffffff1689886006018a8c6040516109869998979695949392919061320a565b60405180910390a18573ffffffffffffffffffffffffffffffffffffffff166323b872dd8360040160009054906101000a900473ffffffffffffffffffffffffffffffffffffffff166040518060600160405280602a815260200161365f602a91396109f190613308565b60601c886040518463ffffffff1660e01b8152600401610a139392919061336f565b600060405180830381600087803b158015610a2d57600080fd5b505af1158015610a41573d6000803e3d6000fd5b505050505050610a4f611fea565b50505050565b60606005805480602002602001604051908101604052809291908181526020016000905b82821015610c255783829060005260206000209060030201604051806060016040529081600082018054610aac90612b05565b80601f0160208091040260200160405190810160405280929190818152602001828054610ad890612b05565b8015610b255780601f10610afa57610100808354040283529160200191610b25565b820191906000526020600020905b815481529060010190602001808311610b0857829003601f168201915b505050505081526020016001820160009054906101000a900473ffffffffffffffffffffffffffffffffffffffff1673ffffffffffffffffffffffffffffffffffffffff1673ffffffffffffffffffffffffffffffffffffffff168152602001600282018054610b9490612b05565b80601f0160208091040260200160405190810160405280929190818152602001828054610bc090612b05565b8015610c0d5780601f10610be257610100808354040283529160200191610c0d565b820191906000526020600020905b815481529060010190602001808311610bf057829003601f168201915b50505050508152505081526020019060010190610a79565b50505050905090565b60606000610c3c6002611ff4565b90506000805b82811015610ce1573373ffffffffffffffffffffffffffffffffffffffff1660046000600184610c7291906133a6565b815260200190815260200160002060040160009054906101000a900473ffffffffffffffffffffffffffffffffffffffff1673ffffffffffffffffffffffffffffffffffffffff1603610cce578180610cca906133da565b9250505b8080610cd9906133da565b915050610c42565b5060008167ffffffffffffffff811115610cfe57610cfd61218a565b5b604051908082528060200260200182016040528015610d3757816020015b610d24612002565b815260200190600190039081610d1c5790505b5090506000805b84811015611121573373ffffffffffffffffffffffffffffffffffffffff1660046000600184610d6e91906133a6565b815260200190815260200160002060040160009054906101000a900473ffffffffffffffffffffffffffffffffffffffff1673ffffffffffffffffffffffffffffffffffffffff160361110e5760046000600183610dcc91906133a6565b8152602001908152602001600020604051806101600160405290816000820160009054906101000a900473ffffffffffffffffffffffffffffffffffffffff1673ffffffffffffffffffffffffffffffffffffffff1673ffffffffffffffffffffffffffffffffffffffff16815260200160018201548152602001600282018054610e5690612b05565b80601f0160208091040260200160405190810160405280929190818152602001828054610e8290612b05565b8015610ecf5780601f10610ea457610100808354040283529160200191610ecf565b820191906000526020600020905b815481529060010190602001808311610eb257829003601f168201915b505050505081526020016003820160009054906101000a900473ffffffffffffffffffffffffffffffffffffffff1673ffffffffffffffffffffffffffffffffffffffff1673ffffffffffffffffffffffffffffffffffffffff1681526020016004820160009054906101000a900473ffffffffffffffffffffffffffffffffffffffff1673ffffffffffffffffffffffffffffffffffffffff1673ffffffffffffffffffffffffffffffffffffffff16815260200160058201548152602001600682018054610f9e90612b05565b80601f0160208091040260200160405190810160405280929190818152602001828054610fca90612b05565b80156110175780601f10610fec57610100808354040283529160200191611017565b820191906000526020600020905b815481529060010190602001808311610ffa57829003601f168201915b5050505050815260200160078201805461103090612b05565b80601f016020809104026020016040519081016040528092919081815260200182805461105c90612b05565b80156110a95780601f1061107e576101008083540402835291602001916110a9565b820191906000526020600020905b81548152906001019060200180831161108c57829003601f168201915b505050505081526020016008820160009054906101000a900460ff1615151515815260200160098201548152602001600a820154815250508383815181106110f4576110f3613422565b5b6020026020010181905250818061110a906133da565b9250505b8080611119906133da565b915050610d3e565b508194505050505090565b611134611f85565b60006004600083815260200190815260200160002090508060040160009054906101000a900473ffffffffffffffffffffffffffffffffffffffff1673ffffffffffffffffffffffffffffffffffffffff163373ffffffffffffffffffffffffffffffffffffffff16146111dd576040517f08c379a00000000000000000000000000000000000000000000000000000000081526004016111d4906134c3565b60405180910390fd5b8060040160009054906101000a900473ffffffffffffffffffffffffffffffffffffffff1673ffffffffffffffffffffffffffffffffffffffff166108fc82600501549081150290604051600060405180830381858888f1935050505015801561124b573d6000803e3d6000fd5b508273ffffffffffffffffffffffffffffffffffffffff166323b872dd8260040160009054906101000a900473ffffffffffffffffffffffffffffffffffffffff166040518060600160405280602a815260200161365f602a91396112af90613308565b60601c856040518463ffffffff1660e01b81526004016112d19392919061336f565b600060405180830381600087803b1580156112eb57600080fd5b505af11580156112ff573d6000803e3d6000fd5b5050505060046000838152602001908152602001600020600080820160006101000a81549073ffffffffffffffffffffffffffffffffffffffff0219169055600182016000905560028201600061135691906120a0565b6003820160006101000a81549073ffffffffffffffffffffffffffffffffffffffff02191690556004820160006101000a81549073ffffffffffffffffffffffffffffffffffffffff021916905560058201600090556006820160006113bc91906120a0565b6007820160006113cc91906120a0565b6008820160006101000a81549060ff02191690556009820160009055600a8201600090555050506113fb611fea565b5050565b6060600061140d6002611ff4565b90506000805b828110156114b2578473ffffffffffffffffffffffffffffffffffffffff166004600060018461144391906133a6565b815260200190815260200160002060030160009054906101000a900473ffffffffffffffffffffffffffffffffffffffff1673ffffffffffffffffffffffffffffffffffffffff160361149f57818061149b906133da565b9250505b80806114aa906133da565b915050611413565b5060008167ffffffffffffffff8111156114cf576114ce61218a565b5b60405190808252806020026020018201604052801561150857816020015b6114f5612002565b8152602001906001900390816114ed5790505b5090506000805b848110156118f2578673ffffffffffffffffffffffffffffffffffffffff166004600060018461153f91906133a6565b815260200190815260200160002060030160009054906101000a900473ffffffffffffffffffffffffffffffffffffffff1673ffffffffffffffffffffffffffffffffffffffff16036118df576004600060018361159d91906133a6565b8152602001908152602001600020604051806101600160405290816000820160009054906101000a900473ffffffffffffffffffffffffffffffffffffffff1673ffffffffffffffffffffffffffffffffffffffff1673ffffffffffffffffffffffffffffffffffffffff1681526020016001820154815260200160028201805461162790612b05565b80601f016020809104026020016040519081016040528092919081815260200182805461165390612b05565b80156116a05780601f10611675576101008083540402835291602001916116a0565b820191906000526020600020905b81548152906001019060200180831161168357829003601f168201915b505050505081526020016003820160009054906101000a900473ffffffffffffffffffffffffffffffffffffffff1673ffffffffffffffffffffffffffffffffffffffff1673ffffffffffffffffffffffffffffffffffffffff1681526020016004820160009054906101000a900473ffffffffffffffffffffffffffffffffffffffff1673ffffffffffffffffffffffffffffffffffffffff1673ffffffffffffffffffffffffffffffffffffffff1681526020016005820154815260200160068201805461176f90612b05565b80601f016020809104026020016040519081016040528092919081815260200182805461179b90612b05565b80156117e85780601f106117bd576101008083540402835291602001916117e8565b820191906000526020600020905b8154815290600101906020018083116117cb57829003601f168201915b5050505050815260200160078201805461180190612b05565b80601f016020809104026020016040519081016040528092919081815260200182805461182d90612b05565b801561187a5780601f1061184f5761010080835404028352916020019161187a565b820191906000526020600020905b81548152906001019060200180831161185d57829003601f168201915b505050505081526020016008820160009054906101000a900460ff1615151515815260200160098201548152602001600a820154815250508383815181106118c5576118c4613422565b5b602002602001018190525081806118db906133da565b9250505b80806118ea906133da565b91505061150f565b5081945050505050919050565b60006001905060006005805480602002602001604051908101604052809291908181526020016000905b82821015611ad5578382906000526020600020906003020160405180606001604052908160008201805461195c90612b05565b80601f016020809104026020016040519081016040528092919081815260200182805461198890612b05565b80156119d55780601f106119aa576101008083540402835291602001916119d5565b820191906000526020600020905b8154815290600101906020018083116119b857829003601f168201915b505050505081526020016001820160009054906101000a900473ffffffffffffffffffffffffffffffffffffffff1673ffffffffffffffffffffffffffffffffffffffff1673ffffffffffffffffffffffffffffffffffffffff168152602001600282018054611a4490612b05565b80601f0160208091040260200160405190810160405280929190818152602001828054611a7090612b05565b8015611abd5780601f10611a9257610100808354040283529160200191611abd565b820191906000526020600020905b815481529060010190602001808311611aa057829003601f168201915b50505050508152505081526020019060010190611929565b50505050905060005b600580549050811015611b5857818181518110611afe57611afd613422565b5b60200260200101516020015173ffffffffffffffffffffffffffffffffffffffff168573ffffffffffffffffffffffffffffffffffffffff1603611b455760009250611b58565b8080611b50906133da565b915050611ade565b508115611c3b57600060405180606001604052808781526020018673ffffffffffffffffffffffffffffffffffffffff16815260200185815250905060058190806001815401808255809150506001900390600052602060002090600302016000909190919091506000820151816000019081611bd59190612ce2565b5060208201518160010160006101000a81548173ffffffffffffffffffffffffffffffffffffffff021916908373ffffffffffffffffffffffffffffffffffffffff1602179055506040820151816002019081611c329190612ce2565b50505050611c76565b6040517f08c379a0000000000000000000000000000000000000000000000000000000008152600401611c6d9061352f565b60405180910390fd5b5050505050565b611c85611f85565b60006004600084815260200190815260200160002090508060040160009054906101000a900473ffffffffffffffffffffffffffffffffffffffff1673ffffffffffffffffffffffffffffffffffffffff163373ffffffffffffffffffffffffffffffffffffffff1614611d2e576040517f08c379a0000000000000000000000000000000000000000000000000000000008152600401611d259061359b565b60405180910390fd5b8373ffffffffffffffffffffffffffffffffffffffff166323b872dd8260040160009054906101000a900473ffffffffffffffffffffffffffffffffffffffff1684866040518463ffffffff1660e01b8152600401611d8f939291906135bb565b600060405180830381600087803b158015611da957600080fd5b505af1158015611dbd573d6000803e3d6000fd5b505050504281600a0181905550818160040160006101000a81548173ffffffffffffffffffffffffffffffffffffffff021916908373ffffffffffffffffffffffffffffffffffffffff16021790555050611e16611fea565b505050565b60058181548110611e2b57600080fd5b9060005260206000209060030201600091509050806000018054611e4e90612b05565b80601f0160208091040260200160405190810160405280929190818152602001828054611e7a90612b05565b8015611ec75780601f10611e9c57610100808354040283529160200191611ec7565b820191906000526020600020905b815481529060010190602001808311611eaa57829003601f168201915b5050505050908060010160009054906101000a900473ffffffffffffffffffffffffffffffffffffffff1690806002018054611f0290612b05565b80601f0160208091040260200160405190810160405280929190818152602001828054611f2e90612b05565b8015611f7b5780601f10611f5057610100808354040283529160200191611f7b565b820191906000526020600020905b815481529060010190602001808311611f5e57829003601f168201915b5050505050905083565b600260005403611fca576040517f08c379a0000000000000000000000000000000000000000000000000000000008152600401611fc19061363e565b60405180910390fd5b6002600081905550565b6001816000016000828254019250508190555050565b6001600081905550565b600081600001549050919050565b604051806101600160405280600073ffffffffffffffffffffffffffffffffffffffff1681526020016000815260200160608152602001600073ffffffffffffffffffffffffffffffffffffffff168152602001600073ffffffffffffffffffffffffffffffffffffffff16815260200160008152602001606081526020016060815260200160001515815260200160008152602001600081525090565b5080546120ac90612b05565b6000825580601f106120be57506120dd565b601f0160209004906000526020600020908101906120dc91906120e0565b5b50565b5b808211156120f95760008160009055506001016120e1565b5090565b6000604051905090565b600080fd5b600080fd5b600073ffffffffffffffffffffffffffffffffffffffff82169050919050565b600061213c82612111565b9050919050565b61214c81612131565b811461215757600080fd5b50565b60008135905061216981612143565b92915050565b600080fd5b600080fd5b6000601f19601f8301169050919050565b7f4e487b7100000000000000000000000000000000000000000000000000000000600052604160045260246000fd5b6121c282612179565b810181811067ffffffffffffffff821117156121e1576121e061218a565b5b80604052505050565b60006121f46120fd565b905061220082826121b9565b919050565b600067ffffffffffffffff8211156122205761221f61218a565b5b61222982612179565b9050602081019050919050565b82818337600083830152505050565b600061225861225384612205565b6121ea565b90508281526020810184848401111561227457612273612174565b5b61227f848285612236565b509392505050565b600082601f83011261229c5761229b61216f565b5b81356122ac848260208601612245565b91505092915050565b6000819050919050565b6122c8816122b5565b81146122d357600080fd5b50565b6000813590506122e5816122bf565b92915050565b60006122f682612111565b9050919050565b612306816122eb565b811461231157600080fd5b50565b600081359050612323816122fd565b92915050565b60008060008060008060c0878903121561234657612345612107565b5b600061235489828a0161215a565b965050602087013567ffffffffffffffff8111156123755761237461210c565b5b61238189828a01612287565b955050604061239289828a016122d6565b94505060606123a389828a016122d6565b93505060806123b489828a01612314565b92505060a087013567ffffffffffffffff8111156123d5576123d461210c565b5b6123e189828a01612287565b9150509295509295509295565b6000806000806080858703121561240857612407612107565b5b60006124168782880161215a565b9450506020612427878288016122d6565b9350506040612438878288016122d6565b925050606085013567ffffffffffffffff8111156124595761245861210c565b5b61246587828801612287565b91505092959194509250565b600081519050919050565b600082825260208201905092915050565b6000819050602082019050919050565b600081519050919050565b600082825260208201905092915050565b60005b838110156124d75780820151818401526020810190506124bc565b60008484015250505050565b60006124ee8261249d565b6124f881856124a8565b93506125088185602086016124b9565b61251181612179565b840191505092915050565b61252581612131565b82525050565b6000606083016000830151848203600086015261254882826124e3565b915050602083015161255d602086018261251c565b506040830151848203604086015261257582826124e3565b9150508091505092915050565b600061258e838361252b565b905092915050565b6000602082019050919050565b60006125ae82612471565b6125b8818561247c565b9350836020820285016125ca8561248d565b8060005b8581101561260657848403895281516125e78582612582565b94506125f283612596565b925060208a019950506001810190506125ce565b50829750879550505050505092915050565b6000602082019050818103600083015261263281846125a3565b905092915050565b600081519050919050565b600082825260208201905092915050565b6000819050602082019050919050565b61266f816122b5565b82525050565b61267e816122eb565b82525050565b60008115159050919050565b61269981612684565b82525050565b6000610160830160008301516126b8600086018261251c565b5060208301516126cb6020860182612666565b50604083015184820360408601526126e382826124e3565b91505060608301516126f86060860182612675565b50608083015161270b6080860182612675565b5060a083015161271e60a0860182612666565b5060c083015184820360c086015261273682826124e3565b91505060e083015184820360e086015261275082826124e3565b915050610100830151612767610100860182612690565b5061012083015161277c610120860182612666565b50610140830151612791610140860182612666565b508091505092915050565b60006127a8838361269f565b905092915050565b6000602082019050919050565b60006127c88261263a565b6127d28185612645565b9350836020820285016127e485612656565b8060005b858110156128205784840389528151612801858261279c565b945061280c836127b0565b925060208a019950506001810190506127e8565b50829750879550505050505092915050565b6000602082019050818103600083015261284c81846127bd565b905092915050565b6000806040838503121561286b5761286a612107565b5b60006128798582860161215a565b925050602061288a858286016122d6565b9150509250929050565b6000602082840312156128aa576128a9612107565b5b60006128b88482850161215a565b91505092915050565b6000806000606084860312156128da576128d9612107565b5b600084013567ffffffffffffffff8111156128f8576128f761210c565b5b61290486828701612287565b93505060206129158682870161215a565b925050604084013567ffffffffffffffff8111156129365761293561210c565b5b61294286828701612287565b9150509250925092565b60008060006060848603121561296557612964612107565b5b60006129738682870161215a565b9350506020612984868287016122d6565b925050604061299586828701612314565b9150509250925092565b6000602082840312156129b5576129b4612107565b5b60006129c3848285016122d6565b91505092915050565b600082825260208201905092915050565b60006129e88261249d565b6129f281856129cc565b9350612a028185602086016124b9565b612a0b81612179565b840191505092915050565b612a1f81612131565b82525050565b60006060820190508181036000830152612a3f81866129dd565b9050612a4e6020830185612a16565b8181036040830152612a6081846129dd565b9050949350505050565b7f416d6f756e74206d757374206265206174206c65617374203120776569000000600082015250565b6000612aa0601d836129cc565b9150612aab82612a6a565b602082019050919050565b60006020820190508181036000830152612acf81612a93565b9050919050565b7f4e487b7100000000000000000000000000000000000000000000000000000000600052602260045260246000fd5b60006002820490506001821680612b1d57607f821691505b602082108103612b3057612b2f612ad6565b5b50919050565b60008190508160005260206000209050919050565b60006020601f8301049050919050565b600082821b905092915050565b600060088302612b987fffffffffffffffffffffffffffffffffffffffffffffffffffffffffffffffff82612b5b565b612ba28683612b5b565b95508019841693508086168417925050509392505050565b6000819050919050565b6000612bdf612bda612bd5846122b5565b612bba565b6122b5565b9050919050565b6000819050919050565b612bf983612bc4565b612c0d612c0582612be6565b848454612b68565b825550505050565b600090565b612c22612c15565b612c2d818484612bf0565b505050565b5b81811015612c5157612c46600082612c1a565b600181019050612c33565b5050565b601f821115612c9657612c6781612b36565b612c7084612b4b565b81016020851015612c7f578190505b612c93612c8b85612b4b565b830182612c32565b50505b505050565b600082821c905092915050565b6000612cb960001984600802612c9b565b1980831691505092915050565b6000612cd28383612ca8565b9150826002028217905092915050565b612ceb8261249d565b67ffffffffffffffff811115612d0457612d0361218a565b5b612d0e8254612b05565b612d19828285612c55565b600060209050601f831160018114612d4c5760008415612d3a578287015190505b612d448582612cc6565b865550612dac565b601f198416612d5a86612b36565b60005b82811015612d8257848901518255600182019150602085019450602081019050612d5d565b86831015612d9f5784890151612d9b601f891682612ca8565b8355505b6001600288020188555050505b505050505050565b612dbd816122b5565b82525050565b6000612dde612dd9612dd484612111565b612bba565b612111565b9050919050565b6000612df082612dc3565b9050919050565b6000612e0282612de5565b9050919050565b612e1281612df7565b82525050565b600060e082019050612e2d600083018a612a16565b612e3a6020830189612db4565b8181036040830152612e4c81886129dd565b9050612e5b6060830187612e09565b612e686080830186612e09565b612e7560a0830185612db4565b81810360c0830152612e8781846129dd565b905098975050505050505050565b7f796f752063616e6e6f7420617070726f766520746865207472616e736163746960008201527f6f6e000000000000000000000000000000000000000000000000000000000000602082015250565b6000612ef16022836129cc565b9150612efc82612e95565b604082019050919050565b60006020820190508181036000830152612f2081612ee4565b9050919050565b7f616d6f756e74206d757374206265206174206c65617374203120776569000000600082015250565b6000612f5d601d836129cc565b9150612f6882612f27565b602082019050919050565b60006020820190508181036000830152612f8c81612f50565b9050919050565b7f616d6f756e74206d757374206265206c657373207468616e206f72206571756160008201527f6c20746f207468652076616c7565000000000000000000000000000000000000602082015250565b6000612fef602e836129cc565b9150612ffa82612f93565b604082019050919050565b6000602082019050818103600083015261301e81612fe2565b9050919050565b7f4e487b7100000000000000000000000000000000000000000000000000000000600052601160045260246000fd5b600061305f826122b5565b915061306a836122b5565b925082820390508181111561308257613081613025565b5b92915050565b60008154905061309781612b05565b9050919050565b8181036130ac575050613184565b6130b582613088565b67ffffffffffffffff8111156130ce576130cd61218a565b5b6130d88254612b05565b6130e3828285612c55565b6000601f8311600181146131125760008415613100578287015490505b61310a8582612cc6565b86555061317d565b601f19841661312087612b36565b965061312b86612b36565b60005b828110156131535784890154825560018201915060018501945060208101905061312e565b86831015613170578489015461316c601f891682612ca8565b8355505b6001600288020188555050505b5050505050505b565b6000815461319381612b05565b61319d81866129cc565b945060018216600081146131b857600181146131ce57613201565b60ff198316865281151560200286019350613201565b6131d785612b36565b60005b838110156131f9578154818901526001820191506020810190506131da565b808801955050505b50505092915050565b600061012082019050613220600083018c612a16565b61322d602083018b612db4565b818103604083015261323f818a613186565b905061324e6060830189612e09565b61325b6080830188612e09565b61326860a0830187612db4565b81810360c083015261327a8186613186565b905081810360e083015261328e81856129dd565b905061329e610100830184612db4565b9a9950505050505050505050565b600081519050919050565b6000819050602082019050919050565b60007fffffffffffffffffffffffffffffffffffffffff00000000000000000000000082169050919050565b60006132ff82516132c7565b80915050919050565b6000613313826132ac565b8261331d846132b7565b9050613328816132f3565b92506014821015613368576133637fffffffffffffffffffffffffffffffffffffffff00000000000000000000000083601403600802612b5b565b831692505b5050919050565b60006060820190506133846000830186612e09565b6133916020830185612a16565b61339e6040830184612db4565b949350505050565b60006133b1826122b5565b91506133bc836122b5565b92508282019050808211156133d4576133d3613025565b5b92915050565b60006133e5826122b5565b91507fffffffffffffffffffffffffffffffffffffffffffffffffffffffffffffffff820361341757613416613025565b5b600182019050919050565b7f4e487b7100000000000000000000000000000000000000000000000000000000600052603260045260246000fd5b7f796f752063616e6e6f742063616e63656c20746865207472616e73616374696f60008201527f6e00000000000000000000000000000000000000000000000000000000000000602082015250565b60006134ad6021836129cc565b91506134b882613451565b604082019050919050565b600060208201905081810360008301526134dc816134a0565b9050919050565b7f53746f726520616c726561647920657869737473000000000000000000000000600082015250565b60006135196014836129cc565b9150613524826134e3565b602082019050919050565b600060208201905081810360008301526135488161350c565b9050919050565b7f796f752063616e6e6f74207472616e7366657220746865206e66740000000000600082015250565b6000613585601b836129cc565b91506135908261354f565b602082019050919050565b600060208201905081810360008301526135b481613578565b9050919050565b60006060820190506135d06000830186612e09565b6135dd6020830185612e09565b6135ea6040830184612db4565b949350505050565b7f5265656e7472616e637947756172643a207265656e7472616e742063616c6c00600082015250565b6000613628601f836129cc565b9150613633826135f2565b602082019050919050565b600060208201905081810360008301526136578161361b565b905091905056fe307830303030303030303030303030303030303030303030303030303030303030303030303030303030a2646970667358221220810ddc59963a5b4b0815b83bfc5d62b88260e03b84c18fb2d63c0e127f5341da64736f6c63430008130033",
  "linkReferences": {},
  "deployedLinkReferences": {}
}