{
  "_format": "hh-sol-artifact-1",
  "contractName": "NFTManager",
  "sourceName": "contracts/NFTManager.sol",
  "abi": [
    {
      "inputs": [],
      "stateMutability": "payable",
      "type": "constructor"
    },
    {
      "anonymous": false,
      "inputs": [
        {
          "indexed": false,
          "internalType": "address",
          "name": "nftContract",
          "type": "address"
        },
        {
          "indexed": false,
          "internalType": "uint256",
          "name": "tokenId",
          "type": "uint256"
        },
        {
          "indexed": false,
          "internalType": "string",
          "name": "name",
          "type": "string"
        },
        {
          "indexed": false,
          "internalType": "address",
          "name": "storeAddress",
          "type": "address"
        },
        {
          "indexed": false,
          "internalType": "address",
          "name": "owner",
          "type": "address"
        },
        {
          "indexed": false,
          "internalType": "uint256",
          "name": "amount",
          "type": "uint256"
        },
        {
          "indexed": false,
          "internalType": "string",
          "name": "store",
          "type": "string"
        }
      ],
      "name": "NFTListed",
      "type": "event"
    },
    {
      "anonymous": false,
      "inputs": [
        {
          "indexed": false,
          "internalType": "address",
          "name": "nftContract",
          "type": "address"
        },
        {
          "indexed": false,
          "internalType": "uint256",
          "name": "tokenId",
          "type": "uint256"
        },
        {
          "indexed": false,
          "internalType": "string",
          "name": "name",
          "type": "string"
        },
        {
          "indexed": false,
          "internalType": "address",
          "name": "storeAddress",
          "type": "address"
        },
        {
          "indexed": false,
          "internalType": "address",
          "name": "owner",
          "type": "address"
        },
        {
          "indexed": false,
          "internalType": "uint256",
          "name": "amount",
          "type": "uint256"
        },
        {
          "indexed": false,
          "internalType": "string",
          "name": "store",
          "type": "string"
        },
        {
          "indexed": false,
          "internalType": "string",
          "name": "invoice",
          "type": "string"
        },
        {
          "indexed": false,
          "internalType": "uint256",
          "name": "totalAmount",
          "type": "uint256"
        }
      ],
      "name": "NFTSold",
      "type": "event"
    },
    {
      "inputs": [
        {
          "internalType": "string",
          "name": "store",
          "type": "string"
        },
        {
          "internalType": "address",
          "name": "storeAddress",
          "type": "address"
        },
        {
          "internalType": "string",
          "name": "image",
          "type": "string"
        }
      ],
      "name": "addStore",
      "outputs": [],
      "stateMutability": "payable",
      "type": "function"
    },
    {
      "inputs": [
        {
          "internalType": "address",
          "name": "_nftContract",
          "type": "address"
        },
        {
          "internalType": "uint256",
          "name": "_tokenId",
          "type": "uint256"
        },
        {
          "internalType": "uint256",
          "name": "_amount",
          "type": "uint256"
        },
        {
          "internalType": "string",
          "name": "invoice",
          "type": "string"
        }
      ],
      "name": "approveTransaction",
      "outputs": [],
      "stateMutability": "payable",
      "type": "function"
    },
    {
      "inputs": [
        {
          "internalType": "address",
          "name": "_nftContract",
          "type": "address"
        },
        {
          "internalType": "uint256",
          "name": "_tokenId",
          "type": "uint256"
        }
      ],
      "name": "cancelTransaction",
      "outputs": [],
      "stateMutability": "payable",
      "type": "function"
    },
    {
      "inputs": [],
      "name": "getAllStores",
      "outputs": [
        {
          "components": [
            {
              "internalType": "string",
              "name": "storeName",
              "type": "string"
            },
            {
              "internalType": "address",
              "name": "storeAddress",
              "type": "address"
            },
            {
              "internalType": "string",
              "name": "image",
              "type": "string"
            }
          ],
          "internalType": "struct NFTManager.storeDetails[]",
          "name": "",
          "type": "tuple[]"
        }
      ],
      "stateMutability": "view",
      "type": "function"
    },
    {
      "inputs": [],
      "name": "getMyTransactions",
      "outputs": [
        {
          "components": [
            {
              "internalType": "address",
              "name": "nftContract",
              "type": "address"
            },
            {
              "internalType": "uint256",
              "name": "tokenId",
              "type": "uint256"
            },
            {
              "internalType": "string",
              "name": "name",
              "type": "string"
            },
            {
              "internalType": "address payable",
              "name": "storeAddress",
              "type": "address"
            },
            {
              "internalType": "address payable",
              "name": "owner",
              "type": "address"
            },
            {
              "internalType": "uint256",
              "name": "amount",
              "type": "uint256"
            },
            {
              "internalType": "string",
              "name": "store",
              "type": "string"
            },
            {
              "internalType": "string",
              "name": "invoice",
              "type": "string"
            },
            {
              "internalType": "bool",
              "name": "done",
              "type": "bool"
            },
            {
              "internalType": "uint256",
              "name": "totalAmount",
              "type": "uint256"
            },
            {
              "internalType": "uint256",
              "name": "time",
              "type": "uint256"
            }
          ],
          "internalType": "struct NFTManager.NFT[]",
          "name": "",
          "type": "tuple[]"
        }
      ],
      "stateMutability": "view",
      "type": "function"
    },
    {
      "inputs": [
        {
          "internalType": "address",
          "name": "storeAddress",
          "type": "address"
        }
      ],
      "name": "getStoreTransactions",
      "outputs": [
        {
          "components": [
            {
              "internalType": "address",
              "name": "nftContract",
              "type": "address"
            },
            {
              "internalType": "uint256",
              "name": "tokenId",
              "type": "uint256"
            },
            {
              "internalType": "string",
              "name": "name",
              "type": "string"
            },
            {
              "internalType": "address payable",
              "name": "storeAddress",
              "type": "address"
            },
            {
              "internalType": "address payable",
              "name": "owner",
              "type": "address"
            },
            {
              "internalType": "uint256",
              "name": "amount",
              "type": "uint256"
            },
            {
              "internalType": "string",
              "name": "store",
              "type": "string"
            },
            {
              "internalType": "string",
              "name": "invoice",
              "type": "string"
            },
            {
              "internalType": "bool",
              "name": "done",
              "type": "bool"
            },
            {
              "internalType": "uint256",
              "name": "totalAmount",
              "type": "uint256"
            },
            {
              "internalType": "uint256",
              "name": "time",
              "type": "uint256"
            }
          ],
          "internalType": "struct NFTManager.NFT[]",
          "name": "",
          "type": "tuple[]"
        }
      ],
      "stateMutability": "view",
      "type": "function"
    },
    {
      "inputs": [
        {
          "internalType": "address",
          "name": "_nftContract",
          "type": "address"
        },
        {
          "internalType": "string",
          "name": "name",
          "type": "string"
        },
        {
          "internalType": "uint256",
          "name": "_tokenId",
          "type": "uint256"
        },
        {
          "internalType": "uint256",
          "name": "_amount",
          "type": "uint256"
        },
        {
          "internalType": "address payable",
          "name": "_storeAddress",
          "type": "address"
        },
        {
          "internalType": "string",
          "name": "store",
          "type": "string"
        }
      ],
      "name": "initTransaction",
      "outputs": [],
      "stateMutability": "payable",
      "type": "function"
    },
    {
      "inputs": [
        {
          "internalType": "uint256",
          "name": "",
          "type": "uint256"
        }
      ],
      "name": "stores",
      "outputs": [
        {
          "internalType": "string",
          "name": "storeName",
          "type": "string"
        },
        {
          "internalType": "address",
          "name": "storeAddress",
          "type": "address"
        },
        {
          "internalType": "string",
          "name": "image",
          "type": "string"
        }
      ],
      "stateMutability": "view",
      "type": "function"
    },
    {
      "inputs": [
        {
          "internalType": "address",
          "name": "_nftContract",
          "type": "address"
        },
        {
          "internalType": "uint256",
          "name": "_tokenId",
          "type": "uint256"
        },
        {
          "internalType": "address payable",
          "name": "to",
          "type": "address"
        }
      ],
      "name": "transferNFT",
      "outputs": [],
      "stateMutability": "payable",
      "type": "function"
    }
  ],
  "bytecode": "0x60806040526000600155600160008190555033600260006101000a81548173ffffffffffffffffffffffffffffffffffffffff021916908373ffffffffffffffffffffffffffffffffffffffff1602179055506132e3806100616000396000f3fe6080604052600436106100865760003560e01c8063a86658ab11610059578063a86658ab14610119578063b44a8cea14610135578063c8883e4414610172578063d2f0922a1461018e578063e8a59cd8146101aa57610086565b8063535dd68b1461008b5780638252dda3146100a75780638b4bd105146100c357806397e4ca70146100ee575b600080fd5b6100a560048036038101906100a09190612248565b6101e9565b005b6100c160048036038101906100bc919061230d565b61046a565b005b3480156100cf57600080fd5b506100d86108ea565b6040516100e59190612537565b60405180910390f35b3480156100fa57600080fd5b50610103610ac3565b6040516101109190612751565b60405180910390f35b610133600480360381019061012e9190612773565b610fba565b005b34801561014157600080fd5b5061015c600480360381019061015791906127b3565b6111fb565b6040516101699190612751565b60405180910390f35b61018c600480360381019061018791906127e0565b6116f4565b005b6101a860048036038101906101a3919061286b565b611a72565b005b3480156101b657600080fd5b506101d160048036038101906101cc91906128be565b611d5e565b6040516101e093929190612944565b60405180910390f35b6101f1611ec8565b6000339050846001819055506040518061016001604052808873ffffffffffffffffffffffffffffffffffffffff1681526020018681526020018781526020018473ffffffffffffffffffffffffffffffffffffffff1681526020018273ffffffffffffffffffffffffffffffffffffffff16815260200185815260200183815260200160405180602001604052806000815250815260200160001515815260200160008152602001428152506003600087815260200190815260200160002060008201518160000160006101000a81548173ffffffffffffffffffffffffffffffffffffffff021916908373ffffffffffffffffffffffffffffffffffffffff1602179055506020820151816001015560408201518160020190816103179190612b95565b5060608201518160030160006101000a81548173ffffffffffffffffffffffffffffffffffffffff021916908373ffffffffffffffffffffffffffffffffffffffff16021790555060808201518160040160006101000a81548173ffffffffffffffffffffffffffffffffffffffff021916908373ffffffffffffffffffffffffffffffffffffffff16021790555060a0820151816005015560c08201518160060190816103c59190612b95565b5060e08201518160070190816103db9190612b95565b506101008201518160080160006101000a81548160ff021916908315150217905550610120820151816009015561014082015181600a01559050507f49114c8d400c11c0c6dd4c393d79d123d68c3c2f9690163a7dabd2eb7b202472878688868589886040516104519796959493929190612ccb565b60405180910390a150610462611f17565b505050505050565b610472611ec8565b60006003600085815260200190815260200160002090508060030160009054906101000a900473ffffffffffffffffffffffffffffffffffffffff1673ffffffffffffffffffffffffffffffffffffffff166108fc849081150290604051600060405180830381858888f193505050501580156104f3573d6000803e3d6000fd5b508060040160009054906101000a900473ffffffffffffffffffffffffffffffffffffffff1673ffffffffffffffffffffffffffffffffffffffff166108fc8483600501546105429190612d77565b9081150290604051600060405180830381858888f1935050505015801561056d573d6000803e3d6000fd5b508181600701908161057f9190612b95565b5060018160080160006101000a81548160ff0219169083151502179055508281600901819055504281600a018190555080600360008681526020019081526020016000206000820160009054906101000a900473ffffffffffffffffffffffffffffffffffffffff168160000160006101000a81548173ffffffffffffffffffffffffffffffffffffffff021916908373ffffffffffffffffffffffffffffffffffffffff16021790555060018201548160010155600282018160020190816106489190612dc1565b506003820160009054906101000a900473ffffffffffffffffffffffffffffffffffffffff168160030160006101000a81548173ffffffffffffffffffffffffffffffffffffffff021916908373ffffffffffffffffffffffffffffffffffffffff1602179055506004820160009054906101000a900473ffffffffffffffffffffffffffffffffffffffff168160040160006101000a81548173ffffffffffffffffffffffffffffffffffffffff021916908373ffffffffffffffffffffffffffffffffffffffff16021790555060058201548160050155600682018160060190816107359190612dc1565b506007820181600701908161074a9190612dc1565b506008820160009054906101000a900460ff168160080160006101000a81548160ff02191690831515021790555060098201548160090155600a82015481600a01559050507f34508b70a5a1f90d3eafb233756aa94db2f7aa878ee9d3dcd7470c7bfedeeeef8585836002018460030160009054906101000a900473ffffffffffffffffffffffffffffffffffffffff168560040160009054906101000a900473ffffffffffffffffffffffffffffffffffffffff168887600601898b60405161081c99989796959493929190612f2d565b60405180910390a18473ffffffffffffffffffffffffffffffffffffffff166323b872dd8260040160009054906101000a900473ffffffffffffffffffffffffffffffffffffffff166040518060600160405280602a8152602001613284602a91396108879061302b565b60601c876040518463ffffffff1660e01b81526004016108a993929190613092565b600060405180830381600087803b1580156108c357600080fd5b505af11580156108d7573d6000803e3d6000fd5b50505050506108e4611f17565b50505050565b60606004805480602002602001604051908101604052809291908181526020016000905b82821015610aba5783829060005260206000209060030201604051806060016040529081600082018054610941906129b8565b80601f016020809104026020016040519081016040528092919081815260200182805461096d906129b8565b80156109ba5780601f1061098f576101008083540402835291602001916109ba565b820191906000526020600020905b81548152906001019060200180831161099d57829003601f168201915b505050505081526020016001820160009054906101000a900473ffffffffffffffffffffffffffffffffffffffff1673ffffffffffffffffffffffffffffffffffffffff1673ffffffffffffffffffffffffffffffffffffffff168152602001600282018054610a29906129b8565b80601f0160208091040260200160405190810160405280929190818152602001828054610a55906129b8565b8015610aa25780601f10610a7757610100808354040283529160200191610aa2565b820191906000526020600020905b815481529060010190602001808311610a8557829003601f168201915b5050505050815250508152602001906001019061090e565b50505050905090565b6060600060015490506000805b82811015610b6f573373ffffffffffffffffffffffffffffffffffffffff1660036000600184610b0091906130c9565b815260200190815260200160002060040160009054906101000a900473ffffffffffffffffffffffffffffffffffffffff1673ffffffffffffffffffffffffffffffffffffffff1603610b5c578180610b58906130fd565b9250505b8080610b67906130fd565b915050610ad0565b5060008167ffffffffffffffff811115610b8c57610b8b6120a9565b5b604051908082528060200260200182016040528015610bc557816020015b610bb2611f21565b815260200190600190039081610baa5790505b5090506000805b84811015610faf573373ffffffffffffffffffffffffffffffffffffffff1660036000600184610bfc91906130c9565b815260200190815260200160002060040160009054906101000a900473ffffffffffffffffffffffffffffffffffffffff1673ffffffffffffffffffffffffffffffffffffffff1603610f9c5760036000600183610c5a91906130c9565b8152602001908152602001600020604051806101600160405290816000820160009054906101000a900473ffffffffffffffffffffffffffffffffffffffff1673ffffffffffffffffffffffffffffffffffffffff1673ffffffffffffffffffffffffffffffffffffffff16815260200160018201548152602001600282018054610ce4906129b8565b80601f0160208091040260200160405190810160405280929190818152602001828054610d10906129b8565b8015610d5d5780601f10610d3257610100808354040283529160200191610d5d565b820191906000526020600020905b815481529060010190602001808311610d4057829003601f168201915b505050505081526020016003820160009054906101000a900473ffffffffffffffffffffffffffffffffffffffff1673ffffffffffffffffffffffffffffffffffffffff1673ffffffffffffffffffffffffffffffffffffffff1681526020016004820160009054906101000a900473ffffffffffffffffffffffffffffffffffffffff1673ffffffffffffffffffffffffffffffffffffffff1673ffffffffffffffffffffffffffffffffffffffff16815260200160058201548152602001600682018054610e2c906129b8565b80601f0160208091040260200160405190810160405280929190818152602001828054610e58906129b8565b8015610ea55780601f10610e7a57610100808354040283529160200191610ea5565b820191906000526020600020905b815481529060010190602001808311610e8857829003601f168201915b50505050508152602001600782018054610ebe906129b8565b80601f0160208091040260200160405190810160405280929190818152602001828054610eea906129b8565b8015610f375780601f10610f0c57610100808354040283529160200191610f37565b820191906000526020600020905b815481529060010190602001808311610f1a57829003601f168201915b505050505081526020016008820160009054906101000a900460ff1615151515815260200160098201548152602001600a82015481525050838381518110610f8257610f81613145565b5b60200260200101819052508180610f98906130fd565b9250505b8080610fa7906130fd565b915050610bcc565b508194505050505090565b610fc2611ec8565b60006003600083815260200190815260200160002090508060040160009054906101000a900473ffffffffffffffffffffffffffffffffffffffff1673ffffffffffffffffffffffffffffffffffffffff166108fc82600501549081150290604051600060405180830381858888f19350505050158015611047573d6000803e3d6000fd5b508273ffffffffffffffffffffffffffffffffffffffff166323b872dd8260040160009054906101000a900473ffffffffffffffffffffffffffffffffffffffff166040518060600160405280602a8152602001613284602a91396110ab9061302b565b60601c856040518463ffffffff1660e01b81526004016110cd93929190613092565b600060405180830381600087803b1580156110e757600080fd5b505af11580156110fb573d6000803e3d6000fd5b5050505060036000838152602001908152602001600020600080820160006101000a81549073ffffffffffffffffffffffffffffffffffffffff021916905560018201600090556002820160006111529190611fbf565b6003820160006101000a81549073ffffffffffffffffffffffffffffffffffffffff02191690556004820160006101000a81549073ffffffffffffffffffffffffffffffffffffffff021916905560058201600090556006820160006111b89190611fbf565b6007820160006111c89190611fbf565b6008820160006101000a81549060ff02191690556009820160009055600a8201600090555050506111f7611f17565b5050565b6060600060015490506000805b828110156112a7578473ffffffffffffffffffffffffffffffffffffffff166003600060018461123891906130c9565b815260200190815260200160002060030160009054906101000a900473ffffffffffffffffffffffffffffffffffffffff1673ffffffffffffffffffffffffffffffffffffffff1603611294578180611290906130fd565b9250505b808061129f906130fd565b915050611208565b5060008167ffffffffffffffff8111156112c4576112c36120a9565b5b6040519080825280602002602001820160405280156112fd57816020015b6112ea611f21565b8152602001906001900390816112e25790505b5090506000805b848110156116e7578673ffffffffffffffffffffffffffffffffffffffff166003600060018461133491906130c9565b815260200190815260200160002060030160009054906101000a900473ffffffffffffffffffffffffffffffffffffffff1673ffffffffffffffffffffffffffffffffffffffff16036116d4576003600060018361139291906130c9565b8152602001908152602001600020604051806101600160405290816000820160009054906101000a900473ffffffffffffffffffffffffffffffffffffffff1673ffffffffffffffffffffffffffffffffffffffff1673ffffffffffffffffffffffffffffffffffffffff1681526020016001820154815260200160028201805461141c906129b8565b80601f0160208091040260200160405190810160405280929190818152602001828054611448906129b8565b80156114955780601f1061146a57610100808354040283529160200191611495565b820191906000526020600020905b81548152906001019060200180831161147857829003601f168201915b505050505081526020016003820160009054906101000a900473ffffffffffffffffffffffffffffffffffffffff1673ffffffffffffffffffffffffffffffffffffffff1673ffffffffffffffffffffffffffffffffffffffff1681526020016004820160009054906101000a900473ffffffffffffffffffffffffffffffffffffffff1673ffffffffffffffffffffffffffffffffffffffff1673ffffffffffffffffffffffffffffffffffffffff16815260200160058201548152602001600682018054611564906129b8565b80601f0160208091040260200160405190810160405280929190818152602001828054611590906129b8565b80156115dd5780601f106115b2576101008083540402835291602001916115dd565b820191906000526020600020905b8154815290600101906020018083116115c057829003601f168201915b505050505081526020016007820180546115f6906129b8565b80601f0160208091040260200160405190810160405280929190818152602001828054611622906129b8565b801561166f5780601f106116445761010080835404028352916020019161166f565b820191906000526020600020905b81548152906001019060200180831161165257829003601f168201915b505050505081526020016008820160009054906101000a900460ff1615151515815260200160098201548152602001600a820154815250508383815181106116ba576116b9613145565b5b602002602001018190525081806116d0906130fd565b9250505b80806116df906130fd565b915050611304565b5081945050505050919050565b60006001905060006004805480602002602001604051908101604052809291908181526020016000905b828210156118ca5783829060005260206000209060030201604051806060016040529081600082018054611751906129b8565b80601f016020809104026020016040519081016040528092919081815260200182805461177d906129b8565b80156117ca5780601f1061179f576101008083540402835291602001916117ca565b820191906000526020600020905b8154815290600101906020018083116117ad57829003601f168201915b505050505081526020016001820160009054906101000a900473ffffffffffffffffffffffffffffffffffffffff1673ffffffffffffffffffffffffffffffffffffffff1673ffffffffffffffffffffffffffffffffffffffff168152602001600282018054611839906129b8565b80601f0160208091040260200160405190810160405280929190818152602001828054611865906129b8565b80156118b25780601f10611887576101008083540402835291602001916118b2565b820191906000526020600020905b81548152906001019060200180831161189557829003601f168201915b5050505050815250508152602001906001019061171e565b50505050905060005b60048054905081101561194d578181815181106118f3576118f2613145565b5b60200260200101516020015173ffffffffffffffffffffffffffffffffffffffff168573ffffffffffffffffffffffffffffffffffffffff160361193a576000925061194d565b8080611945906130fd565b9150506118d3565b508115611a3057600060405180606001604052808781526020018673ffffffffffffffffffffffffffffffffffffffff168152602001858152509050600481908060018154018082558091505060019003906000526020600020906003020160009091909190915060008201518160000190816119ca9190612b95565b5060208201518160010160006101000a81548173ffffffffffffffffffffffffffffffffffffffff021916908373ffffffffffffffffffffffffffffffffffffffff1602179055506040820151816002019081611a279190612b95565b50505050611a6b565b6040517f08c379a0000000000000000000000000000000000000000000000000000000008152600401611a62906131c0565b60405180910390fd5b5050505050565b611a7a611ec8565b60006003600084815260200190815260200160002090508373ffffffffffffffffffffffffffffffffffffffff166323b872dd8260040160009054906101000a900473ffffffffffffffffffffffffffffffffffffffff1684866040518463ffffffff1660e01b8152600401611af2939291906131e0565b600060405180830381600087803b158015611b0c57600080fd5b505af1158015611b20573d6000803e3d6000fd5b505050504281600a0181905550818160040160006101000a81548173ffffffffffffffffffffffffffffffffffffffff021916908373ffffffffffffffffffffffffffffffffffffffff16021790555080600360008581526020019081526020016000206000820160009054906101000a900473ffffffffffffffffffffffffffffffffffffffff168160000160006101000a81548173ffffffffffffffffffffffffffffffffffffffff021916908373ffffffffffffffffffffffffffffffffffffffff1602179055506001820154816001015560028201816002019081611c099190612dc1565b506003820160009054906101000a900473ffffffffffffffffffffffffffffffffffffffff168160030160006101000a81548173ffffffffffffffffffffffffffffffffffffffff021916908373ffffffffffffffffffffffffffffffffffffffff1602179055506004820160009054906101000a900473ffffffffffffffffffffffffffffffffffffffff168160040160006101000a81548173ffffffffffffffffffffffffffffffffffffffff021916908373ffffffffffffffffffffffffffffffffffffffff1602179055506005820154816005015560068201816006019081611cf69190612dc1565b5060078201816007019081611d0b9190612dc1565b506008820160009054906101000a900460ff168160080160006101000a81548160ff02191690831515021790555060098201548160090155600a82015481600a015590505050611d59611f17565b505050565b60048181548110611d6e57600080fd5b9060005260206000209060030201600091509050806000018054611d91906129b8565b80601f0160208091040260200160405190810160405280929190818152602001828054611dbd906129b8565b8015611e0a5780601f10611ddf57610100808354040283529160200191611e0a565b820191906000526020600020905b815481529060010190602001808311611ded57829003601f168201915b5050505050908060010160009054906101000a900473ffffffffffffffffffffffffffffffffffffffff1690806002018054611e45906129b8565b80601f0160208091040260200160405190810160405280929190818152602001828054611e71906129b8565b8015611ebe5780601f10611e9357610100808354040283529160200191611ebe565b820191906000526020600020905b815481529060010190602001808311611ea157829003601f168201915b5050505050905083565b600260005403611f0d576040517f08c379a0000000000000000000000000000000000000000000000000000000008152600401611f0490613263565b60405180910390fd5b6002600081905550565b6001600081905550565b604051806101600160405280600073ffffffffffffffffffffffffffffffffffffffff1681526020016000815260200160608152602001600073ffffffffffffffffffffffffffffffffffffffff168152602001600073ffffffffffffffffffffffffffffffffffffffff16815260200160008152602001606081526020016060815260200160001515815260200160008152602001600081525090565b508054611fcb906129b8565b6000825580601f10611fdd5750611ffc565b601f016020900490600052602060002090810190611ffb9190611fff565b5b50565b5b80821115612018576000816000905550600101612000565b5090565b6000604051905090565b600080fd5b600080fd5b600073ffffffffffffffffffffffffffffffffffffffff82169050919050565b600061205b82612030565b9050919050565b61206b81612050565b811461207657600080fd5b50565b60008135905061208881612062565b92915050565b600080fd5b600080fd5b6000601f19601f8301169050919050565b7f4e487b7100000000000000000000000000000000000000000000000000000000600052604160045260246000fd5b6120e182612098565b810181811067ffffffffffffffff82111715612100576120ff6120a9565b5b80604052505050565b600061211361201c565b905061211f82826120d8565b919050565b600067ffffffffffffffff82111561213f5761213e6120a9565b5b61214882612098565b9050602081019050919050565b82818337600083830152505050565b600061217761217284612124565b612109565b90508281526020810184848401111561219357612192612093565b5b61219e848285612155565b509392505050565b600082601f8301126121bb576121ba61208e565b5b81356121cb848260208601612164565b91505092915050565b6000819050919050565b6121e7816121d4565b81146121f257600080fd5b50565b600081359050612204816121de565b92915050565b600061221582612030565b9050919050565b6122258161220a565b811461223057600080fd5b50565b6000813590506122428161221c565b92915050565b60008060008060008060c0878903121561226557612264612026565b5b600061227389828a01612079565b965050602087013567ffffffffffffffff8111156122945761229361202b565b5b6122a089828a016121a6565b95505060406122b189828a016121f5565b94505060606122c289828a016121f5565b93505060806122d389828a01612233565b92505060a087013567ffffffffffffffff8111156122f4576122f361202b565b5b61230089828a016121a6565b9150509295509295509295565b6000806000806080858703121561232757612326612026565b5b600061233587828801612079565b9450506020612346878288016121f5565b9350506040612357878288016121f5565b925050606085013567ffffffffffffffff8111156123785761237761202b565b5b612384878288016121a6565b91505092959194509250565b600081519050919050565b600082825260208201905092915050565b6000819050602082019050919050565b600081519050919050565b600082825260208201905092915050565b60005b838110156123f65780820151818401526020810190506123db565b60008484015250505050565b600061240d826123bc565b61241781856123c7565b93506124278185602086016123d8565b61243081612098565b840191505092915050565b61244481612050565b82525050565b600060608301600083015184820360008601526124678282612402565b915050602083015161247c602086018261243b565b50604083015184820360408601526124948282612402565b9150508091505092915050565b60006124ad838361244a565b905092915050565b6000602082019050919050565b60006124cd82612390565b6124d7818561239b565b9350836020820285016124e9856123ac565b8060005b85811015612525578484038952815161250685826124a1565b9450612511836124b5565b925060208a019950506001810190506124ed565b50829750879550505050505092915050565b6000602082019050818103600083015261255181846124c2565b905092915050565b600081519050919050565b600082825260208201905092915050565b6000819050602082019050919050565b61258e816121d4565b82525050565b61259d8161220a565b82525050565b60008115159050919050565b6125b8816125a3565b82525050565b6000610160830160008301516125d7600086018261243b565b5060208301516125ea6020860182612585565b50604083015184820360408601526126028282612402565b91505060608301516126176060860182612594565b50608083015161262a6080860182612594565b5060a083015161263d60a0860182612585565b5060c083015184820360c08601526126558282612402565b91505060e083015184820360e086015261266f8282612402565b9150506101008301516126866101008601826125af565b5061012083015161269b610120860182612585565b506101408301516126b0610140860182612585565b508091505092915050565b60006126c783836125be565b905092915050565b6000602082019050919050565b60006126e782612559565b6126f18185612564565b93508360208202850161270385612575565b8060005b8581101561273f578484038952815161272085826126bb565b945061272b836126cf565b925060208a01995050600181019050612707565b50829750879550505050505092915050565b6000602082019050818103600083015261276b81846126dc565b905092915050565b6000806040838503121561278a57612789612026565b5b600061279885828601612079565b92505060206127a9858286016121f5565b9150509250929050565b6000602082840312156127c9576127c8612026565b5b60006127d784828501612079565b91505092915050565b6000806000606084860312156127f9576127f8612026565b5b600084013567ffffffffffffffff8111156128175761281661202b565b5b612823868287016121a6565b935050602061283486828701612079565b925050604084013567ffffffffffffffff8111156128555761285461202b565b5b612861868287016121a6565b9150509250925092565b60008060006060848603121561288457612883612026565b5b600061289286828701612079565b93505060206128a3868287016121f5565b92505060406128b486828701612233565b9150509250925092565b6000602082840312156128d4576128d3612026565b5b60006128e2848285016121f5565b91505092915050565b600082825260208201905092915050565b6000612907826123bc565b61291181856128eb565b93506129218185602086016123d8565b61292a81612098565b840191505092915050565b61293e81612050565b82525050565b6000606082019050818103600083015261295e81866128fc565b905061296d6020830185612935565b818103604083015261297f81846128fc565b9050949350505050565b7f4e487b7100000000000000000000000000000000000000000000000000000000600052602260045260246000fd5b600060028204905060018216806129d057607f821691505b6020821081036129e3576129e2612989565b5b50919050565b60008190508160005260206000209050919050565b60006020601f8301049050919050565b600082821b905092915050565b600060088302612a4b7fffffffffffffffffffffffffffffffffffffffffffffffffffffffffffffffff82612a0e565b612a558683612a0e565b95508019841693508086168417925050509392505050565b6000819050919050565b6000612a92612a8d612a88846121d4565b612a6d565b6121d4565b9050919050565b6000819050919050565b612aac83612a77565b612ac0612ab882612a99565b848454612a1b565b825550505050565b600090565b612ad5612ac8565b612ae0818484612aa3565b505050565b5b81811015612b0457612af9600082612acd565b600181019050612ae6565b5050565b601f821115612b4957612b1a816129e9565b612b23846129fe565b81016020851015612b32578190505b612b46612b3e856129fe565b830182612ae5565b50505b505050565b600082821c905092915050565b6000612b6c60001984600802612b4e565b1980831691505092915050565b6000612b858383612b5b565b9150826002028217905092915050565b612b9e826123bc565b67ffffffffffffffff811115612bb757612bb66120a9565b5b612bc182546129b8565b612bcc828285612b08565b600060209050601f831160018114612bff5760008415612bed578287015190505b612bf78582612b79565b865550612c5f565b601f198416612c0d866129e9565b60005b82811015612c3557848901518255600182019150602085019450602081019050612c10565b86831015612c525784890151612c4e601f891682612b5b565b8355505b6001600288020188555050505b505050505050565b612c70816121d4565b82525050565b6000612c91612c8c612c8784612030565b612a6d565b612030565b9050919050565b6000612ca382612c76565b9050919050565b6000612cb582612c98565b9050919050565b612cc581612caa565b82525050565b600060e082019050612ce0600083018a612935565b612ced6020830189612c67565b8181036040830152612cff81886128fc565b9050612d0e6060830187612cbc565b612d1b6080830186612cbc565b612d2860a0830185612c67565b81810360c0830152612d3a81846128fc565b905098975050505050505050565b7f4e487b7100000000000000000000000000000000000000000000000000000000600052601160045260246000fd5b6000612d82826121d4565b9150612d8d836121d4565b9250828203905081811115612da557612da4612d48565b5b92915050565b600081549050612dba816129b8565b9050919050565b818103612dcf575050612ea7565b612dd882612dab565b67ffffffffffffffff811115612df157612df06120a9565b5b612dfb82546129b8565b612e06828285612b08565b6000601f831160018114612e355760008415612e23578287015490505b612e2d8582612b79565b865550612ea0565b601f198416612e43876129e9565b9650612e4e866129e9565b60005b82811015612e7657848901548255600182019150600185019450602081019050612e51565b86831015612e935784890154612e8f601f891682612b5b565b8355505b6001600288020188555050505b5050505050505b565b60008154612eb6816129b8565b612ec081866128eb565b94506001821660008114612edb5760018114612ef157612f24565b60ff198316865281151560200286019350612f24565b612efa856129e9565b60005b83811015612f1c57815481890152600182019150602081019050612efd565b808801955050505b50505092915050565b600061012082019050612f43600083018c612935565b612f50602083018b612c67565b8181036040830152612f62818a612ea9565b9050612f716060830189612cbc565b612f7e6080830188612cbc565b612f8b60a0830187612c67565b81810360c0830152612f9d8186612ea9565b905081810360e0830152612fb181856128fc565b9050612fc1610100830184612c67565b9a9950505050505050505050565b600081519050919050565b6000819050602082019050919050565b60007fffffffffffffffffffffffffffffffffffffffff00000000000000000000000082169050919050565b60006130228251612fea565b80915050919050565b600061303682612fcf565b8261304084612fda565b905061304b81613016565b9250601482101561308b576130867fffffffffffffffffffffffffffffffffffffffff00000000000000000000000083601403600802612a0e565b831692505b5050919050565b60006060820190506130a76000830186612cbc565b6130b46020830185612935565b6130c16040830184612c67565b949350505050565b60006130d4826121d4565b91506130df836121d4565b92508282019050808211156130f7576130f6612d48565b5b92915050565b6000613108826121d4565b91507fffffffffffffffffffffffffffffffffffffffffffffffffffffffffffffffff820361313a57613139612d48565b5b600182019050919050565b7f4e487b7100000000000000000000000000000000000000000000000000000000600052603260045260246000fd5b7f53746f726520616c726561647920657869737473000000000000000000000000600082015250565b60006131aa6014836128eb565b91506131b582613174565b602082019050919050565b600060208201905081810360008301526131d98161319d565b9050919050565b60006060820190506131f56000830186612cbc565b6132026020830185612cbc565b61320f6040830184612c67565b949350505050565b7f5265656e7472616e637947756172643a207265656e7472616e742063616c6c00600082015250565b600061324d601f836128eb565b915061325882613217565b602082019050919050565b6000602082019050818103600083015261327c81613240565b905091905056fe307830303030303030303030303030303030303030303030303030303030303030303030303030303030a2646970667358221220a5eb608c4d471f6b960e11fe1ba9900b208514c7bb3f2e1428769b920fe9634064736f6c63430008130033",
  "linkReferences": {},
  "deployedLinkReferences": {}
}