{"contracts/NFTManager.sol":{"NFTManager":{"abi":[{"inputs":[],"stateMutability":"payable","type":"constructor"},{"anonymous":false,"inputs":[{"indexed":false,"internalType":"address","name":"nftContract","type":"address"},{"indexed":false,"internalType":"uint256","name":"tokenId","type":"uint256"},{"indexed":false,"internalType":"string","name":"name","type":"string"},{"indexed":false,"internalType":"address","name":"storeAddress","type":"address"},{"indexed":false,"internalType":"address","name":"owner","type":"address"},{"indexed":false,"internalType":"uint256","name":"amount","type":"uint256"},{"indexed":false,"internalType":"string","name":"store","type":"string"}],"name":"NFTListed","type":"event"},{"anonymous":false,"inputs":[{"indexed":false,"internalType":"address","name":"nftContract","type":"address"},{"indexed":false,"internalType":"uint256","name":"tokenId","type":"uint256"},{"indexed":false,"internalType":"string","name":"name","type":"string"},{"indexed":false,"internalType":"address","name":"storeAddress","type":"address"},{"indexed":false,"internalType":"address","name":"owner","type":"address"},{"indexed":false,"internalType":"uint256","name":"amount","type":"uint256"},{"indexed":false,"internalType":"string","name":"store","type":"string"},{"indexed":false,"internalType":"string","name":"invoice","type":"string"},{"indexed":false,"internalType":"uint256","name":"totalAmount","type":"uint256"}],"name":"NFTSold","type":"event"},{"inputs":[{"internalType":"string","name":"store","type":"string"},{"internalType":"address","name":"storeAddress","type":"address"},{"internalType":"string","name":"image","type":"string"}],"name":"addStore","outputs":[],"stateMutability":"payable","type":"function"},{"inputs":[{"internalType":"address","name":"_nftContract","type":"address"},{"internalType":"uint256","name":"_tokenId","type":"uint256"},{"internalType":"uint256","name":"_amount","type":"uint256"},{"internalType":"string","name":"invoice","type":"string"}],"name":"approveTransaction","outputs":[],"stateMutability":"payable","type":"function"},{"inputs":[{"internalType":"address","name":"_nftContract","type":"address"},{"internalType":"uint256","name":"_tokenId","type":"uint256"}],"name":"cancelTransaction","outputs":[],"stateMutability":"payable","type":"function"},{"inputs":[],"name":"getAllStores","outputs":[{"components":[{"internalType":"string","name":"storeName","type":"string"},{"internalType":"address","name":"storeAddress","type":"address"},{"internalType":"string","name":"image","type":"string"}],"internalType":"struct NFTManager.storeDetails[]","name":"","type":"tuple[]"}],"stateMutability":"view","type":"function"},{"inputs":[],"name":"getMyTransactions","outputs":[{"components":[{"internalType":"address","name":"nftContract","type":"address"},{"internalType":"uint256","name":"tokenId","type":"uint256"},{"internalType":"string","name":"name","type":"string"},{"internalType":"address payable","name":"storeAddress","type":"address"},{"internalType":"address payable","name":"owner","type":"address"},{"internalType":"uint256","name":"amount","type":"uint256"},{"internalType":"string","name":"store","type":"string"},{"internalType":"string","name":"invoice","type":"string"},{"internalType":"bool","name":"done","type":"bool"},{"internalType":"uint256","name":"totalAmount","type":"uint256"},{"internalType":"uint256","name":"time","type":"uint256"}],"internalType":"struct NFTManager.NFT[]","name":"","type":"tuple[]"}],"stateMutability":"view","type":"function"},{"inputs":[{"internalType":"address","name":"storeAddress","type":"address"}],"name":"getStoreTransactions","outputs":[{"components":[{"internalType":"address","name":"nftContract","type":"address"},{"internalType":"uint256","name":"tokenId","type":"uint256"},{"internalType":"string","name":"name","type":"string"},{"internalType":"address payable","name":"storeAddress","type":"address"},{"internalType":"address payable","name":"owner","type":"address"},{"internalType":"uint256","name":"amount","type":"uint256"},{"internalType":"string","name":"store","type":"string"},{"internalType":"string","name":"invoice","type":"string"},{"internalType":"bool","name":"done","type":"bool"},{"internalType":"uint256","name":"totalAmount","type":"uint256"},{"internalType":"uint256","name":"time","type":"uint256"}],"internalType":"struct NFTManager.NFT[]","name":"","type":"tuple[]"}],"stateMutability":"view","type":"function"},{"inputs":[{"internalType":"address","name":"_nftContract","type":"address"},{"internalType":"string","name":"name","type":"string"},{"internalType":"uint256","name":"_tokenId","type":"uint256"},{"internalType":"uint256","name":"_amount","type":"uint256"},{"internalType":"address payable","name":"_storeAddress","type":"address"},{"internalType":"string","name":"store","type":"string"}],"name":"initTransaction","outputs":[],"stateMutability":"payable","type":"function"},{"inputs":[{"internalType":"uint256","name":"","type":"uint256"}],"name":"stores","outputs":[{"internalType":"string","name":"storeName","type":"string"},{"internalType":"address","name":"storeAddress","type":"address"},{"internalType":"string","name":"image","type":"string"}],"stateMutability":"view","type":"function"},{"inputs":[{"internalType":"address","name":"_nftContract","type":"address"},{"internalType":"uint256","name":"_tokenId","type":"uint256"},{"internalType":"address payable","name":"to","type":"address"}],"name":"transferNFT","outputs":[],"stateMutability":"payable","type":"function"}],"evm":{"bytecode":{"linkReferences":{},"object":"6080604052600160008190555033600360006101000a81548173ffffffffffffffffffffffffffffffffffffffff021916908373ffffffffffffffffffffffffffffffffffffffff1602179055506136be8061005c6000396000f3fe6080604052600436106100865760003560e01c8063a86658ab11610059578063a86658ab14610119578063b44a8cea14610135578063c8883e4414610172578063d2f0922a1461018e578063e8a59cd8146101aa57610086565b8063535dd68b1461008b5780638252dda3146100a75780638b4bd105146100c357806397e4ca70146100ee575b600080fd5b6100a560048036038101906100a09190612329565b6101e9565b005b6100c160048036038101906100bc91906123ee565b6104b0565b005b3480156100cf57600080fd5b506100d8610a55565b6040516100e59190612618565b60405180910390f35b3480156100fa57600080fd5b50610103610c2e565b6040516101109190612832565b60405180910390f35b610133600480360381019061012e9190612854565b61112c565b005b34801561014157600080fd5b5061015c60048036038101906101579190612894565b6113ff565b6040516101699190612832565b60405180910390f35b61018c600480360381019061018791906128c1565b6118ff565b005b6101a860048036038101906101a3919061294c565b611c7d565b005b3480156101b657600080fd5b506101d160048036038101906101cc919061299f565b611e1b565b6040516101e093929190612a25565b60405180910390f35b6101f1611f85565b60008311610234576040517f08c379a000000000000000000000000000000000000000000000000000000000815260040161022b90612ab6565b60405180910390fd5b60003390506102436002611fd4565b6040518061016001604052808873ffffffffffffffffffffffffffffffffffffffff1681526020018681526020018781526020018473ffffffffffffffffffffffffffffffffffffffff1681526020018273ffffffffffffffffffffffffffffffffffffffff16815260200185815260200183815260200160405180602001604052806000815250815260200160001515815260200160008152602001428152506004600087815260200190815260200160002060008201518160000160006101000a81548173ffffffffffffffffffffffffffffffffffffffff021916908373ffffffffffffffffffffffffffffffffffffffff16021790555060208201518160010155604082015181600201908161035d9190612ce2565b5060608201518160030160006101000a81548173ffffffffffffffffffffffffffffffffffffffff021916908373ffffffffffffffffffffffffffffffffffffffff16021790555060808201518160040160006101000a81548173ffffffffffffffffffffffffffffffffffffffff021916908373ffffffffffffffffffffffffffffffffffffffff16021790555060a0820151816005015560c082015181600601908161040b9190612ce2565b5060e08201518160070190816104219190612ce2565b506101008201518160080160006101000a81548160ff021916908315150217905550610120820151816009015561014082015181600a01559050507f49114c8d400c11c0c6dd4c393d79d123d68c3c2f9690163a7dabd2eb7b202472878688868589886040516104979796959493929190612e18565b60405180910390a1506104a8611fea565b505050505050565b6104b8611f85565b60006004600085815260200190815260200160002090508060030160009054906101000a900473ffffffffffffffffffffffffffffffffffffffff1673ffffffffffffffffffffffffffffffffffffffff163373ffffffffffffffffffffffffffffffffffffffff1614610561576040517f08c379a000000000000000000000000000000000000000000000000000000000815260040161055890612f07565b60405180910390fd5b600083116105a4576040517f08c379a000000000000000000000000000000000000000000000000000000000815260040161059b90612f73565b60405180910390fd5b80600501548311156105eb576040517f08c379a00000000000000000000000000000000000000000000000000000000081526004016105e290613005565b60405180910390fd5b6000816005015490508160030160009054906101000a900473ffffffffffffffffffffffffffffffffffffffff1673ffffffffffffffffffffffffffffffffffffffff166108fc859081150290604051600060405180830381858888f1935050505015801561065e573d6000803e3d6000fd5b50838161066b9190613054565b90508160040160009054906101000a900473ffffffffffffffffffffffffffffffffffffffff1673ffffffffffffffffffffffffffffffffffffffff166108fc829081150290604051600060405180830381858888f193505050501580156106d7573d6000803e3d6000fd5b50828260070190816106e99190612ce2565b5060018260080160006101000a81548160ff0219169083151502179055508382600901819055504282600a018190555081600460008781526020019081526020016000206000820160009054906101000a900473ffffffffffffffffffffffffffffffffffffffff168160000160006101000a81548173ffffffffffffffffffffffffffffffffffffffff021916908373ffffffffffffffffffffffffffffffffffffffff16021790555060018201548160010155600282018160020190816107b2919061309e565b506003820160009054906101000a900473ffffffffffffffffffffffffffffffffffffffff168160030160006101000a81548173ffffffffffffffffffffffffffffffffffffffff021916908373ffffffffffffffffffffffffffffffffffffffff1602179055506004820160009054906101000a900473ffffffffffffffffffffffffffffffffffffffff168160040160006101000a81548173ffffffffffffffffffffffffffffffffffffffff021916908373ffffffffffffffffffffffffffffffffffffffff160217905550600582015481600501556006820181600601908161089f919061309e565b50600782018160070190816108b4919061309e565b506008820160009054906101000a900460ff168160080160006101000a81548160ff02191690831515021790555060098201548160090155600a82015481600a01559050507f34508b70a5a1f90d3eafb233756aa94db2f7aa878ee9d3dcd7470c7bfedeeeef8686846002018560030160009054906101000a900473ffffffffffffffffffffffffffffffffffffffff168660040160009054906101000a900473ffffffffffffffffffffffffffffffffffffffff1689886006018a8c6040516109869998979695949392919061320a565b60405180910390a18573ffffffffffffffffffffffffffffffffffffffff166323b872dd8360040160009054906101000a900473ffffffffffffffffffffffffffffffffffffffff166040518060600160405280602a815260200161365f602a91396109f190613308565b60601c886040518463ffffffff1660e01b8152600401610a139392919061336f565b600060405180830381600087803b158015610a2d57600080fd5b505af1158015610a41573d6000803e3d6000fd5b505050505050610a4f611fea565b50505050565b60606005805480602002602001604051908101604052809291908181526020016000905b82821015610c255783829060005260206000209060030201604051806060016040529081600082018054610aac90612b05565b80601f0160208091040260200160405190810160405280929190818152602001828054610ad890612b05565b8015610b255780601f10610afa57610100808354040283529160200191610b25565b820191906000526020600020905b815481529060010190602001808311610b0857829003601f168201915b505050505081526020016001820160009054906101000a900473ffffffffffffffffffffffffffffffffffffffff1673ffffffffffffffffffffffffffffffffffffffff1673ffffffffffffffffffffffffffffffffffffffff168152602001600282018054610b9490612b05565b80601f0160208091040260200160405190810160405280929190818152602001828054610bc090612b05565b8015610c0d5780601f10610be257610100808354040283529160200191610c0d565b820191906000526020600020905b815481529060010190602001808311610bf057829003601f168201915b50505050508152505081526020019060010190610a79565b50505050905090565b60606000610c3c6002611ff4565b90506000805b82811015610ce1573373ffffffffffffffffffffffffffffffffffffffff1660046000600184610c7291906133a6565b815260200190815260200160002060040160009054906101000a900473ffffffffffffffffffffffffffffffffffffffff1673ffffffffffffffffffffffffffffffffffffffff1603610cce578180610cca906133da565b9250505b8080610cd9906133da565b915050610c42565b5060008167ffffffffffffffff811115610cfe57610cfd61218a565b5b604051908082528060200260200182016040528015610d3757816020015b610d24612002565b815260200190600190039081610d1c5790505b5090506000805b84811015611121573373ffffffffffffffffffffffffffffffffffffffff1660046000600184610d6e91906133a6565b815260200190815260200160002060040160009054906101000a900473ffffffffffffffffffffffffffffffffffffffff1673ffffffffffffffffffffffffffffffffffffffff160361110e5760046000600183610dcc91906133a6565b8152602001908152602001600020604051806101600160405290816000820160009054906101000a900473ffffffffffffffffffffffffffffffffffffffff1673ffffffffffffffffffffffffffffffffffffffff1673ffffffffffffffffffffffffffffffffffffffff16815260200160018201548152602001600282018054610e5690612b05565b80601f0160208091040260200160405190810160405280929190818152602001828054610e8290612b05565b8015610ecf5780601f10610ea457610100808354040283529160200191610ecf565b820191906000526020600020905b815481529060010190602001808311610eb257829003601f168201915b505050505081526020016003820160009054906101000a900473ffffffffffffffffffffffffffffffffffffffff1673ffffffffffffffffffffffffffffffffffffffff1673ffffffffffffffffffffffffffffffffffffffff1681526020016004820160009054906101000a900473ffffffffffffffffffffffffffffffffffffffff1673ffffffffffffffffffffffffffffffffffffffff1673ffffffffffffffffffffffffffffffffffffffff16815260200160058201548152602001600682018054610f9e90612b05565b80601f0160208091040260200160405190810160405280929190818152602001828054610fca90612b05565b80156110175780601f10610fec57610100808354040283529160200191611017565b820191906000526020600020905b815481529060010190602001808311610ffa57829003601f168201915b5050505050815260200160078201805461103090612b05565b80601f016020809104026020016040519081016040528092919081815260200182805461105c90612b05565b80156110a95780601f1061107e576101008083540402835291602001916110a9565b820191906000526020600020905b81548152906001019060200180831161108c57829003601f168201915b505050505081526020016008820160009054906101000a900460ff1615151515815260200160098201548152602001600a820154815250508383815181106110f4576110f3613422565b5b6020026020010181905250818061110a906133da565b9250505b8080611119906133da565b915050610d3e565b508194505050505090565b611134611f85565b60006004600083815260200190815260200160002090508060040160009054906101000a900473ffffffffffffffffffffffffffffffffffffffff1673ffffffffffffffffffffffffffffffffffffffff163373ffffffffffffffffffffffffffffffffffffffff16146111dd576040517f08c379a00000000000000000000000000000000000000000000000000000000081526004016111d4906134c3565b60405180910390fd5b8060040160009054906101000a900473ffffffffffffffffffffffffffffffffffffffff1673ffffffffffffffffffffffffffffffffffffffff166108fc82600501549081150290604051600060405180830381858888f1935050505015801561124b573d6000803e3d6000fd5b508273ffffffffffffffffffffffffffffffffffffffff166323b872dd8260040160009054906101000a900473ffffffffffffffffffffffffffffffffffffffff166040518060600160405280602a815260200161365f602a91396112af90613308565b60601c856040518463ffffffff1660e01b81526004016112d19392919061336f565b600060405180830381600087803b1580156112eb57600080fd5b505af11580156112ff573d6000803e3d6000fd5b5050505060046000838152602001908152602001600020600080820160006101000a81549073ffffffffffffffffffffffffffffffffffffffff0219169055600182016000905560028201600061135691906120a0565b6003820160006101000a81549073ffffffffffffffffffffffffffffffffffffffff02191690556004820160006101000a81549073ffffffffffffffffffffffffffffffffffffffff021916905560058201600090556006820160006113bc91906120a0565b6007820160006113cc91906120a0565b6008820160006101000a81549060ff02191690556009820160009055600a8201600090555050506113fb611fea565b5050565b6060600061140d6002611ff4565b90506000805b828110156114b2578473ffffffffffffffffffffffffffffffffffffffff166004600060018461144391906133a6565b815260200190815260200160002060030160009054906101000a900473ffffffffffffffffffffffffffffffffffffffff1673ffffffffffffffffffffffffffffffffffffffff160361149f57818061149b906133da565b9250505b80806114aa906133da565b915050611413565b5060008167ffffffffffffffff8111156114cf576114ce61218a565b5b60405190808252806020026020018201604052801561150857816020015b6114f5612002565b8152602001906001900390816114ed5790505b5090506000805b848110156118f2578673ffffffffffffffffffffffffffffffffffffffff166004600060018461153f91906133a6565b815260200190815260200160002060030160009054906101000a900473ffffffffffffffffffffffffffffffffffffffff1673ffffffffffffffffffffffffffffffffffffffff16036118df576004600060018361159d91906133a6565b8152602001908152602001600020604051806101600160405290816000820160009054906101000a900473ffffffffffffffffffffffffffffffffffffffff1673ffffffffffffffffffffffffffffffffffffffff1673ffffffffffffffffffffffffffffffffffffffff1681526020016001820154815260200160028201805461162790612b05565b80601f016020809104026020016040519081016040528092919081815260200182805461165390612b05565b80156116a05780601f10611675576101008083540402835291602001916116a0565b820191906000526020600020905b81548152906001019060200180831161168357829003601f168201915b505050505081526020016003820160009054906101000a900473ffffffffffffffffffffffffffffffffffffffff1673ffffffffffffffffffffffffffffffffffffffff1673ffffffffffffffffffffffffffffffffffffffff1681526020016004820160009054906101000a900473ffffffffffffffffffffffffffffffffffffffff1673ffffffffffffffffffffffffffffffffffffffff1673ffffffffffffffffffffffffffffffffffffffff1681526020016005820154815260200160068201805461176f90612b05565b80601f016020809104026020016040519081016040528092919081815260200182805461179b90612b05565b80156117e85780601f106117bd576101008083540402835291602001916117e8565b820191906000526020600020905b8154815290600101906020018083116117cb57829003601f168201915b5050505050815260200160078201805461180190612b05565b80601f016020809104026020016040519081016040528092919081815260200182805461182d90612b05565b801561187a5780601f1061184f5761010080835404028352916020019161187a565b820191906000526020600020905b81548152906001019060200180831161185d57829003601f168201915b505050505081526020016008820160009054906101000a900460ff1615151515815260200160098201548152602001600a820154815250508383815181106118c5576118c4613422565b5b602002602001018190525081806118db906133da565b9250505b80806118ea906133da565b91505061150f565b5081945050505050919050565b60006001905060006005805480602002602001604051908101604052809291908181526020016000905b82821015611ad5578382906000526020600020906003020160405180606001604052908160008201805461195c90612b05565b80601f016020809104026020016040519081016040528092919081815260200182805461198890612b05565b80156119d55780601f106119aa576101008083540402835291602001916119d5565b820191906000526020600020905b8154815290600101906020018083116119b857829003601f168201915b505050505081526020016001820160009054906101000a900473ffffffffffffffffffffffffffffffffffffffff1673ffffffffffffffffffffffffffffffffffffffff1673ffffffffffffffffffffffffffffffffffffffff168152602001600282018054611a4490612b05565b80601f0160208091040260200160405190810160405280929190818152602001828054611a7090612b05565b8015611abd5780601f10611a9257610100808354040283529160200191611abd565b820191906000526020600020905b815481529060010190602001808311611aa057829003601f168201915b50505050508152505081526020019060010190611929565b50505050905060005b600580549050811015611b5857818181518110611afe57611afd613422565b5b60200260200101516020015173ffffffffffffffffffffffffffffffffffffffff168573ffffffffffffffffffffffffffffffffffffffff1603611b455760009250611b58565b8080611b50906133da565b915050611ade565b508115611c3b57600060405180606001604052808781526020018673ffffffffffffffffffffffffffffffffffffffff16815260200185815250905060058190806001815401808255809150506001900390600052602060002090600302016000909190919091506000820151816000019081611bd59190612ce2565b5060208201518160010160006101000a81548173ffffffffffffffffffffffffffffffffffffffff021916908373ffffffffffffffffffffffffffffffffffffffff1602179055506040820151816002019081611c329190612ce2565b50505050611c76565b6040517f08c379a0000000000000000000000000000000000000000000000000000000008152600401611c6d9061352f565b60405180910390fd5b5050505050565b611c85611f85565b60006004600084815260200190815260200160002090508060040160009054906101000a900473ffffffffffffffffffffffffffffffffffffffff1673ffffffffffffffffffffffffffffffffffffffff163373ffffffffffffffffffffffffffffffffffffffff1614611d2e576040517f08c379a0000000000000000000000000000000000000000000000000000000008152600401611d259061359b565b60405180910390fd5b8373ffffffffffffffffffffffffffffffffffffffff166323b872dd8260040160009054906101000a900473ffffffffffffffffffffffffffffffffffffffff1684866040518463ffffffff1660e01b8152600401611d8f939291906135bb565b600060405180830381600087803b158015611da957600080fd5b505af1158015611dbd573d6000803e3d6000fd5b505050504281600a0181905550818160040160006101000a81548173ffffffffffffffffffffffffffffffffffffffff021916908373ffffffffffffffffffffffffffffffffffffffff16021790555050611e16611fea565b505050565b60058181548110611e2b57600080fd5b9060005260206000209060030201600091509050806000018054611e4e90612b05565b80601f0160208091040260200160405190810160405280929190818152602001828054611e7a90612b05565b8015611ec75780601f10611e9c57610100808354040283529160200191611ec7565b820191906000526020600020905b815481529060010190602001808311611eaa57829003601f168201915b5050505050908060010160009054906101000a900473ffffffffffffffffffffffffffffffffffffffff1690806002018054611f0290612b05565b80601f0160208091040260200160405190810160405280929190818152602001828054611f2e90612b05565b8015611f7b5780601f10611f5057610100808354040283529160200191611f7b565b820191906000526020600020905b815481529060010190602001808311611f5e57829003601f168201915b5050505050905083565b600260005403611fca576040517f08c379a0000000000000000000000000000000000000000000000000000000008152600401611fc19061363e565b60405180910390fd5b6002600081905550565b6001816000016000828254019250508190555050565b6001600081905550565b600081600001549050919050565b604051806101600160405280600073ffffffffffffffffffffffffffffffffffffffff1681526020016000815260200160608152602001600073ffffffffffffffffffffffffffffffffffffffff168152602001600073ffffffffffffffffffffffffffffffffffffffff16815260200160008152602001606081526020016060815260200160001515815260200160008152602001600081525090565b5080546120ac90612b05565b6000825580601f106120be57506120dd565b601f0160209004906000526020600020908101906120dc91906120e0565b5b50565b5b808211156120f95760008160009055506001016120e1565b5090565b6000604051905090565b600080fd5b600080fd5b600073ffffffffffffffffffffffffffffffffffffffff82169050919050565b600061213c82612111565b9050919050565b61214c81612131565b811461215757600080fd5b50565b60008135905061216981612143565b92915050565b600080fd5b600080fd5b6000601f19601f8301169050919050565b7f4e487b7100000000000000000000000000000000000000000000000000000000600052604160045260246000fd5b6121c282612179565b810181811067ffffffffffffffff821117156121e1576121e061218a565b5b80604052505050565b60006121f46120fd565b905061220082826121b9565b919050565b600067ffffffffffffffff8211156122205761221f61218a565b5b61222982612179565b9050602081019050919050565b82818337600083830152505050565b600061225861225384612205565b6121ea565b90508281526020810184848401111561227457612273612174565b5b61227f848285612236565b509392505050565b600082601f83011261229c5761229b61216f565b5b81356122ac848260208601612245565b91505092915050565b6000819050919050565b6122c8816122b5565b81146122d357600080fd5b50565b6000813590506122e5816122bf565b92915050565b60006122f682612111565b9050919050565b612306816122eb565b811461231157600080fd5b50565b600081359050612323816122fd565b92915050565b60008060008060008060c0878903121561234657612345612107565b5b600061235489828a0161215a565b965050602087013567ffffffffffffffff8111156123755761237461210c565b5b61238189828a01612287565b955050604061239289828a016122d6565b94505060606123a389828a016122d6565b93505060806123b489828a01612314565b92505060a087013567ffffffffffffffff8111156123d5576123d461210c565b5b6123e189828a01612287565b9150509295509295509295565b6000806000806080858703121561240857612407612107565b5b60006124168782880161215a565b9450506020612427878288016122d6565b9350506040612438878288016122d6565b925050606085013567ffffffffffffffff8111156124595761245861210c565b5b61246587828801612287565b91505092959194509250565b600081519050919050565b600082825260208201905092915050565b6000819050602082019050919050565b600081519050919050565b600082825260208201905092915050565b60005b838110156124d75780820151818401526020810190506124bc565b60008484015250505050565b60006124ee8261249d565b6124f881856124a8565b93506125088185602086016124b9565b61251181612179565b840191505092915050565b61252581612131565b82525050565b6000606083016000830151848203600086015261254882826124e3565b915050602083015161255d602086018261251c565b506040830151848203604086015261257582826124e3565b9150508091505092915050565b600061258e838361252b565b905092915050565b6000602082019050919050565b60006125ae82612471565b6125b8818561247c565b9350836020820285016125ca8561248d565b8060005b8581101561260657848403895281516125e78582612582565b94506125f283612596565b925060208a019950506001810190506125ce565b50829750879550505050505092915050565b6000602082019050818103600083015261263281846125a3565b905092915050565b600081519050919050565b600082825260208201905092915050565b6000819050602082019050919050565b61266f816122b5565b82525050565b61267e816122eb565b82525050565b60008115159050919050565b61269981612684565b82525050565b6000610160830160008301516126b8600086018261251c565b5060208301516126cb6020860182612666565b50604083015184820360408601526126e382826124e3565b91505060608301516126f86060860182612675565b50608083015161270b6080860182612675565b5060a083015161271e60a0860182612666565b5060c083015184820360c086015261273682826124e3565b91505060e083015184820360e086015261275082826124e3565b915050610100830151612767610100860182612690565b5061012083015161277c610120860182612666565b50610140830151612791610140860182612666565b508091505092915050565b60006127a8838361269f565b905092915050565b6000602082019050919050565b60006127c88261263a565b6127d28185612645565b9350836020820285016127e485612656565b8060005b858110156128205784840389528151612801858261279c565b945061280c836127b0565b925060208a019950506001810190506127e8565b50829750879550505050505092915050565b6000602082019050818103600083015261284c81846127bd565b905092915050565b6000806040838503121561286b5761286a612107565b5b60006128798582860161215a565b925050602061288a858286016122d6565b9150509250929050565b6000602082840312156128aa576128a9612107565b5b60006128b88482850161215a565b91505092915050565b6000806000606084860312156128da576128d9612107565b5b600084013567ffffffffffffffff8111156128f8576128f761210c565b5b61290486828701612287565b93505060206129158682870161215a565b925050604084013567ffffffffffffffff8111156129365761293561210c565b5b61294286828701612287565b9150509250925092565b60008060006060848603121561296557612964612107565b5b60006129738682870161215a565b9350506020612984868287016122d6565b925050604061299586828701612314565b9150509250925092565b6000602082840312156129b5576129b4612107565b5b60006129c3848285016122d6565b91505092915050565b600082825260208201905092915050565b60006129e88261249d565b6129f281856129cc565b9350612a028185602086016124b9565b612a0b81612179565b840191505092915050565b612a1f81612131565b82525050565b60006060820190508181036000830152612a3f81866129dd565b9050612a4e6020830185612a16565b8181036040830152612a6081846129dd565b9050949350505050565b7f416d6f756e74206d757374206265206174206c65617374203120776569000000600082015250565b6000612aa0601d836129cc565b9150612aab82612a6a565b602082019050919050565b60006020820190508181036000830152612acf81612a93565b9050919050565b7f4e487b7100000000000000000000000000000000000000000000000000000000600052602260045260246000fd5b60006002820490506001821680612b1d57607f821691505b602082108103612b3057612b2f612ad6565b5b50919050565b60008190508160005260206000209050919050565b60006020601f8301049050919050565b600082821b905092915050565b600060088302612b987fffffffffffffffffffffffffffffffffffffffffffffffffffffffffffffffff82612b5b565b612ba28683612b5b565b95508019841693508086168417925050509392505050565b6000819050919050565b6000612bdf612bda612bd5846122b5565b612bba565b6122b5565b9050919050565b6000819050919050565b612bf983612bc4565b612c0d612c0582612be6565b848454612b68565b825550505050565b600090565b612c22612c15565b612c2d818484612bf0565b505050565b5b81811015612c5157612c46600082612c1a565b600181019050612c33565b5050565b601f821115612c9657612c6781612b36565b612c7084612b4b565b81016020851015612c7f578190505b612c93612c8b85612b4b565b830182612c32565b50505b505050565b600082821c905092915050565b6000612cb960001984600802612c9b565b1980831691505092915050565b6000612cd28383612ca8565b9150826002028217905092915050565b612ceb8261249d565b67ffffffffffffffff811115612d0457612d0361218a565b5b612d0e8254612b05565b612d19828285612c55565b600060209050601f831160018114612d4c5760008415612d3a578287015190505b612d448582612cc6565b865550612dac565b601f198416612d5a86612b36565b60005b82811015612d8257848901518255600182019150602085019450602081019050612d5d565b86831015612d9f5784890151612d9b601f891682612ca8565b8355505b6001600288020188555050505b505050505050565b612dbd816122b5565b82525050565b6000612dde612dd9612dd484612111565b612bba565b612111565b9050919050565b6000612df082612dc3565b9050919050565b6000612e0282612de5565b9050919050565b612e1281612df7565b82525050565b600060e082019050612e2d600083018a612a16565b612e3a6020830189612db4565b8181036040830152612e4c81886129dd565b9050612e5b6060830187612e09565b612e686080830186612e09565b612e7560a0830185612db4565b81810360c0830152612e8781846129dd565b905098975050505050505050565b7f796f752063616e6e6f7420617070726f766520746865207472616e736163746960008201527f6f6e000000000000000000000000000000000000000000000000000000000000602082015250565b6000612ef16022836129cc565b9150612efc82612e95565b604082019050919050565b60006020820190508181036000830152612f2081612ee4565b9050919050565b7f616d6f756e74206d757374206265206174206c65617374203120776569000000600082015250565b6000612f5d601d836129cc565b9150612f6882612f27565b602082019050919050565b60006020820190508181036000830152612f8c81612f50565b9050919050565b7f616d6f756e74206d757374206265206c657373207468616e206f72206571756160008201527f6c20746f207468652076616c7565000000000000000000000000000000000000602082015250565b6000612fef602e836129cc565b9150612ffa82612f93565b604082019050919050565b6000602082019050818103600083015261301e81612fe2565b9050919050565b7f4e487b7100000000000000000000000000000000000000000000000000000000600052601160045260246000fd5b600061305f826122b5565b915061306a836122b5565b925082820390508181111561308257613081613025565b5b92915050565b60008154905061309781612b05565b9050919050565b8181036130ac575050613184565b6130b582613088565b67ffffffffffffffff8111156130ce576130cd61218a565b5b6130d88254612b05565b6130e3828285612c55565b6000601f8311600181146131125760008415613100578287015490505b61310a8582612cc6565b86555061317d565b601f19841661312087612b36565b965061312b86612b36565b60005b828110156131535784890154825560018201915060018501945060208101905061312e565b86831015613170578489015461316c601f891682612ca8565b8355505b6001600288020188555050505b5050505050505b565b6000815461319381612b05565b61319d81866129cc565b945060018216600081146131b857600181146131ce57613201565b60ff198316865281151560200286019350613201565b6131d785612b36565b60005b838110156131f9578154818901526001820191506020810190506131da565b808801955050505b50505092915050565b600061012082019050613220600083018c612a16565b61322d602083018b612db4565b818103604083015261323f818a613186565b905061324e6060830189612e09565b61325b6080830188612e09565b61326860a0830187612db4565b81810360c083015261327a8186613186565b905081810360e083015261328e81856129dd565b905061329e610100830184612db4565b9a9950505050505050505050565b600081519050919050565b6000819050602082019050919050565b60007fffffffffffffffffffffffffffffffffffffffff00000000000000000000000082169050919050565b60006132ff82516132c7565b80915050919050565b6000613313826132ac565b8261331d846132b7565b9050613328816132f3565b92506014821015613368576133637fffffffffffffffffffffffffffffffffffffffff00000000000000000000000083601403600802612b5b565b831692505b5050919050565b60006060820190506133846000830186612e09565b6133916020830185612a16565b61339e6040830184612db4565b949350505050565b60006133b1826122b5565b91506133bc836122b5565b92508282019050808211156133d4576133d3613025565b5b92915050565b60006133e5826122b5565b91507fffffffffffffffffffffffffffffffffffffffffffffffffffffffffffffffff820361341757613416613025565b5b600182019050919050565b7f4e487b7100000000000000000000000000000000000000000000000000000000600052603260045260246000fd5b7f796f752063616e6e6f742063616e63656c20746865207472616e73616374696f60008201527f6e00000000000000000000000000000000000000000000000000000000000000602082015250565b60006134ad6021836129cc565b91506134b882613451565b604082019050919050565b600060208201905081810360008301526134dc816134a0565b9050919050565b7f53746f726520616c726561647920657869737473000000000000000000000000600082015250565b60006135196014836129cc565b9150613524826134e3565b602082019050919050565b600060208201905081810360008301526135488161350c565b9050919050565b7f796f752063616e6e6f74207472616e7366657220746865206e66740000000000600082015250565b6000613585601b836129cc565b91506135908261354f565b602082019050919050565b600060208201905081810360008301526135b481613578565b9050919050565b60006060820190506135d06000830186612e09565b6135dd6020830185612e09565b6135ea6040830184612db4565b949350505050565b7f5265656e7472616e637947756172643a207265656e7472616e742063616c6c00600082015250565b6000613628601f836129cc565b9150613633826135f2565b602082019050919050565b600060208201905081810360008301526136578161361b565b905091905056fe307830303030303030303030303030303030303030303030303030303030303030303030303030303030a2646970667358221220810ddc59963a5b4b0815b83bfc5d62b88260e03b84c18fb2d63c0e127f5341da64736f6c63430008130033","opcodes":"PUSH1 0x80 PUSH1 0x40 MSTORE PUSH1 0x1 PUSH1 0x0 DUP2 SWAP1 SSTORE POP CALLER PUSH1 0x3 PUSH1 0x0 PUSH2 0x100 EXP DUP2 SLOAD DUP2 PUSH20 0xFFFFFFFFFFFFFFFFFFFFFFFFFFFFFFFFFFFFFFFF MUL NOT AND SWAP1 DUP4 PUSH20 0xFFFFFFFFFFFFFFFFFFFFFFFFFFFFFFFFFFFFFFFF AND MUL OR SWAP1 SSTORE POP PUSH2 0x36BE DUP1 PUSH2 0x5C PUSH1 0x0 CODECOPY PUSH1 0x0 RETURN INVALID PUSH1 0x80 PUSH1 0x40 MSTORE PUSH1 0x4 CALLDATASIZE LT PUSH2 0x86 JUMPI PUSH1 0x0 CALLDATALOAD PUSH1 0xE0 SHR DUP1 PUSH4 0xA86658AB GT PUSH2 0x59 JUMPI DUP1 PUSH4 0xA86658AB EQ PUSH2 0x119 JUMPI DUP1 PUSH4 0xB44A8CEA EQ PUSH2 0x135 JUMPI DUP1 PUSH4 0xC8883E44 EQ PUSH2 0x172 JUMPI DUP1 PUSH4 0xD2F0922A EQ PUSH2 0x18E JUMPI DUP1 PUSH4 0xE8A59CD8 EQ PUSH2 0x1AA JUMPI PUSH2 0x86 JUMP JUMPDEST DUP1 PUSH4 0x535DD68B EQ PUSH2 0x8B JUMPI DUP1 PUSH4 0x8252DDA3 EQ PUSH2 0xA7 JUMPI DUP1 PUSH4 0x8B4BD105 EQ PUSH2 0xC3 JUMPI DUP1 PUSH4 0x97E4CA70 EQ PUSH2 0xEE JUMPI JUMPDEST PUSH1 0x0 DUP1 REVERT JUMPDEST PUSH2 0xA5 PUSH1 0x4 DUP1 CALLDATASIZE SUB DUP2 ADD SWAP1 PUSH2 0xA0 SWAP2 SWAP1 PUSH2 0x2329 JUMP JUMPDEST PUSH2 0x1E9 JUMP JUMPDEST STOP JUMPDEST PUSH2 0xC1 PUSH1 0x4 DUP1 CALLDATASIZE SUB DUP2 ADD SWAP1 PUSH2 0xBC SWAP2 SWAP1 PUSH2 0x23EE JUMP JUMPDEST PUSH2 0x4B0 JUMP JUMPDEST STOP JUMPDEST CALLVALUE DUP1 ISZERO PUSH2 0xCF JUMPI PUSH1 0x0 DUP1 REVERT JUMPDEST POP PUSH2 0xD8 PUSH2 0xA55 JUMP JUMPDEST PUSH1 0x40 MLOAD PUSH2 0xE5 SWAP2 SWAP1 PUSH2 0x2618 JUMP JUMPDEST PUSH1 0x40 MLOAD DUP1 SWAP2 SUB SWAP1 RETURN JUMPDEST CALLVALUE DUP1 ISZERO PUSH2 0xFA JUMPI PUSH1 0x0 DUP1 REVERT JUMPDEST POP PUSH2 0x103 PUSH2 0xC2E JUMP JUMPDEST PUSH1 0x40 MLOAD PUSH2 0x110 SWAP2 SWAP1 PUSH2 0x2832 JUMP JUMPDEST PUSH1 0x40 MLOAD DUP1 SWAP2 SUB SWAP1 RETURN JUMPDEST PUSH2 0x133 PUSH1 0x4 DUP1 CALLDATASIZE SUB DUP2 ADD SWAP1 PUSH2 0x12E SWAP2 SWAP1 PUSH2 0x2854 JUMP JUMPDEST PUSH2 0x112C JUMP JUMPDEST STOP JUMPDEST CALLVALUE DUP1 ISZERO PUSH2 0x141 JUMPI PUSH1 0x0 DUP1 REVERT JUMPDEST POP PUSH2 0x15C PUSH1 0x4 DUP1 CALLDATASIZE SUB DUP2 ADD SWAP1 PUSH2 0x157 SWAP2 SWAP1 PUSH2 0x2894 JUMP JUMPDEST PUSH2 0x13FF JUMP JUMPDEST PUSH1 0x40 MLOAD PUSH2 0x169 SWAP2 SWAP1 PUSH2 0x2832 JUMP JUMPDEST PUSH1 0x40 MLOAD DUP1 SWAP2 SUB SWAP1 RETURN JUMPDEST PUSH2 0x18C PUSH1 0x4 DUP1 CALLDATASIZE SUB DUP2 ADD SWAP1 PUSH2 0x187 SWAP2 SWAP1 PUSH2 0x28C1 JUMP JUMPDEST PUSH2 0x18FF JUMP JUMPDEST STOP JUMPDEST PUSH2 0x1A8 PUSH1 0x4 DUP1 CALLDATASIZE SUB DUP2 ADD SWAP1 PUSH2 0x1A3 SWAP2 SWAP1 PUSH2 0x294C JUMP JUMPDEST PUSH2 0x1C7D JUMP JUMPDEST STOP JUMPDEST CALLVALUE DUP1 ISZERO PUSH2 0x1B6 JUMPI PUSH1 0x0 DUP1 REVERT JUMPDEST POP PUSH2 0x1D1 PUSH1 0x4 DUP1 CALLDATASIZE SUB DUP2 ADD SWAP1 PUSH2 0x1CC SWAP2 SWAP1 PUSH2 0x299F JUMP JUMPDEST PUSH2 0x1E1B JUMP JUMPDEST PUSH1 0x40 MLOAD PUSH2 0x1E0 SWAP4 SWAP3 SWAP2 SWAP1 PUSH2 0x2A25 JUMP JUMPDEST PUSH1 0x40 MLOAD DUP1 SWAP2 SUB SWAP1 RETURN JUMPDEST PUSH2 0x1F1 PUSH2 0x1F85 JUMP JUMPDEST PUSH1 0x0 DUP4 GT PUSH2 0x234 JUMPI PUSH1 0x40 MLOAD PUSH32 0x8C379A000000000000000000000000000000000000000000000000000000000 DUP2 MSTORE PUSH1 0x4 ADD PUSH2 0x22B SWAP1 PUSH2 0x2AB6 JUMP JUMPDEST PUSH1 0x40 MLOAD DUP1 SWAP2 SUB SWAP1 REVERT JUMPDEST PUSH1 0x0 CALLER SWAP1 POP PUSH2 0x243 PUSH1 0x2 PUSH2 0x1FD4 JUMP JUMPDEST PUSH1 0x40 MLOAD DUP1 PUSH2 0x160 ADD PUSH1 0x40 MSTORE DUP1 DUP9 PUSH20 0xFFFFFFFFFFFFFFFFFFFFFFFFFFFFFFFFFFFFFFFF AND DUP2 MSTORE PUSH1 0x20 ADD DUP7 DUP2 MSTORE PUSH1 0x20 ADD DUP8 DUP2 MSTORE PUSH1 0x20 ADD DUP5 PUSH20 0xFFFFFFFFFFFFFFFFFFFFFFFFFFFFFFFFFFFFFFFF AND DUP2 MSTORE PUSH1 0x20 ADD DUP3 PUSH20 0xFFFFFFFFFFFFFFFFFFFFFFFFFFFFFFFFFFFFFFFF AND DUP2 MSTORE PUSH1 0x20 ADD DUP6 DUP2 MSTORE PUSH1 0x20 ADD DUP4 DUP2 MSTORE PUSH1 0x20 ADD PUSH1 0x40 MLOAD DUP1 PUSH1 0x20 ADD PUSH1 0x40 MSTORE DUP1 PUSH1 0x0 DUP2 MSTORE POP DUP2 MSTORE PUSH1 0x20 ADD PUSH1 0x0 ISZERO ISZERO DUP2 MSTORE PUSH1 0x20 ADD PUSH1 0x0 DUP2 MSTORE PUSH1 0x20 ADD TIMESTAMP DUP2 MSTORE POP PUSH1 0x4 PUSH1 0x0 DUP8 DUP2 MSTORE PUSH1 0x20 ADD SWAP1 DUP2 MSTORE PUSH1 0x20 ADD PUSH1 0x0 KECCAK256 PUSH1 0x0 DUP3 ADD MLOAD DUP2 PUSH1 0x0 ADD PUSH1 0x0 PUSH2 0x100 EXP DUP2 SLOAD DUP2 PUSH20 0xFFFFFFFFFFFFFFFFFFFFFFFFFFFFFFFFFFFFFFFF MUL NOT AND SWAP1 DUP4 PUSH20 0xFFFFFFFFFFFFFFFFFFFFFFFFFFFFFFFFFFFFFFFF AND MUL OR SWAP1 SSTORE POP PUSH1 0x20 DUP3 ADD MLOAD DUP2 PUSH1 0x1 ADD SSTORE PUSH1 0x40 DUP3 ADD MLOAD DUP2 PUSH1 0x2 ADD SWAP1 DUP2 PUSH2 0x35D SWAP2 SWAP1 PUSH2 0x2CE2 JUMP JUMPDEST POP PUSH1 0x60 DUP3 ADD MLOAD DUP2 PUSH1 0x3 ADD PUSH1 0x0 PUSH2 0x100 EXP DUP2 SLOAD DUP2 PUSH20 0xFFFFFFFFFFFFFFFFFFFFFFFFFFFFFFFFFFFFFFFF MUL NOT AND SWAP1 DUP4 PUSH20 0xFFFFFFFFFFFFFFFFFFFFFFFFFFFFFFFFFFFFFFFF AND MUL OR SWAP1 SSTORE POP PUSH1 0x80 DUP3 ADD MLOAD DUP2 PUSH1 0x4 ADD PUSH1 0x0 PUSH2 0x100 EXP DUP2 SLOAD DUP2 PUSH20 0xFFFFFFFFFFFFFFFFFFFFFFFFFFFFFFFFFFFFFFFF MUL NOT AND SWAP1 DUP4 PUSH20 0xFFFFFFFFFFFFFFFFFFFFFFFFFFFFFFFFFFFFFFFF AND MUL OR SWAP1 SSTORE POP PUSH1 0xA0 DUP3 ADD MLOAD DUP2 PUSH1 0x5 ADD SSTORE PUSH1 0xC0 DUP3 ADD MLOAD DUP2 PUSH1 0x6 ADD SWAP1 DUP2 PUSH2 0x40B SWAP2 SWAP1 PUSH2 0x2CE2 JUMP JUMPDEST POP PUSH1 0xE0 DUP3 ADD MLOAD DUP2 PUSH1 0x7 ADD SWAP1 DUP2 PUSH2 0x421 SWAP2 SWAP1 PUSH2 0x2CE2 JUMP JUMPDEST POP PUSH2 0x100 DUP3 ADD MLOAD DUP2 PUSH1 0x8 ADD PUSH1 0x0 PUSH2 0x100 EXP DUP2 SLOAD DUP2 PUSH1 0xFF MUL NOT AND SWAP1 DUP4 ISZERO ISZERO MUL OR SWAP1 SSTORE POP PUSH2 0x120 DUP3 ADD MLOAD DUP2 PUSH1 0x9 ADD SSTORE PUSH2 0x140 DUP3 ADD MLOAD DUP2 PUSH1 0xA ADD SSTORE SWAP1 POP POP PUSH32 0x49114C8D400C11C0C6DD4C393D79D123D68C3C2F9690163A7DABD2EB7B202472 DUP8 DUP7 DUP9 DUP7 DUP6 DUP10 DUP9 PUSH1 0x40 MLOAD PUSH2 0x497 SWAP8 SWAP7 SWAP6 SWAP5 SWAP4 SWAP3 SWAP2 SWAP1 PUSH2 0x2E18 JUMP JUMPDEST PUSH1 0x40 MLOAD DUP1 SWAP2 SUB SWAP1 LOG1 POP PUSH2 0x4A8 PUSH2 0x1FEA JUMP JUMPDEST POP POP POP POP POP POP JUMP JUMPDEST PUSH2 0x4B8 PUSH2 0x1F85 JUMP JUMPDEST PUSH1 0x0 PUSH1 0x4 PUSH1 0x0 DUP6 DUP2 MSTORE PUSH1 0x20 ADD SWAP1 DUP2 MSTORE PUSH1 0x20 ADD PUSH1 0x0 KECCAK256 SWAP1 POP DUP1 PUSH1 0x3 ADD PUSH1 0x0 SWAP1 SLOAD SWAP1 PUSH2 0x100 EXP SWAP1 DIV PUSH20 0xFFFFFFFFFFFFFFFFFFFFFFFFFFFFFFFFFFFFFFFF AND PUSH20 0xFFFFFFFFFFFFFFFFFFFFFFFFFFFFFFFFFFFFFFFF AND CALLER PUSH20 0xFFFFFFFFFFFFFFFFFFFFFFFFFFFFFFFFFFFFFFFF AND EQ PUSH2 0x561 JUMPI PUSH1 0x40 MLOAD PUSH32 0x8C379A000000000000000000000000000000000000000000000000000000000 DUP2 MSTORE PUSH1 0x4 ADD PUSH2 0x558 SWAP1 PUSH2 0x2F07 JUMP JUMPDEST PUSH1 0x40 MLOAD DUP1 SWAP2 SUB SWAP1 REVERT JUMPDEST PUSH1 0x0 DUP4 GT PUSH2 0x5A4 JUMPI PUSH1 0x40 MLOAD PUSH32 0x8C379A000000000000000000000000000000000000000000000000000000000 DUP2 MSTORE PUSH1 0x4 ADD PUSH2 0x59B SWAP1 PUSH2 0x2F73 JUMP JUMPDEST PUSH1 0x40 MLOAD DUP1 SWAP2 SUB SWAP1 REVERT JUMPDEST DUP1 PUSH1 0x5 ADD SLOAD DUP4 GT ISZERO PUSH2 0x5EB JUMPI PUSH1 0x40 MLOAD PUSH32 0x8C379A000000000000000000000000000000000000000000000000000000000 DUP2 MSTORE PUSH1 0x4 ADD PUSH2 0x5E2 SWAP1 PUSH2 0x3005 JUMP JUMPDEST PUSH1 0x40 MLOAD DUP1 SWAP2 SUB SWAP1 REVERT JUMPDEST PUSH1 0x0 DUP2 PUSH1 0x5 ADD SLOAD SWAP1 POP DUP2 PUSH1 0x3 ADD PUSH1 0x0 SWAP1 SLOAD SWAP1 PUSH2 0x100 EXP SWAP1 DIV PUSH20 0xFFFFFFFFFFFFFFFFFFFFFFFFFFFFFFFFFFFFFFFF AND PUSH20 0xFFFFFFFFFFFFFFFFFFFFFFFFFFFFFFFFFFFFFFFF AND PUSH2 0x8FC DUP6 SWAP1 DUP2 ISZERO MUL SWAP1 PUSH1 0x40 MLOAD PUSH1 0x0 PUSH1 0x40 MLOAD DUP1 DUP4 SUB DUP2 DUP6 DUP9 DUP9 CALL SWAP4 POP POP POP POP ISZERO DUP1 ISZERO PUSH2 0x65E JUMPI RETURNDATASIZE PUSH1 0x0 DUP1 RETURNDATACOPY RETURNDATASIZE PUSH1 0x0 REVERT JUMPDEST POP DUP4 DUP2 PUSH2 0x66B SWAP2 SWAP1 PUSH2 0x3054 JUMP JUMPDEST SWAP1 POP DUP2 PUSH1 0x4 ADD PUSH1 0x0 SWAP1 SLOAD SWAP1 PUSH2 0x100 EXP SWAP1 DIV PUSH20 0xFFFFFFFFFFFFFFFFFFFFFFFFFFFFFFFFFFFFFFFF AND PUSH20 0xFFFFFFFFFFFFFFFFFFFFFFFFFFFFFFFFFFFFFFFF AND PUSH2 0x8FC DUP3 SWAP1 DUP2 ISZERO MUL SWAP1 PUSH1 0x40 MLOAD PUSH1 0x0 PUSH1 0x40 MLOAD DUP1 DUP4 SUB DUP2 DUP6 DUP9 DUP9 CALL SWAP4 POP POP POP POP ISZERO DUP1 ISZERO PUSH2 0x6D7 JUMPI RETURNDATASIZE PUSH1 0x0 DUP1 RETURNDATACOPY RETURNDATASIZE PUSH1 0x0 REVERT JUMPDEST POP DUP3 DUP3 PUSH1 0x7 ADD SWAP1 DUP2 PUSH2 0x6E9 SWAP2 SWAP1 PUSH2 0x2CE2 JUMP JUMPDEST POP PUSH1 0x1 DUP3 PUSH1 0x8 ADD PUSH1 0x0 PUSH2 0x100 EXP DUP2 SLOAD DUP2 PUSH1 0xFF MUL NOT AND SWAP1 DUP4 ISZERO ISZERO MUL OR SWAP1 SSTORE POP DUP4 DUP3 PUSH1 0x9 ADD DUP2 SWAP1 SSTORE POP TIMESTAMP DUP3 PUSH1 0xA ADD DUP2 SWAP1 SSTORE POP DUP2 PUSH1 0x4 PUSH1 0x0 DUP8 DUP2 MSTORE PUSH1 0x20 ADD SWAP1 DUP2 MSTORE PUSH1 0x20 ADD PUSH1 0x0 KECCAK256 PUSH1 0x0 DUP3 ADD PUSH1 0x0 SWAP1 SLOAD SWAP1 PUSH2 0x100 EXP SWAP1 DIV PUSH20 0xFFFFFFFFFFFFFFFFFFFFFFFFFFFFFFFFFFFFFFFF AND DUP2 PUSH1 0x0 ADD PUSH1 0x0 PUSH2 0x100 EXP DUP2 SLOAD DUP2 PUSH20 0xFFFFFFFFFFFFFFFFFFFFFFFFFFFFFFFFFFFFFFFF MUL NOT AND SWAP1 DUP4 PUSH20 0xFFFFFFFFFFFFFFFFFFFFFFFFFFFFFFFFFFFFFFFF AND MUL OR SWAP1 SSTORE POP PUSH1 0x1 DUP3 ADD SLOAD DUP2 PUSH1 0x1 ADD SSTORE PUSH1 0x2 DUP3 ADD DUP2 PUSH1 0x2 ADD SWAP1 DUP2 PUSH2 0x7B2 SWAP2 SWAP1 PUSH2 0x309E JUMP JUMPDEST POP PUSH1 0x3 DUP3 ADD PUSH1 0x0 SWAP1 SLOAD SWAP1 PUSH2 0x100 EXP SWAP1 DIV PUSH20 0xFFFFFFFFFFFFFFFFFFFFFFFFFFFFFFFFFFFFFFFF AND DUP2 PUSH1 0x3 ADD PUSH1 0x0 PUSH2 0x100 EXP DUP2 SLOAD DUP2 PUSH20 0xFFFFFFFFFFFFFFFFFFFFFFFFFFFFFFFFFFFFFFFF MUL NOT AND SWAP1 DUP4 PUSH20 0xFFFFFFFFFFFFFFFFFFFFFFFFFFFFFFFFFFFFFFFF AND MUL OR SWAP1 SSTORE POP PUSH1 0x4 DUP3 ADD PUSH1 0x0 SWAP1 SLOAD SWAP1 PUSH2 0x100 EXP SWAP1 DIV PUSH20 0xFFFFFFFFFFFFFFFFFFFFFFFFFFFFFFFFFFFFFFFF AND DUP2 PUSH1 0x4 ADD PUSH1 0x0 PUSH2 0x100 EXP DUP2 SLOAD DUP2 PUSH20 0xFFFFFFFFFFFFFFFFFFFFFFFFFFFFFFFFFFFFFFFF MUL NOT AND SWAP1 DUP4 PUSH20 0xFFFFFFFFFFFFFFFFFFFFFFFFFFFFFFFFFFFFFFFF AND MUL OR SWAP1 SSTORE POP PUSH1 0x5 DUP3 ADD SLOAD DUP2 PUSH1 0x5 ADD SSTORE PUSH1 0x6 DUP3 ADD DUP2 PUSH1 0x6 ADD SWAP1 DUP2 PUSH2 0x89F SWAP2 SWAP1 PUSH2 0x309E JUMP JUMPDEST POP PUSH1 0x7 DUP3 ADD DUP2 PUSH1 0x7 ADD SWAP1 DUP2 PUSH2 0x8B4 SWAP2 SWAP1 PUSH2 0x309E JUMP JUMPDEST POP PUSH1 0x8 DUP3 ADD PUSH1 0x0 SWAP1 SLOAD SWAP1 PUSH2 0x100 EXP SWAP1 DIV PUSH1 0xFF AND DUP2 PUSH1 0x8 ADD PUSH1 0x0 PUSH2 0x100 EXP DUP2 SLOAD DUP2 PUSH1 0xFF MUL NOT AND SWAP1 DUP4 ISZERO ISZERO MUL OR SWAP1 SSTORE POP PUSH1 0x9 DUP3 ADD SLOAD DUP2 PUSH1 0x9 ADD SSTORE PUSH1 0xA DUP3 ADD SLOAD DUP2 PUSH1 0xA ADD SSTORE SWAP1 POP POP PUSH32 0x34508B70A5A1F90D3EAFB233756AA94DB2F7AA878EE9D3DCD7470C7BFEDEEEEF DUP7 DUP7 DUP5 PUSH1 0x2 ADD DUP6 PUSH1 0x3 ADD PUSH1 0x0 SWAP1 SLOAD SWAP1 PUSH2 0x100 EXP SWAP1 DIV PUSH20 0xFFFFFFFFFFFFFFFFFFFFFFFFFFFFFFFFFFFFFFFF AND DUP7 PUSH1 0x4 ADD PUSH1 0x0 SWAP1 SLOAD SWAP1 PUSH2 0x100 EXP SWAP1 DIV PUSH20 0xFFFFFFFFFFFFFFFFFFFFFFFFFFFFFFFFFFFFFFFF AND DUP10 DUP9 PUSH1 0x6 ADD DUP11 DUP13 PUSH1 0x40 MLOAD PUSH2 0x986 SWAP10 SWAP9 SWAP8 SWAP7 SWAP6 SWAP5 SWAP4 SWAP3 SWAP2 SWAP1 PUSH2 0x320A JUMP JUMPDEST PUSH1 0x40 MLOAD DUP1 SWAP2 SUB SWAP1 LOG1 DUP6 PUSH20 0xFFFFFFFFFFFFFFFFFFFFFFFFFFFFFFFFFFFFFFFF AND PUSH4 0x23B872DD DUP4 PUSH1 0x4 ADD PUSH1 0x0 SWAP1 SLOAD SWAP1 PUSH2 0x100 EXP SWAP1 DIV PUSH20 0xFFFFFFFFFFFFFFFFFFFFFFFFFFFFFFFFFFFFFFFF AND PUSH1 0x40 MLOAD DUP1 PUSH1 0x60 ADD PUSH1 0x40 MSTORE DUP1 PUSH1 0x2A DUP2 MSTORE PUSH1 0x20 ADD PUSH2 0x365F PUSH1 0x2A SWAP2 CODECOPY PUSH2 0x9F1 SWAP1 PUSH2 0x3308 JUMP JUMPDEST PUSH1 0x60 SHR DUP9 PUSH1 0x40 MLOAD DUP5 PUSH4 0xFFFFFFFF AND PUSH1 0xE0 SHL DUP2 MSTORE PUSH1 0x4 ADD PUSH2 0xA13 SWAP4 SWAP3 SWAP2 SWAP1 PUSH2 0x336F JUMP JUMPDEST PUSH1 0x0 PUSH1 0x40 MLOAD DUP1 DUP4 SUB DUP2 PUSH1 0x0 DUP8 DUP1 EXTCODESIZE ISZERO DUP1 ISZERO PUSH2 0xA2D JUMPI PUSH1 0x0 DUP1 REVERT JUMPDEST POP GAS CALL ISZERO DUP1 ISZERO PUSH2 0xA41 JUMPI RETURNDATASIZE PUSH1 0x0 DUP1 RETURNDATACOPY RETURNDATASIZE PUSH1 0x0 REVERT JUMPDEST POP POP POP POP POP POP PUSH2 0xA4F PUSH2 0x1FEA JUMP JUMPDEST POP POP POP POP JUMP JUMPDEST PUSH1 0x60 PUSH1 0x5 DUP1 SLOAD DUP1 PUSH1 0x20 MUL PUSH1 0x20 ADD PUSH1 0x40 MLOAD SWAP1 DUP2 ADD PUSH1 0x40 MSTORE DUP1 SWAP3 SWAP2 SWAP1 DUP2 DUP2 MSTORE PUSH1 0x20 ADD PUSH1 0x0 SWAP1 JUMPDEST DUP3 DUP3 LT ISZERO PUSH2 0xC25 JUMPI DUP4 DUP3 SWAP1 PUSH1 0x0 MSTORE PUSH1 0x20 PUSH1 0x0 KECCAK256 SWAP1 PUSH1 0x3 MUL ADD PUSH1 0x40 MLOAD DUP1 PUSH1 0x60 ADD PUSH1 0x40 MSTORE SWAP1 DUP2 PUSH1 0x0 DUP3 ADD DUP1 SLOAD PUSH2 0xAAC SWAP1 PUSH2 0x2B05 JUMP JUMPDEST DUP1 PUSH1 0x1F ADD PUSH1 0x20 DUP1 SWAP2 DIV MUL PUSH1 0x20 ADD PUSH1 0x40 MLOAD SWAP1 DUP2 ADD PUSH1 0x40 MSTORE DUP1 SWAP3 SWAP2 SWAP1 DUP2 DUP2 MSTORE PUSH1 0x20 ADD DUP3 DUP1 SLOAD PUSH2 0xAD8 SWAP1 PUSH2 0x2B05 JUMP JUMPDEST DUP1 ISZERO PUSH2 0xB25 JUMPI DUP1 PUSH1 0x1F LT PUSH2 0xAFA JUMPI PUSH2 0x100 DUP1 DUP4 SLOAD DIV MUL DUP4 MSTORE SWAP2 PUSH1 0x20 ADD SWAP2 PUSH2 0xB25 JUMP JUMPDEST DUP3 ADD SWAP2 SWAP1 PUSH1 0x0 MSTORE PUSH1 0x20 PUSH1 0x0 KECCAK256 SWAP1 JUMPDEST DUP2 SLOAD DUP2 MSTORE SWAP1 PUSH1 0x1 ADD SWAP1 PUSH1 0x20 ADD DUP1 DUP4 GT PUSH2 0xB08 JUMPI DUP3 SWAP1 SUB PUSH1 0x1F AND DUP3 ADD SWAP2 JUMPDEST POP POP POP POP POP DUP2 MSTORE PUSH1 0x20 ADD PUSH1 0x1 DUP3 ADD PUSH1 0x0 SWAP1 SLOAD SWAP1 PUSH2 0x100 EXP SWAP1 DIV PUSH20 0xFFFFFFFFFFFFFFFFFFFFFFFFFFFFFFFFFFFFFFFF AND PUSH20 0xFFFFFFFFFFFFFFFFFFFFFFFFFFFFFFFFFFFFFFFF AND PUSH20 0xFFFFFFFFFFFFFFFFFFFFFFFFFFFFFFFFFFFFFFFF AND DUP2 MSTORE PUSH1 0x20 ADD PUSH1 0x2 DUP3 ADD DUP1 SLOAD PUSH2 0xB94 SWAP1 PUSH2 0x2B05 JUMP JUMPDEST DUP1 PUSH1 0x1F ADD PUSH1 0x20 DUP1 SWAP2 DIV MUL PUSH1 0x20 ADD PUSH1 0x40 MLOAD SWAP1 DUP2 ADD PUSH1 0x40 MSTORE DUP1 SWAP3 SWAP2 SWAP1 DUP2 DUP2 MSTORE PUSH1 0x20 ADD DUP3 DUP1 SLOAD PUSH2 0xBC0 SWAP1 PUSH2 0x2B05 JUMP JUMPDEST DUP1 ISZERO PUSH2 0xC0D JUMPI DUP1 PUSH1 0x1F LT PUSH2 0xBE2 JUMPI PUSH2 0x100 DUP1 DUP4 SLOAD DIV MUL DUP4 MSTORE SWAP2 PUSH1 0x20 ADD SWAP2 PUSH2 0xC0D JUMP JUMPDEST DUP3 ADD SWAP2 SWAP1 PUSH1 0x0 MSTORE PUSH1 0x20 PUSH1 0x0 KECCAK256 SWAP1 JUMPDEST DUP2 SLOAD DUP2 MSTORE SWAP1 PUSH1 0x1 ADD SWAP1 PUSH1 0x20 ADD DUP1 DUP4 GT PUSH2 0xBF0 JUMPI DUP3 SWAP1 SUB PUSH1 0x1F AND DUP3 ADD SWAP2 JUMPDEST POP POP POP POP POP DUP2 MSTORE POP POP DUP2 MSTORE PUSH1 0x20 ADD SWAP1 PUSH1 0x1 ADD SWAP1 PUSH2 0xA79 JUMP JUMPDEST POP POP POP POP SWAP1 POP SWAP1 JUMP JUMPDEST PUSH1 0x60 PUSH1 0x0 PUSH2 0xC3C PUSH1 0x2 PUSH2 0x1FF4 JUMP JUMPDEST SWAP1 POP PUSH1 0x0 DUP1 JUMPDEST DUP3 DUP2 LT ISZERO PUSH2 0xCE1 JUMPI CALLER PUSH20 0xFFFFFFFFFFFFFFFFFFFFFFFFFFFFFFFFFFFFFFFF AND PUSH1 0x4 PUSH1 0x0 PUSH1 0x1 DUP5 PUSH2 0xC72 SWAP2 SWAP1 PUSH2 0x33A6 JUMP JUMPDEST DUP2 MSTORE PUSH1 0x20 ADD SWAP1 DUP2 MSTORE PUSH1 0x20 ADD PUSH1 0x0 KECCAK256 PUSH1 0x4 ADD PUSH1 0x0 SWAP1 SLOAD SWAP1 PUSH2 0x100 EXP SWAP1 DIV PUSH20 0xFFFFFFFFFFFFFFFFFFFFFFFFFFFFFFFFFFFFFFFF AND PUSH20 0xFFFFFFFFFFFFFFFFFFFFFFFFFFFFFFFFFFFFFFFF AND SUB PUSH2 0xCCE JUMPI DUP2 DUP1 PUSH2 0xCCA SWAP1 PUSH2 0x33DA JUMP JUMPDEST SWAP3 POP POP JUMPDEST DUP1 DUP1 PUSH2 0xCD9 SWAP1 PUSH2 0x33DA JUMP JUMPDEST SWAP2 POP POP PUSH2 0xC42 JUMP JUMPDEST POP PUSH1 0x0 DUP2 PUSH8 0xFFFFFFFFFFFFFFFF DUP2 GT ISZERO PUSH2 0xCFE JUMPI PUSH2 0xCFD PUSH2 0x218A JUMP JUMPDEST JUMPDEST PUSH1 0x40 MLOAD SWAP1 DUP1 DUP3 MSTORE DUP1 PUSH1 0x20 MUL PUSH1 0x20 ADD DUP3 ADD PUSH1 0x40 MSTORE DUP1 ISZERO PUSH2 0xD37 JUMPI DUP2 PUSH1 0x20 ADD JUMPDEST PUSH2 0xD24 PUSH2 0x2002 JUMP JUMPDEST DUP2 MSTORE PUSH1 0x20 ADD SWAP1 PUSH1 0x1 SWAP1 SUB SWAP1 DUP2 PUSH2 0xD1C JUMPI SWAP1 POP JUMPDEST POP SWAP1 POP PUSH1 0x0 DUP1 JUMPDEST DUP5 DUP2 LT ISZERO PUSH2 0x1121 JUMPI CALLER PUSH20 0xFFFFFFFFFFFFFFFFFFFFFFFFFFFFFFFFFFFFFFFF AND PUSH1 0x4 PUSH1 0x0 PUSH1 0x1 DUP5 PUSH2 0xD6E SWAP2 SWAP1 PUSH2 0x33A6 JUMP JUMPDEST DUP2 MSTORE PUSH1 0x20 ADD SWAP1 DUP2 MSTORE PUSH1 0x20 ADD PUSH1 0x0 KECCAK256 PUSH1 0x4 ADD PUSH1 0x0 SWAP1 SLOAD SWAP1 PUSH2 0x100 EXP SWAP1 DIV PUSH20 0xFFFFFFFFFFFFFFFFFFFFFFFFFFFFFFFFFFFFFFFF AND PUSH20 0xFFFFFFFFFFFFFFFFFFFFFFFFFFFFFFFFFFFFFFFF AND SUB PUSH2 0x110E JUMPI PUSH1 0x4 PUSH1 0x0 PUSH1 0x1 DUP4 PUSH2 0xDCC SWAP2 SWAP1 PUSH2 0x33A6 JUMP JUMPDEST DUP2 MSTORE PUSH1 0x20 ADD SWAP1 DUP2 MSTORE PUSH1 0x20 ADD PUSH1 0x0 KECCAK256 PUSH1 0x40 MLOAD DUP1 PUSH2 0x160 ADD PUSH1 0x40 MSTORE SWAP1 DUP2 PUSH1 0x0 DUP3 ADD PUSH1 0x0 SWAP1 SLOAD SWAP1 PUSH2 0x100 EXP SWAP1 DIV PUSH20 0xFFFFFFFFFFFFFFFFFFFFFFFFFFFFFFFFFFFFFFFF AND PUSH20 0xFFFFFFFFFFFFFFFFFFFFFFFFFFFFFFFFFFFFFFFF AND PUSH20 0xFFFFFFFFFFFFFFFFFFFFFFFFFFFFFFFFFFFFFFFF AND DUP2 MSTORE PUSH1 0x20 ADD PUSH1 0x1 DUP3 ADD SLOAD DUP2 MSTORE PUSH1 0x20 ADD PUSH1 0x2 DUP3 ADD DUP1 SLOAD PUSH2 0xE56 SWAP1 PUSH2 0x2B05 JUMP JUMPDEST DUP1 PUSH1 0x1F ADD PUSH1 0x20 DUP1 SWAP2 DIV MUL PUSH1 0x20 ADD PUSH1 0x40 MLOAD SWAP1 DUP2 ADD PUSH1 0x40 MSTORE DUP1 SWAP3 SWAP2 SWAP1 DUP2 DUP2 MSTORE PUSH1 0x20 ADD DUP3 DUP1 SLOAD PUSH2 0xE82 SWAP1 PUSH2 0x2B05 JUMP JUMPDEST DUP1 ISZERO PUSH2 0xECF JUMPI DUP1 PUSH1 0x1F LT PUSH2 0xEA4 JUMPI PUSH2 0x100 DUP1 DUP4 SLOAD DIV MUL DUP4 MSTORE SWAP2 PUSH1 0x20 ADD SWAP2 PUSH2 0xECF JUMP JUMPDEST DUP3 ADD SWAP2 SWAP1 PUSH1 0x0 MSTORE PUSH1 0x20 PUSH1 0x0 KECCAK256 SWAP1 JUMPDEST DUP2 SLOAD DUP2 MSTORE SWAP1 PUSH1 0x1 ADD SWAP1 PUSH1 0x20 ADD DUP1 DUP4 GT PUSH2 0xEB2 JUMPI DUP3 SWAP1 SUB PUSH1 0x1F AND DUP3 ADD SWAP2 JUMPDEST POP POP POP POP POP DUP2 MSTORE PUSH1 0x20 ADD PUSH1 0x3 DUP3 ADD PUSH1 0x0 SWAP1 SLOAD SWAP1 PUSH2 0x100 EXP SWAP1 DIV PUSH20 0xFFFFFFFFFFFFFFFFFFFFFFFFFFFFFFFFFFFFFFFF AND PUSH20 0xFFFFFFFFFFFFFFFFFFFFFFFFFFFFFFFFFFFFFFFF AND PUSH20 0xFFFFFFFFFFFFFFFFFFFFFFFFFFFFFFFFFFFFFFFF AND DUP2 MSTORE PUSH1 0x20 ADD PUSH1 0x4 DUP3 ADD PUSH1 0x0 SWAP1 SLOAD SWAP1 PUSH2 0x100 EXP SWAP1 DIV PUSH20 0xFFFFFFFFFFFFFFFFFFFFFFFFFFFFFFFFFFFFFFFF AND PUSH20 0xFFFFFFFFFFFFFFFFFFFFFFFFFFFFFFFFFFFFFFFF AND PUSH20 0xFFFFFFFFFFFFFFFFFFFFFFFFFFFFFFFFFFFFFFFF AND DUP2 MSTORE PUSH1 0x20 ADD PUSH1 0x5 DUP3 ADD SLOAD DUP2 MSTORE PUSH1 0x20 ADD PUSH1 0x6 DUP3 ADD DUP1 SLOAD PUSH2 0xF9E SWAP1 PUSH2 0x2B05 JUMP JUMPDEST DUP1 PUSH1 0x1F ADD PUSH1 0x20 DUP1 SWAP2 DIV MUL PUSH1 0x20 ADD PUSH1 0x40 MLOAD SWAP1 DUP2 ADD PUSH1 0x40 MSTORE DUP1 SWAP3 SWAP2 SWAP1 DUP2 DUP2 MSTORE PUSH1 0x20 ADD DUP3 DUP1 SLOAD PUSH2 0xFCA SWAP1 PUSH2 0x2B05 JUMP JUMPDEST DUP1 ISZERO PUSH2 0x1017 JUMPI DUP1 PUSH1 0x1F LT PUSH2 0xFEC JUMPI PUSH2 0x100 DUP1 DUP4 SLOAD DIV MUL DUP4 MSTORE SWAP2 PUSH1 0x20 ADD SWAP2 PUSH2 0x1017 JUMP JUMPDEST DUP3 ADD SWAP2 SWAP1 PUSH1 0x0 MSTORE PUSH1 0x20 PUSH1 0x0 KECCAK256 SWAP1 JUMPDEST DUP2 SLOAD DUP2 MSTORE SWAP1 PUSH1 0x1 ADD SWAP1 PUSH1 0x20 ADD DUP1 DUP4 GT PUSH2 0xFFA JUMPI DUP3 SWAP1 SUB PUSH1 0x1F AND DUP3 ADD SWAP2 JUMPDEST POP POP POP POP POP DUP2 MSTORE PUSH1 0x20 ADD PUSH1 0x7 DUP3 ADD DUP1 SLOAD PUSH2 0x1030 SWAP1 PUSH2 0x2B05 JUMP JUMPDEST DUP1 PUSH1 0x1F ADD PUSH1 0x20 DUP1 SWAP2 DIV MUL PUSH1 0x20 ADD PUSH1 0x40 MLOAD SWAP1 DUP2 ADD PUSH1 0x40 MSTORE DUP1 SWAP3 SWAP2 SWAP1 DUP2 DUP2 MSTORE PUSH1 0x20 ADD DUP3 DUP1 SLOAD PUSH2 0x105C SWAP1 PUSH2 0x2B05 JUMP JUMPDEST DUP1 ISZERO PUSH2 0x10A9 JUMPI DUP1 PUSH1 0x1F LT PUSH2 0x107E JUMPI PUSH2 0x100 DUP1 DUP4 SLOAD DIV MUL DUP4 MSTORE SWAP2 PUSH1 0x20 ADD SWAP2 PUSH2 0x10A9 JUMP JUMPDEST DUP3 ADD SWAP2 SWAP1 PUSH1 0x0 MSTORE PUSH1 0x20 PUSH1 0x0 KECCAK256 SWAP1 JUMPDEST DUP2 SLOAD DUP2 MSTORE SWAP1 PUSH1 0x1 ADD SWAP1 PUSH1 0x20 ADD DUP1 DUP4 GT PUSH2 0x108C JUMPI DUP3 SWAP1 SUB PUSH1 0x1F AND DUP3 ADD SWAP2 JUMPDEST POP POP POP POP POP DUP2 MSTORE PUSH1 0x20 ADD PUSH1 0x8 DUP3 ADD PUSH1 0x0 SWAP1 SLOAD SWAP1 PUSH2 0x100 EXP SWAP1 DIV PUSH1 0xFF AND ISZERO ISZERO ISZERO ISZERO DUP2 MSTORE PUSH1 0x20 ADD PUSH1 0x9 DUP3 ADD SLOAD DUP2 MSTORE PUSH1 0x20 ADD PUSH1 0xA DUP3 ADD SLOAD DUP2 MSTORE POP POP DUP4 DUP4 DUP2 MLOAD DUP2 LT PUSH2 0x10F4 JUMPI PUSH2 0x10F3 PUSH2 0x3422 JUMP JUMPDEST JUMPDEST PUSH1 0x20 MUL PUSH1 0x20 ADD ADD DUP2 SWAP1 MSTORE POP DUP2 DUP1 PUSH2 0x110A SWAP1 PUSH2 0x33DA JUMP JUMPDEST SWAP3 POP POP JUMPDEST DUP1 DUP1 PUSH2 0x1119 SWAP1 PUSH2 0x33DA JUMP JUMPDEST SWAP2 POP POP PUSH2 0xD3E JUMP JUMPDEST POP DUP2 SWAP5 POP POP POP POP POP SWAP1 JUMP JUMPDEST PUSH2 0x1134 PUSH2 0x1F85 JUMP JUMPDEST PUSH1 0x0 PUSH1 0x4 PUSH1 0x0 DUP4 DUP2 MSTORE PUSH1 0x20 ADD SWAP1 DUP2 MSTORE PUSH1 0x20 ADD PUSH1 0x0 KECCAK256 SWAP1 POP DUP1 PUSH1 0x4 ADD PUSH1 0x0 SWAP1 SLOAD SWAP1 PUSH2 0x100 EXP SWAP1 DIV PUSH20 0xFFFFFFFFFFFFFFFFFFFFFFFFFFFFFFFFFFFFFFFF AND PUSH20 0xFFFFFFFFFFFFFFFFFFFFFFFFFFFFFFFFFFFFFFFF AND CALLER PUSH20 0xFFFFFFFFFFFFFFFFFFFFFFFFFFFFFFFFFFFFFFFF AND EQ PUSH2 0x11DD JUMPI PUSH1 0x40 MLOAD PUSH32 0x8C379A000000000000000000000000000000000000000000000000000000000 DUP2 MSTORE PUSH1 0x4 ADD PUSH2 0x11D4 SWAP1 PUSH2 0x34C3 JUMP JUMPDEST PUSH1 0x40 MLOAD DUP1 SWAP2 SUB SWAP1 REVERT JUMPDEST DUP1 PUSH1 0x4 ADD PUSH1 0x0 SWAP1 SLOAD SWAP1 PUSH2 0x100 EXP SWAP1 DIV PUSH20 0xFFFFFFFFFFFFFFFFFFFFFFFFFFFFFFFFFFFFFFFF AND PUSH20 0xFFFFFFFFFFFFFFFFFFFFFFFFFFFFFFFFFFFFFFFF AND PUSH2 0x8FC DUP3 PUSH1 0x5 ADD SLOAD SWAP1 DUP2 ISZERO MUL SWAP1 PUSH1 0x40 MLOAD PUSH1 0x0 PUSH1 0x40 MLOAD DUP1 DUP4 SUB DUP2 DUP6 DUP9 DUP9 CALL SWAP4 POP POP POP POP ISZERO DUP1 ISZERO PUSH2 0x124B JUMPI RETURNDATASIZE PUSH1 0x0 DUP1 RETURNDATACOPY RETURNDATASIZE PUSH1 0x0 REVERT JUMPDEST POP DUP3 PUSH20 0xFFFFFFFFFFFFFFFFFFFFFFFFFFFFFFFFFFFFFFFF AND PUSH4 0x23B872DD DUP3 PUSH1 0x4 ADD PUSH1 0x0 SWAP1 SLOAD SWAP1 PUSH2 0x100 EXP SWAP1 DIV PUSH20 0xFFFFFFFFFFFFFFFFFFFFFFFFFFFFFFFFFFFFFFFF AND PUSH1 0x40 MLOAD DUP1 PUSH1 0x60 ADD PUSH1 0x40 MSTORE DUP1 PUSH1 0x2A DUP2 MSTORE PUSH1 0x20 ADD PUSH2 0x365F PUSH1 0x2A SWAP2 CODECOPY PUSH2 0x12AF SWAP1 PUSH2 0x3308 JUMP JUMPDEST PUSH1 0x60 SHR DUP6 PUSH1 0x40 MLOAD DUP5 PUSH4 0xFFFFFFFF AND PUSH1 0xE0 SHL DUP2 MSTORE PUSH1 0x4 ADD PUSH2 0x12D1 SWAP4 SWAP3 SWAP2 SWAP1 PUSH2 0x336F JUMP JUMPDEST PUSH1 0x0 PUSH1 0x40 MLOAD DUP1 DUP4 SUB DUP2 PUSH1 0x0 DUP8 DUP1 EXTCODESIZE ISZERO DUP1 ISZERO PUSH2 0x12EB JUMPI PUSH1 0x0 DUP1 REVERT JUMPDEST POP GAS CALL ISZERO DUP1 ISZERO PUSH2 0x12FF JUMPI RETURNDATASIZE PUSH1 0x0 DUP1 RETURNDATACOPY RETURNDATASIZE PUSH1 0x0 REVERT JUMPDEST POP POP POP POP PUSH1 0x4 PUSH1 0x0 DUP4 DUP2 MSTORE PUSH1 0x20 ADD SWAP1 DUP2 MSTORE PUSH1 0x20 ADD PUSH1 0x0 KECCAK256 PUSH1 0x0 DUP1 DUP3 ADD PUSH1 0x0 PUSH2 0x100 EXP DUP2 SLOAD SWAP1 PUSH20 0xFFFFFFFFFFFFFFFFFFFFFFFFFFFFFFFFFFFFFFFF MUL NOT AND SWAP1 SSTORE PUSH1 0x1 DUP3 ADD PUSH1 0x0 SWAP1 SSTORE PUSH1 0x2 DUP3 ADD PUSH1 0x0 PUSH2 0x1356 SWAP2 SWAP1 PUSH2 0x20A0 JUMP JUMPDEST PUSH1 0x3 DUP3 ADD PUSH1 0x0 PUSH2 0x100 EXP DUP2 SLOAD SWAP1 PUSH20 0xFFFFFFFFFFFFFFFFFFFFFFFFFFFFFFFFFFFFFFFF MUL NOT AND SWAP1 SSTORE PUSH1 0x4 DUP3 ADD PUSH1 0x0 PUSH2 0x100 EXP DUP2 SLOAD SWAP1 PUSH20 0xFFFFFFFFFFFFFFFFFFFFFFFFFFFFFFFFFFFFFFFF MUL NOT AND SWAP1 SSTORE PUSH1 0x5 DUP3 ADD PUSH1 0x0 SWAP1 SSTORE PUSH1 0x6 DUP3 ADD PUSH1 0x0 PUSH2 0x13BC SWAP2 SWAP1 PUSH2 0x20A0 JUMP JUMPDEST PUSH1 0x7 DUP3 ADD PUSH1 0x0 PUSH2 0x13CC SWAP2 SWAP1 PUSH2 0x20A0 JUMP JUMPDEST PUSH1 0x8 DUP3 ADD PUSH1 0x0 PUSH2 0x100 EXP DUP2 SLOAD SWAP1 PUSH1 0xFF MUL NOT AND SWAP1 SSTORE PUSH1 0x9 DUP3 ADD PUSH1 0x0 SWAP1 SSTORE PUSH1 0xA DUP3 ADD PUSH1 0x0 SWAP1 SSTORE POP POP POP PUSH2 0x13FB PUSH2 0x1FEA JUMP JUMPDEST POP POP JUMP JUMPDEST PUSH1 0x60 PUSH1 0x0 PUSH2 0x140D PUSH1 0x2 PUSH2 0x1FF4 JUMP JUMPDEST SWAP1 POP PUSH1 0x0 DUP1 JUMPDEST DUP3 DUP2 LT ISZERO PUSH2 0x14B2 JUMPI DUP5 PUSH20 0xFFFFFFFFFFFFFFFFFFFFFFFFFFFFFFFFFFFFFFFF AND PUSH1 0x4 PUSH1 0x0 PUSH1 0x1 DUP5 PUSH2 0x1443 SWAP2 SWAP1 PUSH2 0x33A6 JUMP JUMPDEST DUP2 MSTORE PUSH1 0x20 ADD SWAP1 DUP2 MSTORE PUSH1 0x20 ADD PUSH1 0x0 KECCAK256 PUSH1 0x3 ADD PUSH1 0x0 SWAP1 SLOAD SWAP1 PUSH2 0x100 EXP SWAP1 DIV PUSH20 0xFFFFFFFFFFFFFFFFFFFFFFFFFFFFFFFFFFFFFFFF AND PUSH20 0xFFFFFFFFFFFFFFFFFFFFFFFFFFFFFFFFFFFFFFFF AND SUB PUSH2 0x149F JUMPI DUP2 DUP1 PUSH2 0x149B SWAP1 PUSH2 0x33DA JUMP JUMPDEST SWAP3 POP POP JUMPDEST DUP1 DUP1 PUSH2 0x14AA SWAP1 PUSH2 0x33DA JUMP JUMPDEST SWAP2 POP POP PUSH2 0x1413 JUMP JUMPDEST POP PUSH1 0x0 DUP2 PUSH8 0xFFFFFFFFFFFFFFFF DUP2 GT ISZERO PUSH2 0x14CF JUMPI PUSH2 0x14CE PUSH2 0x218A JUMP JUMPDEST JUMPDEST PUSH1 0x40 MLOAD SWAP1 DUP1 DUP3 MSTORE DUP1 PUSH1 0x20 MUL PUSH1 0x20 ADD DUP3 ADD PUSH1 0x40 MSTORE DUP1 ISZERO PUSH2 0x1508 JUMPI DUP2 PUSH1 0x20 ADD JUMPDEST PUSH2 0x14F5 PUSH2 0x2002 JUMP JUMPDEST DUP2 MSTORE PUSH1 0x20 ADD SWAP1 PUSH1 0x1 SWAP1 SUB SWAP1 DUP2 PUSH2 0x14ED JUMPI SWAP1 POP JUMPDEST POP SWAP1 POP PUSH1 0x0 DUP1 JUMPDEST DUP5 DUP2 LT ISZERO PUSH2 0x18F2 JUMPI DUP7 PUSH20 0xFFFFFFFFFFFFFFFFFFFFFFFFFFFFFFFFFFFFFFFF AND PUSH1 0x4 PUSH1 0x0 PUSH1 0x1 DUP5 PUSH2 0x153F SWAP2 SWAP1 PUSH2 0x33A6 JUMP JUMPDEST DUP2 MSTORE PUSH1 0x20 ADD SWAP1 DUP2 MSTORE PUSH1 0x20 ADD PUSH1 0x0 KECCAK256 PUSH1 0x3 ADD PUSH1 0x0 SWAP1 SLOAD SWAP1 PUSH2 0x100 EXP SWAP1 DIV PUSH20 0xFFFFFFFFFFFFFFFFFFFFFFFFFFFFFFFFFFFFFFFF AND PUSH20 0xFFFFFFFFFFFFFFFFFFFFFFFFFFFFFFFFFFFFFFFF AND SUB PUSH2 0x18DF JUMPI PUSH1 0x4 PUSH1 0x0 PUSH1 0x1 DUP4 PUSH2 0x159D SWAP2 SWAP1 PUSH2 0x33A6 JUMP JUMPDEST DUP2 MSTORE PUSH1 0x20 ADD SWAP1 DUP2 MSTORE PUSH1 0x20 ADD PUSH1 0x0 KECCAK256 PUSH1 0x40 MLOAD DUP1 PUSH2 0x160 ADD PUSH1 0x40 MSTORE SWAP1 DUP2 PUSH1 0x0 DUP3 ADD PUSH1 0x0 SWAP1 SLOAD SWAP1 PUSH2 0x100 EXP SWAP1 DIV PUSH20 0xFFFFFFFFFFFFFFFFFFFFFFFFFFFFFFFFFFFFFFFF AND PUSH20 0xFFFFFFFFFFFFFFFFFFFFFFFFFFFFFFFFFFFFFFFF AND PUSH20 0xFFFFFFFFFFFFFFFFFFFFFFFFFFFFFFFFFFFFFFFF AND DUP2 MSTORE PUSH1 0x20 ADD PUSH1 0x1 DUP3 ADD SLOAD DUP2 MSTORE PUSH1 0x20 ADD PUSH1 0x2 DUP3 ADD DUP1 SLOAD PUSH2 0x1627 SWAP1 PUSH2 0x2B05 JUMP JUMPDEST DUP1 PUSH1 0x1F ADD PUSH1 0x20 DUP1 SWAP2 DIV MUL PUSH1 0x20 ADD PUSH1 0x40 MLOAD SWAP1 DUP2 ADD PUSH1 0x40 MSTORE DUP1 SWAP3 SWAP2 SWAP1 DUP2 DUP2 MSTORE PUSH1 0x20 ADD DUP3 DUP1 SLOAD PUSH2 0x1653 SWAP1 PUSH2 0x2B05 JUMP JUMPDEST DUP1 ISZERO PUSH2 0x16A0 JUMPI DUP1 PUSH1 0x1F LT PUSH2 0x1675 JUMPI PUSH2 0x100 DUP1 DUP4 SLOAD DIV MUL DUP4 MSTORE SWAP2 PUSH1 0x20 ADD SWAP2 PUSH2 0x16A0 JUMP JUMPDEST DUP3 ADD SWAP2 SWAP1 PUSH1 0x0 MSTORE PUSH1 0x20 PUSH1 0x0 KECCAK256 SWAP1 JUMPDEST DUP2 SLOAD DUP2 MSTORE SWAP1 PUSH1 0x1 ADD SWAP1 PUSH1 0x20 ADD DUP1 DUP4 GT PUSH2 0x1683 JUMPI DUP3 SWAP1 SUB PUSH1 0x1F AND DUP3 ADD SWAP2 JUMPDEST POP POP POP POP POP DUP2 MSTORE PUSH1 0x20 ADD PUSH1 0x3 DUP3 ADD PUSH1 0x0 SWAP1 SLOAD SWAP1 PUSH2 0x100 EXP SWAP1 DIV PUSH20 0xFFFFFFFFFFFFFFFFFFFFFFFFFFFFFFFFFFFFFFFF AND PUSH20 0xFFFFFFFFFFFFFFFFFFFFFFFFFFFFFFFFFFFFFFFF AND PUSH20 0xFFFFFFFFFFFFFFFFFFFFFFFFFFFFFFFFFFFFFFFF AND DUP2 MSTORE PUSH1 0x20 ADD PUSH1 0x4 DUP3 ADD PUSH1 0x0 SWAP1 SLOAD SWAP1 PUSH2 0x100 EXP SWAP1 DIV PUSH20 0xFFFFFFFFFFFFFFFFFFFFFFFFFFFFFFFFFFFFFFFF AND PUSH20 0xFFFFFFFFFFFFFFFFFFFFFFFFFFFFFFFFFFFFFFFF AND PUSH20 0xFFFFFFFFFFFFFFFFFFFFFFFFFFFFFFFFFFFFFFFF AND DUP2 MSTORE PUSH1 0x20 ADD PUSH1 0x5 DUP3 ADD SLOAD DUP2 MSTORE PUSH1 0x20 ADD PUSH1 0x6 DUP3 ADD DUP1 SLOAD PUSH2 0x176F SWAP1 PUSH2 0x2B05 JUMP JUMPDEST DUP1 PUSH1 0x1F ADD PUSH1 0x20 DUP1 SWAP2 DIV MUL PUSH1 0x20 ADD PUSH1 0x40 MLOAD SWAP1 DUP2 ADD PUSH1 0x40 MSTORE DUP1 SWAP3 SWAP2 SWAP1 DUP2 DUP2 MSTORE PUSH1 0x20 ADD DUP3 DUP1 SLOAD PUSH2 0x179B SWAP1 PUSH2 0x2B05 JUMP JUMPDEST DUP1 ISZERO PUSH2 0x17E8 JUMPI DUP1 PUSH1 0x1F LT PUSH2 0x17BD JUMPI PUSH2 0x100 DUP1 DUP4 SLOAD DIV MUL DUP4 MSTORE SWAP2 PUSH1 0x20 ADD SWAP2 PUSH2 0x17E8 JUMP JUMPDEST DUP3 ADD SWAP2 SWAP1 PUSH1 0x0 MSTORE PUSH1 0x20 PUSH1 0x0 KECCAK256 SWAP1 JUMPDEST DUP2 SLOAD DUP2 MSTORE SWAP1 PUSH1 0x1 ADD SWAP1 PUSH1 0x20 ADD DUP1 DUP4 GT PUSH2 0x17CB JUMPI DUP3 SWAP1 SUB PUSH1 0x1F AND DUP3 ADD SWAP2 JUMPDEST POP POP POP POP POP DUP2 MSTORE PUSH1 0x20 ADD PUSH1 0x7 DUP3 ADD DUP1 SLOAD PUSH2 0x1801 SWAP1 PUSH2 0x2B05 JUMP JUMPDEST DUP1 PUSH1 0x1F ADD PUSH1 0x20 DUP1 SWAP2 DIV MUL PUSH1 0x20 ADD PUSH1 0x40 MLOAD SWAP1 DUP2 ADD PUSH1 0x40 MSTORE DUP1 SWAP3 SWAP2 SWAP1 DUP2 DUP2 MSTORE PUSH1 0x20 ADD DUP3 DUP1 SLOAD PUSH2 0x182D SWAP1 PUSH2 0x2B05 JUMP JUMPDEST DUP1 ISZERO PUSH2 0x187A JUMPI DUP1 PUSH1 0x1F LT PUSH2 0x184F JUMPI PUSH2 0x100 DUP1 DUP4 SLOAD DIV MUL DUP4 MSTORE SWAP2 PUSH1 0x20 ADD SWAP2 PUSH2 0x187A JUMP JUMPDEST DUP3 ADD SWAP2 SWAP1 PUSH1 0x0 MSTORE PUSH1 0x20 PUSH1 0x0 KECCAK256 SWAP1 JUMPDEST DUP2 SLOAD DUP2 MSTORE SWAP1 PUSH1 0x1 ADD SWAP1 PUSH1 0x20 ADD DUP1 DUP4 GT PUSH2 0x185D JUMPI DUP3 SWAP1 SUB PUSH1 0x1F AND DUP3 ADD SWAP2 JUMPDEST POP POP POP POP POP DUP2 MSTORE PUSH1 0x20 ADD PUSH1 0x8 DUP3 ADD PUSH1 0x0 SWAP1 SLOAD SWAP1 PUSH2 0x100 EXP SWAP1 DIV PUSH1 0xFF AND ISZERO ISZERO ISZERO ISZERO DUP2 MSTORE PUSH1 0x20 ADD PUSH1 0x9 DUP3 ADD SLOAD DUP2 MSTORE PUSH1 0x20 ADD PUSH1 0xA DUP3 ADD SLOAD DUP2 MSTORE POP POP DUP4 DUP4 DUP2 MLOAD DUP2 LT PUSH2 0x18C5 JUMPI PUSH2 0x18C4 PUSH2 0x3422 JUMP JUMPDEST JUMPDEST PUSH1 0x20 MUL PUSH1 0x20 ADD ADD DUP2 SWAP1 MSTORE POP DUP2 DUP1 PUSH2 0x18DB SWAP1 PUSH2 0x33DA JUMP JUMPDEST SWAP3 POP POP JUMPDEST DUP1 DUP1 PUSH2 0x18EA SWAP1 PUSH2 0x33DA JUMP JUMPDEST SWAP2 POP POP PUSH2 0x150F JUMP JUMPDEST POP DUP2 SWAP5 POP POP POP POP POP SWAP2 SWAP1 POP JUMP JUMPDEST PUSH1 0x0 PUSH1 0x1 SWAP1 POP PUSH1 0x0 PUSH1 0x5 DUP1 SLOAD DUP1 PUSH1 0x20 MUL PUSH1 0x20 ADD PUSH1 0x40 MLOAD SWAP1 DUP2 ADD PUSH1 0x40 MSTORE DUP1 SWAP3 SWAP2 SWAP1 DUP2 DUP2 MSTORE PUSH1 0x20 ADD PUSH1 0x0 SWAP1 JUMPDEST DUP3 DUP3 LT ISZERO PUSH2 0x1AD5 JUMPI DUP4 DUP3 SWAP1 PUSH1 0x0 MSTORE PUSH1 0x20 PUSH1 0x0 KECCAK256 SWAP1 PUSH1 0x3 MUL ADD PUSH1 0x40 MLOAD DUP1 PUSH1 0x60 ADD PUSH1 0x40 MSTORE SWAP1 DUP2 PUSH1 0x0 DUP3 ADD DUP1 SLOAD PUSH2 0x195C SWAP1 PUSH2 0x2B05 JUMP JUMPDEST DUP1 PUSH1 0x1F ADD PUSH1 0x20 DUP1 SWAP2 DIV MUL PUSH1 0x20 ADD PUSH1 0x40 MLOAD SWAP1 DUP2 ADD PUSH1 0x40 MSTORE DUP1 SWAP3 SWAP2 SWAP1 DUP2 DUP2 MSTORE PUSH1 0x20 ADD DUP3 DUP1 SLOAD PUSH2 0x1988 SWAP1 PUSH2 0x2B05 JUMP JUMPDEST DUP1 ISZERO PUSH2 0x19D5 JUMPI DUP1 PUSH1 0x1F LT PUSH2 0x19AA JUMPI PUSH2 0x100 DUP1 DUP4 SLOAD DIV MUL DUP4 MSTORE SWAP2 PUSH1 0x20 ADD SWAP2 PUSH2 0x19D5 JUMP JUMPDEST DUP3 ADD SWAP2 SWAP1 PUSH1 0x0 MSTORE PUSH1 0x20 PUSH1 0x0 KECCAK256 SWAP1 JUMPDEST DUP2 SLOAD DUP2 MSTORE SWAP1 PUSH1 0x1 ADD SWAP1 PUSH1 0x20 ADD DUP1 DUP4 GT PUSH2 0x19B8 JUMPI DUP3 SWAP1 SUB PUSH1 0x1F AND DUP3 ADD SWAP2 JUMPDEST POP POP POP POP POP DUP2 MSTORE PUSH1 0x20 ADD PUSH1 0x1 DUP3 ADD PUSH1 0x0 SWAP1 SLOAD SWAP1 PUSH2 0x100 EXP SWAP1 DIV PUSH20 0xFFFFFFFFFFFFFFFFFFFFFFFFFFFFFFFFFFFFFFFF AND PUSH20 0xFFFFFFFFFFFFFFFFFFFFFFFFFFFFFFFFFFFFFFFF AND PUSH20 0xFFFFFFFFFFFFFFFFFFFFFFFFFFFFFFFFFFFFFFFF AND DUP2 MSTORE PUSH1 0x20 ADD PUSH1 0x2 DUP3 ADD DUP1 SLOAD PUSH2 0x1A44 SWAP1 PUSH2 0x2B05 JUMP JUMPDEST DUP1 PUSH1 0x1F ADD PUSH1 0x20 DUP1 SWAP2 DIV MUL PUSH1 0x20 ADD PUSH1 0x40 MLOAD SWAP1 DUP2 ADD PUSH1 0x40 MSTORE DUP1 SWAP3 SWAP2 SWAP1 DUP2 DUP2 MSTORE PUSH1 0x20 ADD DUP3 DUP1 SLOAD PUSH2 0x1A70 SWAP1 PUSH2 0x2B05 JUMP JUMPDEST DUP1 ISZERO PUSH2 0x1ABD JUMPI DUP1 PUSH1 0x1F LT PUSH2 0x1A92 JUMPI PUSH2 0x100 DUP1 DUP4 SLOAD DIV MUL DUP4 MSTORE SWAP2 PUSH1 0x20 ADD SWAP2 PUSH2 0x1ABD JUMP JUMPDEST DUP3 ADD SWAP2 SWAP1 PUSH1 0x0 MSTORE PUSH1 0x20 PUSH1 0x0 KECCAK256 SWAP1 JUMPDEST DUP2 SLOAD DUP2 MSTORE SWAP1 PUSH1 0x1 ADD SWAP1 PUSH1 0x20 ADD DUP1 DUP4 GT PUSH2 0x1AA0 JUMPI DUP3 SWAP1 SUB PUSH1 0x1F AND DUP3 ADD SWAP2 JUMPDEST POP POP POP POP POP DUP2 MSTORE POP POP DUP2 MSTORE PUSH1 0x20 ADD SWAP1 PUSH1 0x1 ADD SWAP1 PUSH2 0x1929 JUMP JUMPDEST POP POP POP POP SWAP1 POP PUSH1 0x0 JUMPDEST PUSH1 0x5 DUP1 SLOAD SWAP1 POP DUP2 LT ISZERO PUSH2 0x1B58 JUMPI DUP2 DUP2 DUP2 MLOAD DUP2 LT PUSH2 0x1AFE JUMPI PUSH2 0x1AFD PUSH2 0x3422 JUMP JUMPDEST JUMPDEST PUSH1 0x20 MUL PUSH1 0x20 ADD ADD MLOAD PUSH1 0x20 ADD MLOAD PUSH20 0xFFFFFFFFFFFFFFFFFFFFFFFFFFFFFFFFFFFFFFFF AND DUP6 PUSH20 0xFFFFFFFFFFFFFFFFFFFFFFFFFFFFFFFFFFFFFFFF AND SUB PUSH2 0x1B45 JUMPI PUSH1 0x0 SWAP3 POP PUSH2 0x1B58 JUMP JUMPDEST DUP1 DUP1 PUSH2 0x1B50 SWAP1 PUSH2 0x33DA JUMP JUMPDEST SWAP2 POP POP PUSH2 0x1ADE JUMP JUMPDEST POP DUP2 ISZERO PUSH2 0x1C3B JUMPI PUSH1 0x0 PUSH1 0x40 MLOAD DUP1 PUSH1 0x60 ADD PUSH1 0x40 MSTORE DUP1 DUP8 DUP2 MSTORE PUSH1 0x20 ADD DUP7 PUSH20 0xFFFFFFFFFFFFFFFFFFFFFFFFFFFFFFFFFFFFFFFF AND DUP2 MSTORE PUSH1 0x20 ADD DUP6 DUP2 MSTORE POP SWAP1 POP PUSH1 0x5 DUP2 SWAP1 DUP1 PUSH1 0x1 DUP2 SLOAD ADD DUP1 DUP3 SSTORE DUP1 SWAP2 POP POP PUSH1 0x1 SWAP1 SUB SWAP1 PUSH1 0x0 MSTORE PUSH1 0x20 PUSH1 0x0 KECCAK256 SWAP1 PUSH1 0x3 MUL ADD PUSH1 0x0 SWAP1 SWAP2 SWAP1 SWAP2 SWAP1 SWAP2 POP PUSH1 0x0 DUP3 ADD MLOAD DUP2 PUSH1 0x0 ADD SWAP1 DUP2 PUSH2 0x1BD5 SWAP2 SWAP1 PUSH2 0x2CE2 JUMP JUMPDEST POP PUSH1 0x20 DUP3 ADD MLOAD DUP2 PUSH1 0x1 ADD PUSH1 0x0 PUSH2 0x100 EXP DUP2 SLOAD DUP2 PUSH20 0xFFFFFFFFFFFFFFFFFFFFFFFFFFFFFFFFFFFFFFFF MUL NOT AND SWAP1 DUP4 PUSH20 0xFFFFFFFFFFFFFFFFFFFFFFFFFFFFFFFFFFFFFFFF AND MUL OR SWAP1 SSTORE POP PUSH1 0x40 DUP3 ADD MLOAD DUP2 PUSH1 0x2 ADD SWAP1 DUP2 PUSH2 0x1C32 SWAP2 SWAP1 PUSH2 0x2CE2 JUMP JUMPDEST POP POP POP POP PUSH2 0x1C76 JUMP JUMPDEST PUSH1 0x40 MLOAD PUSH32 0x8C379A000000000000000000000000000000000000000000000000000000000 DUP2 MSTORE PUSH1 0x4 ADD PUSH2 0x1C6D SWAP1 PUSH2 0x352F JUMP JUMPDEST PUSH1 0x40 MLOAD DUP1 SWAP2 SUB SWAP1 REVERT JUMPDEST POP POP POP POP POP JUMP JUMPDEST PUSH2 0x1C85 PUSH2 0x1F85 JUMP JUMPDEST PUSH1 0x0 PUSH1 0x4 PUSH1 0x0 DUP5 DUP2 MSTORE PUSH1 0x20 ADD SWAP1 DUP2 MSTORE PUSH1 0x20 ADD PUSH1 0x0 KECCAK256 SWAP1 POP DUP1 PUSH1 0x4 ADD PUSH1 0x0 SWAP1 SLOAD SWAP1 PUSH2 0x100 EXP SWAP1 DIV PUSH20 0xFFFFFFFFFFFFFFFFFFFFFFFFFFFFFFFFFFFFFFFF AND PUSH20 0xFFFFFFFFFFFFFFFFFFFFFFFFFFFFFFFFFFFFFFFF AND CALLER PUSH20 0xFFFFFFFFFFFFFFFFFFFFFFFFFFFFFFFFFFFFFFFF AND EQ PUSH2 0x1D2E JUMPI PUSH1 0x40 MLOAD PUSH32 0x8C379A000000000000000000000000000000000000000000000000000000000 DUP2 MSTORE PUSH1 0x4 ADD PUSH2 0x1D25 SWAP1 PUSH2 0x359B JUMP JUMPDEST PUSH1 0x40 MLOAD DUP1 SWAP2 SUB SWAP1 REVERT JUMPDEST DUP4 PUSH20 0xFFFFFFFFFFFFFFFFFFFFFFFFFFFFFFFFFFFFFFFF AND PUSH4 0x23B872DD DUP3 PUSH1 0x4 ADD PUSH1 0x0 SWAP1 SLOAD SWAP1 PUSH2 0x100 EXP SWAP1 DIV PUSH20 0xFFFFFFFFFFFFFFFFFFFFFFFFFFFFFFFFFFFFFFFF AND DUP5 DUP7 PUSH1 0x40 MLOAD DUP5 PUSH4 0xFFFFFFFF AND PUSH1 0xE0 SHL DUP2 MSTORE PUSH1 0x4 ADD PUSH2 0x1D8F SWAP4 SWAP3 SWAP2 SWAP1 PUSH2 0x35BB JUMP JUMPDEST PUSH1 0x0 PUSH1 0x40 MLOAD DUP1 DUP4 SUB DUP2 PUSH1 0x0 DUP8 DUP1 EXTCODESIZE ISZERO DUP1 ISZERO PUSH2 0x1DA9 JUMPI PUSH1 0x0 DUP1 REVERT JUMPDEST POP GAS CALL ISZERO DUP1 ISZERO PUSH2 0x1DBD JUMPI RETURNDATASIZE PUSH1 0x0 DUP1 RETURNDATACOPY RETURNDATASIZE PUSH1 0x0 REVERT JUMPDEST POP POP POP POP TIMESTAMP DUP2 PUSH1 0xA ADD DUP2 SWAP1 SSTORE POP DUP2 DUP2 PUSH1 0x4 ADD PUSH1 0x0 PUSH2 0x100 EXP DUP2 SLOAD DUP2 PUSH20 0xFFFFFFFFFFFFFFFFFFFFFFFFFFFFFFFFFFFFFFFF MUL NOT AND SWAP1 DUP4 PUSH20 0xFFFFFFFFFFFFFFFFFFFFFFFFFFFFFFFFFFFFFFFF AND MUL OR SWAP1 SSTORE POP POP PUSH2 0x1E16 PUSH2 0x1FEA JUMP JUMPDEST POP POP POP JUMP JUMPDEST PUSH1 0x5 DUP2 DUP2 SLOAD DUP2 LT PUSH2 0x1E2B JUMPI PUSH1 0x0 DUP1 REVERT JUMPDEST SWAP1 PUSH1 0x0 MSTORE PUSH1 0x20 PUSH1 0x0 KECCAK256 SWAP1 PUSH1 0x3 MUL ADD PUSH1 0x0 SWAP2 POP SWAP1 POP DUP1 PUSH1 0x0 ADD DUP1 SLOAD PUSH2 0x1E4E SWAP1 PUSH2 0x2B05 JUMP JUMPDEST DUP1 PUSH1 0x1F ADD PUSH1 0x20 DUP1 SWAP2 DIV MUL PUSH1 0x20 ADD PUSH1 0x40 MLOAD SWAP1 DUP2 ADD PUSH1 0x40 MSTORE DUP1 SWAP3 SWAP2 SWAP1 DUP2 DUP2 MSTORE PUSH1 0x20 ADD DUP3 DUP1 SLOAD PUSH2 0x1E7A SWAP1 PUSH2 0x2B05 JUMP JUMPDEST DUP1 ISZERO PUSH2 0x1EC7 JUMPI DUP1 PUSH1 0x1F LT PUSH2 0x1E9C JUMPI PUSH2 0x100 DUP1 DUP4 SLOAD DIV MUL DUP4 MSTORE SWAP2 PUSH1 0x20 ADD SWAP2 PUSH2 0x1EC7 JUMP JUMPDEST DUP3 ADD SWAP2 SWAP1 PUSH1 0x0 MSTORE PUSH1 0x20 PUSH1 0x0 KECCAK256 SWAP1 JUMPDEST DUP2 SLOAD DUP2 MSTORE SWAP1 PUSH1 0x1 ADD SWAP1 PUSH1 0x20 ADD DUP1 DUP4 GT PUSH2 0x1EAA JUMPI DUP3 SWAP1 SUB PUSH1 0x1F AND DUP3 ADD SWAP2 JUMPDEST POP POP POP POP POP SWAP1 DUP1 PUSH1 0x1 ADD PUSH1 0x0 SWAP1 SLOAD SWAP1 PUSH2 0x100 EXP SWAP1 DIV PUSH20 0xFFFFFFFFFFFFFFFFFFFFFFFFFFFFFFFFFFFFFFFF AND SWAP1 DUP1 PUSH1 0x2 ADD DUP1 SLOAD PUSH2 0x1F02 SWAP1 PUSH2 0x2B05 JUMP JUMPDEST DUP1 PUSH1 0x1F ADD PUSH1 0x20 DUP1 SWAP2 DIV MUL PUSH1 0x20 ADD PUSH1 0x40 MLOAD SWAP1 DUP2 ADD PUSH1 0x40 MSTORE DUP1 SWAP3 SWAP2 SWAP1 DUP2 DUP2 MSTORE PUSH1 0x20 ADD DUP3 DUP1 SLOAD PUSH2 0x1F2E SWAP1 PUSH2 0x2B05 JUMP JUMPDEST DUP1 ISZERO PUSH2 0x1F7B JUMPI DUP1 PUSH1 0x1F LT PUSH2 0x1F50 JUMPI PUSH2 0x100 DUP1 DUP4 SLOAD DIV MUL DUP4 MSTORE SWAP2 PUSH1 0x20 ADD SWAP2 PUSH2 0x1F7B JUMP JUMPDEST DUP3 ADD SWAP2 SWAP1 PUSH1 0x0 MSTORE PUSH1 0x20 PUSH1 0x0 KECCAK256 SWAP1 JUMPDEST DUP2 SLOAD DUP2 MSTORE SWAP1 PUSH1 0x1 ADD SWAP1 PUSH1 0x20 ADD DUP1 DUP4 GT PUSH2 0x1F5E JUMPI DUP3 SWAP1 SUB PUSH1 0x1F AND DUP3 ADD SWAP2 JUMPDEST POP POP POP POP POP SWAP1 POP DUP4 JUMP JUMPDEST PUSH1 0x2 PUSH1 0x0 SLOAD SUB PUSH2 0x1FCA JUMPI PUSH1 0x40 MLOAD PUSH32 0x8C379A000000000000000000000000000000000000000000000000000000000 DUP2 MSTORE PUSH1 0x4 ADD PUSH2 0x1FC1 SWAP1 PUSH2 0x363E JUMP JUMPDEST PUSH1 0x40 MLOAD DUP1 SWAP2 SUB SWAP1 REVERT JUMPDEST PUSH1 0x2 PUSH1 0x0 DUP2 SWAP1 SSTORE POP JUMP JUMPDEST PUSH1 0x1 DUP2 PUSH1 0x0 ADD PUSH1 0x0 DUP3 DUP3 SLOAD ADD SWAP3 POP POP DUP2 SWAP1 SSTORE POP POP JUMP JUMPDEST PUSH1 0x1 PUSH1 0x0 DUP2 SWAP1 SSTORE POP JUMP JUMPDEST PUSH1 0x0 DUP2 PUSH1 0x0 ADD SLOAD SWAP1 POP SWAP2 SWAP1 POP JUMP JUMPDEST PUSH1 0x40 MLOAD DUP1 PUSH2 0x160 ADD PUSH1 0x40 MSTORE DUP1 PUSH1 0x0 PUSH20 0xFFFFFFFFFFFFFFFFFFFFFFFFFFFFFFFFFFFFFFFF AND DUP2 MSTORE PUSH1 0x20 ADD PUSH1 0x0 DUP2 MSTORE PUSH1 0x20 ADD PUSH1 0x60 DUP2 MSTORE PUSH1 0x20 ADD PUSH1 0x0 PUSH20 0xFFFFFFFFFFFFFFFFFFFFFFFFFFFFFFFFFFFFFFFF AND DUP2 MSTORE PUSH1 0x20 ADD PUSH1 0x0 PUSH20 0xFFFFFFFFFFFFFFFFFFFFFFFFFFFFFFFFFFFFFFFF AND DUP2 MSTORE PUSH1 0x20 ADD PUSH1 0x0 DUP2 MSTORE PUSH1 0x20 ADD PUSH1 0x60 DUP2 MSTORE PUSH1 0x20 ADD PUSH1 0x60 DUP2 MSTORE PUSH1 0x20 ADD PUSH1 0x0 ISZERO ISZERO DUP2 MSTORE PUSH1 0x20 ADD PUSH1 0x0 DUP2 MSTORE PUSH1 0x20 ADD PUSH1 0x0 DUP2 MSTORE POP SWAP1 JUMP JUMPDEST POP DUP1 SLOAD PUSH2 0x20AC SWAP1 PUSH2 0x2B05 JUMP JUMPDEST PUSH1 0x0 DUP3 SSTORE DUP1 PUSH1 0x1F LT PUSH2 0x20BE JUMPI POP PUSH2 0x20DD JUMP JUMPDEST PUSH1 0x1F ADD PUSH1 0x20 SWAP1 DIV SWAP1 PUSH1 0x0 MSTORE PUSH1 0x20 PUSH1 0x0 KECCAK256 SWAP1 DUP2 ADD SWAP1 PUSH2 0x20DC SWAP2 SWAP1 PUSH2 0x20E0 JUMP JUMPDEST JUMPDEST POP JUMP JUMPDEST JUMPDEST DUP1 DUP3 GT ISZERO PUSH2 0x20F9 JUMPI PUSH1 0x0 DUP2 PUSH1 0x0 SWAP1 SSTORE POP PUSH1 0x1 ADD PUSH2 0x20E1 JUMP JUMPDEST POP SWAP1 JUMP JUMPDEST PUSH1 0x0 PUSH1 0x40 MLOAD SWAP1 POP SWAP1 JUMP JUMPDEST PUSH1 0x0 DUP1 REVERT JUMPDEST PUSH1 0x0 DUP1 REVERT JUMPDEST PUSH1 0x0 PUSH20 0xFFFFFFFFFFFFFFFFFFFFFFFFFFFFFFFFFFFFFFFF DUP3 AND SWAP1 POP SWAP2 SWAP1 POP JUMP JUMPDEST PUSH1 0x0 PUSH2 0x213C DUP3 PUSH2 0x2111 JUMP JUMPDEST SWAP1 POP SWAP2 SWAP1 POP JUMP JUMPDEST PUSH2 0x214C DUP2 PUSH2 0x2131 JUMP JUMPDEST DUP2 EQ PUSH2 0x2157 JUMPI PUSH1 0x0 DUP1 REVERT JUMPDEST POP JUMP JUMPDEST PUSH1 0x0 DUP2 CALLDATALOAD SWAP1 POP PUSH2 0x2169 DUP2 PUSH2 0x2143 JUMP JUMPDEST SWAP3 SWAP2 POP POP JUMP JUMPDEST PUSH1 0x0 DUP1 REVERT JUMPDEST PUSH1 0x0 DUP1 REVERT JUMPDEST PUSH1 0x0 PUSH1 0x1F NOT PUSH1 0x1F DUP4 ADD AND SWAP1 POP SWAP2 SWAP1 POP JUMP JUMPDEST PUSH32 0x4E487B7100000000000000000000000000000000000000000000000000000000 PUSH1 0x0 MSTORE PUSH1 0x41 PUSH1 0x4 MSTORE PUSH1 0x24 PUSH1 0x0 REVERT JUMPDEST PUSH2 0x21C2 DUP3 PUSH2 0x2179 JUMP JUMPDEST DUP2 ADD DUP2 DUP2 LT PUSH8 0xFFFFFFFFFFFFFFFF DUP3 GT OR ISZERO PUSH2 0x21E1 JUMPI PUSH2 0x21E0 PUSH2 0x218A JUMP JUMPDEST JUMPDEST DUP1 PUSH1 0x40 MSTORE POP POP POP JUMP JUMPDEST PUSH1 0x0 PUSH2 0x21F4 PUSH2 0x20FD JUMP JUMPDEST SWAP1 POP PUSH2 0x2200 DUP3 DUP3 PUSH2 0x21B9 JUMP JUMPDEST SWAP2 SWAP1 POP JUMP JUMPDEST PUSH1 0x0 PUSH8 0xFFFFFFFFFFFFFFFF DUP3 GT ISZERO PUSH2 0x2220 JUMPI PUSH2 0x221F PUSH2 0x218A JUMP JUMPDEST JUMPDEST PUSH2 0x2229 DUP3 PUSH2 0x2179 JUMP JUMPDEST SWAP1 POP PUSH1 0x20 DUP2 ADD SWAP1 POP SWAP2 SWAP1 POP JUMP JUMPDEST DUP3 DUP2 DUP4 CALLDATACOPY PUSH1 0x0 DUP4 DUP4 ADD MSTORE POP POP POP JUMP JUMPDEST PUSH1 0x0 PUSH2 0x2258 PUSH2 0x2253 DUP5 PUSH2 0x2205 JUMP JUMPDEST PUSH2 0x21EA JUMP JUMPDEST SWAP1 POP DUP3 DUP2 MSTORE PUSH1 0x20 DUP2 ADD DUP5 DUP5 DUP5 ADD GT ISZERO PUSH2 0x2274 JUMPI PUSH2 0x2273 PUSH2 0x2174 JUMP JUMPDEST JUMPDEST PUSH2 0x227F DUP5 DUP3 DUP6 PUSH2 0x2236 JUMP JUMPDEST POP SWAP4 SWAP3 POP POP POP JUMP JUMPDEST PUSH1 0x0 DUP3 PUSH1 0x1F DUP4 ADD SLT PUSH2 0x229C JUMPI PUSH2 0x229B PUSH2 0x216F JUMP JUMPDEST JUMPDEST DUP2 CALLDATALOAD PUSH2 0x22AC DUP5 DUP3 PUSH1 0x20 DUP7 ADD PUSH2 0x2245 JUMP JUMPDEST SWAP2 POP POP SWAP3 SWAP2 POP POP JUMP JUMPDEST PUSH1 0x0 DUP2 SWAP1 POP SWAP2 SWAP1 POP JUMP JUMPDEST PUSH2 0x22C8 DUP2 PUSH2 0x22B5 JUMP JUMPDEST DUP2 EQ PUSH2 0x22D3 JUMPI PUSH1 0x0 DUP1 REVERT JUMPDEST POP JUMP JUMPDEST PUSH1 0x0 DUP2 CALLDATALOAD SWAP1 POP PUSH2 0x22E5 DUP2 PUSH2 0x22BF JUMP JUMPDEST SWAP3 SWAP2 POP POP JUMP JUMPDEST PUSH1 0x0 PUSH2 0x22F6 DUP3 PUSH2 0x2111 JUMP JUMPDEST SWAP1 POP SWAP2 SWAP1 POP JUMP JUMPDEST PUSH2 0x2306 DUP2 PUSH2 0x22EB JUMP JUMPDEST DUP2 EQ PUSH2 0x2311 JUMPI PUSH1 0x0 DUP1 REVERT JUMPDEST POP JUMP JUMPDEST PUSH1 0x0 DUP2 CALLDATALOAD SWAP1 POP PUSH2 0x2323 DUP2 PUSH2 0x22FD JUMP JUMPDEST SWAP3 SWAP2 POP POP JUMP JUMPDEST PUSH1 0x0 DUP1 PUSH1 0x0 DUP1 PUSH1 0x0 DUP1 PUSH1 0xC0 DUP8 DUP10 SUB SLT ISZERO PUSH2 0x2346 JUMPI PUSH2 0x2345 PUSH2 0x2107 JUMP JUMPDEST JUMPDEST PUSH1 0x0 PUSH2 0x2354 DUP10 DUP3 DUP11 ADD PUSH2 0x215A JUMP JUMPDEST SWAP7 POP POP PUSH1 0x20 DUP8 ADD CALLDATALOAD PUSH8 0xFFFFFFFFFFFFFFFF DUP2 GT ISZERO PUSH2 0x2375 JUMPI PUSH2 0x2374 PUSH2 0x210C JUMP JUMPDEST JUMPDEST PUSH2 0x2381 DUP10 DUP3 DUP11 ADD PUSH2 0x2287 JUMP JUMPDEST SWAP6 POP POP PUSH1 0x40 PUSH2 0x2392 DUP10 DUP3 DUP11 ADD PUSH2 0x22D6 JUMP JUMPDEST SWAP5 POP POP PUSH1 0x60 PUSH2 0x23A3 DUP10 DUP3 DUP11 ADD PUSH2 0x22D6 JUMP JUMPDEST SWAP4 POP POP PUSH1 0x80 PUSH2 0x23B4 DUP10 DUP3 DUP11 ADD PUSH2 0x2314 JUMP JUMPDEST SWAP3 POP POP PUSH1 0xA0 DUP8 ADD CALLDATALOAD PUSH8 0xFFFFFFFFFFFFFFFF DUP2 GT ISZERO PUSH2 0x23D5 JUMPI PUSH2 0x23D4 PUSH2 0x210C JUMP JUMPDEST JUMPDEST PUSH2 0x23E1 DUP10 DUP3 DUP11 ADD PUSH2 0x2287 JUMP JUMPDEST SWAP2 POP POP SWAP3 SWAP6 POP SWAP3 SWAP6 POP SWAP3 SWAP6 JUMP JUMPDEST PUSH1 0x0 DUP1 PUSH1 0x0 DUP1 PUSH1 0x80 DUP6 DUP8 SUB SLT ISZERO PUSH2 0x2408 JUMPI PUSH2 0x2407 PUSH2 0x2107 JUMP JUMPDEST JUMPDEST PUSH1 0x0 PUSH2 0x2416 DUP8 DUP3 DUP9 ADD PUSH2 0x215A JUMP JUMPDEST SWAP5 POP POP PUSH1 0x20 PUSH2 0x2427 DUP8 DUP3 DUP9 ADD PUSH2 0x22D6 JUMP JUMPDEST SWAP4 POP POP PUSH1 0x40 PUSH2 0x2438 DUP8 DUP3 DUP9 ADD PUSH2 0x22D6 JUMP JUMPDEST SWAP3 POP POP PUSH1 0x60 DUP6 ADD CALLDATALOAD PUSH8 0xFFFFFFFFFFFFFFFF DUP2 GT ISZERO PUSH2 0x2459 JUMPI PUSH2 0x2458 PUSH2 0x210C JUMP JUMPDEST JUMPDEST PUSH2 0x2465 DUP8 DUP3 DUP9 ADD PUSH2 0x2287 JUMP JUMPDEST SWAP2 POP POP SWAP3 SWAP6 SWAP2 SWAP5 POP SWAP3 POP JUMP JUMPDEST PUSH1 0x0 DUP2 MLOAD SWAP1 POP SWAP2 SWAP1 POP JUMP JUMPDEST PUSH1 0x0 DUP3 DUP3 MSTORE PUSH1 0x20 DUP3 ADD SWAP1 POP SWAP3 SWAP2 POP POP JUMP JUMPDEST PUSH1 0x0 DUP2 SWAP1 POP PUSH1 0x20 DUP3 ADD SWAP1 POP SWAP2 SWAP1 POP JUMP JUMPDEST PUSH1 0x0 DUP2 MLOAD SWAP1 POP SWAP2 SWAP1 POP JUMP JUMPDEST PUSH1 0x0 DUP3 DUP3 MSTORE PUSH1 0x20 DUP3 ADD SWAP1 POP SWAP3 SWAP2 POP POP JUMP JUMPDEST PUSH1 0x0 JUMPDEST DUP4 DUP2 LT ISZERO PUSH2 0x24D7 JUMPI DUP1 DUP3 ADD MLOAD DUP2 DUP5 ADD MSTORE PUSH1 0x20 DUP2 ADD SWAP1 POP PUSH2 0x24BC JUMP JUMPDEST PUSH1 0x0 DUP5 DUP5 ADD MSTORE POP POP POP POP JUMP JUMPDEST PUSH1 0x0 PUSH2 0x24EE DUP3 PUSH2 0x249D JUMP JUMPDEST PUSH2 0x24F8 DUP2 DUP6 PUSH2 0x24A8 JUMP JUMPDEST SWAP4 POP PUSH2 0x2508 DUP2 DUP6 PUSH1 0x20 DUP7 ADD PUSH2 0x24B9 JUMP JUMPDEST PUSH2 0x2511 DUP2 PUSH2 0x2179 JUMP JUMPDEST DUP5 ADD SWAP2 POP POP SWAP3 SWAP2 POP POP JUMP JUMPDEST PUSH2 0x2525 DUP2 PUSH2 0x2131 JUMP JUMPDEST DUP3 MSTORE POP POP JUMP JUMPDEST PUSH1 0x0 PUSH1 0x60 DUP4 ADD PUSH1 0x0 DUP4 ADD MLOAD DUP5 DUP3 SUB PUSH1 0x0 DUP7 ADD MSTORE PUSH2 0x2548 DUP3 DUP3 PUSH2 0x24E3 JUMP JUMPDEST SWAP2 POP POP PUSH1 0x20 DUP4 ADD MLOAD PUSH2 0x255D PUSH1 0x20 DUP7 ADD DUP3 PUSH2 0x251C JUMP JUMPDEST POP PUSH1 0x40 DUP4 ADD MLOAD DUP5 DUP3 SUB PUSH1 0x40 DUP7 ADD MSTORE PUSH2 0x2575 DUP3 DUP3 PUSH2 0x24E3 JUMP JUMPDEST SWAP2 POP POP DUP1 SWAP2 POP POP SWAP3 SWAP2 POP POP JUMP JUMPDEST PUSH1 0x0 PUSH2 0x258E DUP4 DUP4 PUSH2 0x252B JUMP JUMPDEST SWAP1 POP SWAP3 SWAP2 POP POP JUMP JUMPDEST PUSH1 0x0 PUSH1 0x20 DUP3 ADD SWAP1 POP SWAP2 SWAP1 POP JUMP JUMPDEST PUSH1 0x0 PUSH2 0x25AE DUP3 PUSH2 0x2471 JUMP JUMPDEST PUSH2 0x25B8 DUP2 DUP6 PUSH2 0x247C JUMP JUMPDEST SWAP4 POP DUP4 PUSH1 0x20 DUP3 MUL DUP6 ADD PUSH2 0x25CA DUP6 PUSH2 0x248D JUMP JUMPDEST DUP1 PUSH1 0x0 JUMPDEST DUP6 DUP2 LT ISZERO PUSH2 0x2606 JUMPI DUP5 DUP5 SUB DUP10 MSTORE DUP2 MLOAD PUSH2 0x25E7 DUP6 DUP3 PUSH2 0x2582 JUMP JUMPDEST SWAP5 POP PUSH2 0x25F2 DUP4 PUSH2 0x2596 JUMP JUMPDEST SWAP3 POP PUSH1 0x20 DUP11 ADD SWAP10 POP POP PUSH1 0x1 DUP2 ADD SWAP1 POP PUSH2 0x25CE JUMP JUMPDEST POP DUP3 SWAP8 POP DUP8 SWAP6 POP POP POP POP POP POP SWAP3 SWAP2 POP POP JUMP JUMPDEST PUSH1 0x0 PUSH1 0x20 DUP3 ADD SWAP1 POP DUP2 DUP2 SUB PUSH1 0x0 DUP4 ADD MSTORE PUSH2 0x2632 DUP2 DUP5 PUSH2 0x25A3 JUMP JUMPDEST SWAP1 POP SWAP3 SWAP2 POP POP JUMP JUMPDEST PUSH1 0x0 DUP2 MLOAD SWAP1 POP SWAP2 SWAP1 POP JUMP JUMPDEST PUSH1 0x0 DUP3 DUP3 MSTORE PUSH1 0x20 DUP3 ADD SWAP1 POP SWAP3 SWAP2 POP POP JUMP JUMPDEST PUSH1 0x0 DUP2 SWAP1 POP PUSH1 0x20 DUP3 ADD SWAP1 POP SWAP2 SWAP1 POP JUMP JUMPDEST PUSH2 0x266F DUP2 PUSH2 0x22B5 JUMP JUMPDEST DUP3 MSTORE POP POP JUMP JUMPDEST PUSH2 0x267E DUP2 PUSH2 0x22EB JUMP JUMPDEST DUP3 MSTORE POP POP JUMP JUMPDEST PUSH1 0x0 DUP2 ISZERO ISZERO SWAP1 POP SWAP2 SWAP1 POP JUMP JUMPDEST PUSH2 0x2699 DUP2 PUSH2 0x2684 JUMP JUMPDEST DUP3 MSTORE POP POP JUMP JUMPDEST PUSH1 0x0 PUSH2 0x160 DUP4 ADD PUSH1 0x0 DUP4 ADD MLOAD PUSH2 0x26B8 PUSH1 0x0 DUP7 ADD DUP3 PUSH2 0x251C JUMP JUMPDEST POP PUSH1 0x20 DUP4 ADD MLOAD PUSH2 0x26CB PUSH1 0x20 DUP7 ADD DUP3 PUSH2 0x2666 JUMP JUMPDEST POP PUSH1 0x40 DUP4 ADD MLOAD DUP5 DUP3 SUB PUSH1 0x40 DUP7 ADD MSTORE PUSH2 0x26E3 DUP3 DUP3 PUSH2 0x24E3 JUMP JUMPDEST SWAP2 POP POP PUSH1 0x60 DUP4 ADD MLOAD PUSH2 0x26F8 PUSH1 0x60 DUP7 ADD DUP3 PUSH2 0x2675 JUMP JUMPDEST POP PUSH1 0x80 DUP4 ADD MLOAD PUSH2 0x270B PUSH1 0x80 DUP7 ADD DUP3 PUSH2 0x2675 JUMP JUMPDEST POP PUSH1 0xA0 DUP4 ADD MLOAD PUSH2 0x271E PUSH1 0xA0 DUP7 ADD DUP3 PUSH2 0x2666 JUMP JUMPDEST POP PUSH1 0xC0 DUP4 ADD MLOAD DUP5 DUP3 SUB PUSH1 0xC0 DUP7 ADD MSTORE PUSH2 0x2736 DUP3 DUP3 PUSH2 0x24E3 JUMP JUMPDEST SWAP2 POP POP PUSH1 0xE0 DUP4 ADD MLOAD DUP5 DUP3 SUB PUSH1 0xE0 DUP7 ADD MSTORE PUSH2 0x2750 DUP3 DUP3 PUSH2 0x24E3 JUMP JUMPDEST SWAP2 POP POP PUSH2 0x100 DUP4 ADD MLOAD PUSH2 0x2767 PUSH2 0x100 DUP7 ADD DUP3 PUSH2 0x2690 JUMP JUMPDEST POP PUSH2 0x120 DUP4 ADD MLOAD PUSH2 0x277C PUSH2 0x120 DUP7 ADD DUP3 PUSH2 0x2666 JUMP JUMPDEST POP PUSH2 0x140 DUP4 ADD MLOAD PUSH2 0x2791 PUSH2 0x140 DUP7 ADD DUP3 PUSH2 0x2666 JUMP JUMPDEST POP DUP1 SWAP2 POP POP SWAP3 SWAP2 POP POP JUMP JUMPDEST PUSH1 0x0 PUSH2 0x27A8 DUP4 DUP4 PUSH2 0x269F JUMP JUMPDEST SWAP1 POP SWAP3 SWAP2 POP POP JUMP JUMPDEST PUSH1 0x0 PUSH1 0x20 DUP3 ADD SWAP1 POP SWAP2 SWAP1 POP JUMP JUMPDEST PUSH1 0x0 PUSH2 0x27C8 DUP3 PUSH2 0x263A JUMP JUMPDEST PUSH2 0x27D2 DUP2 DUP6 PUSH2 0x2645 JUMP JUMPDEST SWAP4 POP DUP4 PUSH1 0x20 DUP3 MUL DUP6 ADD PUSH2 0x27E4 DUP6 PUSH2 0x2656 JUMP JUMPDEST DUP1 PUSH1 0x0 JUMPDEST DUP6 DUP2 LT ISZERO PUSH2 0x2820 JUMPI DUP5 DUP5 SUB DUP10 MSTORE DUP2 MLOAD PUSH2 0x2801 DUP6 DUP3 PUSH2 0x279C JUMP JUMPDEST SWAP5 POP PUSH2 0x280C DUP4 PUSH2 0x27B0 JUMP JUMPDEST SWAP3 POP PUSH1 0x20 DUP11 ADD SWAP10 POP POP PUSH1 0x1 DUP2 ADD SWAP1 POP PUSH2 0x27E8 JUMP JUMPDEST POP DUP3 SWAP8 POP DUP8 SWAP6 POP POP POP POP POP POP SWAP3 SWAP2 POP POP JUMP JUMPDEST PUSH1 0x0 PUSH1 0x20 DUP3 ADD SWAP1 POP DUP2 DUP2 SUB PUSH1 0x0 DUP4 ADD MSTORE PUSH2 0x284C DUP2 DUP5 PUSH2 0x27BD JUMP JUMPDEST SWAP1 POP SWAP3 SWAP2 POP POP JUMP JUMPDEST PUSH1 0x0 DUP1 PUSH1 0x40 DUP4 DUP6 SUB SLT ISZERO PUSH2 0x286B JUMPI PUSH2 0x286A PUSH2 0x2107 JUMP JUMPDEST JUMPDEST PUSH1 0x0 PUSH2 0x2879 DUP6 DUP3 DUP7 ADD PUSH2 0x215A JUMP JUMPDEST SWAP3 POP POP PUSH1 0x20 PUSH2 0x288A DUP6 DUP3 DUP7 ADD PUSH2 0x22D6 JUMP JUMPDEST SWAP2 POP POP SWAP3 POP SWAP3 SWAP1 POP JUMP JUMPDEST PUSH1 0x0 PUSH1 0x20 DUP3 DUP5 SUB SLT ISZERO PUSH2 0x28AA JUMPI PUSH2 0x28A9 PUSH2 0x2107 JUMP JUMPDEST JUMPDEST PUSH1 0x0 PUSH2 0x28B8 DUP5 DUP3 DUP6 ADD PUSH2 0x215A JUMP JUMPDEST SWAP2 POP POP SWAP3 SWAP2 POP POP JUMP JUMPDEST PUSH1 0x0 DUP1 PUSH1 0x0 PUSH1 0x60 DUP5 DUP7 SUB SLT ISZERO PUSH2 0x28DA JUMPI PUSH2 0x28D9 PUSH2 0x2107 JUMP JUMPDEST JUMPDEST PUSH1 0x0 DUP5 ADD CALLDATALOAD PUSH8 0xFFFFFFFFFFFFFFFF DUP2 GT ISZERO PUSH2 0x28F8 JUMPI PUSH2 0x28F7 PUSH2 0x210C JUMP JUMPDEST JUMPDEST PUSH2 0x2904 DUP7 DUP3 DUP8 ADD PUSH2 0x2287 JUMP JUMPDEST SWAP4 POP POP PUSH1 0x20 PUSH2 0x2915 DUP7 DUP3 DUP8 ADD PUSH2 0x215A JUMP JUMPDEST SWAP3 POP POP PUSH1 0x40 DUP5 ADD CALLDATALOAD PUSH8 0xFFFFFFFFFFFFFFFF DUP2 GT ISZERO PUSH2 0x2936 JUMPI PUSH2 0x2935 PUSH2 0x210C JUMP JUMPDEST JUMPDEST PUSH2 0x2942 DUP7 DUP3 DUP8 ADD PUSH2 0x2287 JUMP JUMPDEST SWAP2 POP POP SWAP3 POP SWAP3 POP SWAP3 JUMP JUMPDEST PUSH1 0x0 DUP1 PUSH1 0x0 PUSH1 0x60 DUP5 DUP7 SUB SLT ISZERO PUSH2 0x2965 JUMPI PUSH2 0x2964 PUSH2 0x2107 JUMP JUMPDEST JUMPDEST PUSH1 0x0 PUSH2 0x2973 DUP7 DUP3 DUP8 ADD PUSH2 0x215A JUMP JUMPDEST SWAP4 POP POP PUSH1 0x20 PUSH2 0x2984 DUP7 DUP3 DUP8 ADD PUSH2 0x22D6 JUMP JUMPDEST SWAP3 POP POP PUSH1 0x40 PUSH2 0x2995 DUP7 DUP3 DUP8 ADD PUSH2 0x2314 JUMP JUMPDEST SWAP2 POP POP SWAP3 POP SWAP3 POP SWAP3 JUMP JUMPDEST PUSH1 0x0 PUSH1 0x20 DUP3 DUP5 SUB SLT ISZERO PUSH2 0x29B5 JUMPI PUSH2 0x29B4 PUSH2 0x2107 JUMP JUMPDEST JUMPDEST PUSH1 0x0 PUSH2 0x29C3 DUP5 DUP3 DUP6 ADD PUSH2 0x22D6 JUMP JUMPDEST SWAP2 POP POP SWAP3 SWAP2 POP POP JUMP JUMPDEST PUSH1 0x0 DUP3 DUP3 MSTORE PUSH1 0x20 DUP3 ADD SWAP1 POP SWAP3 SWAP2 POP POP JUMP JUMPDEST PUSH1 0x0 PUSH2 0x29E8 DUP3 PUSH2 0x249D JUMP JUMPDEST PUSH2 0x29F2 DUP2 DUP6 PUSH2 0x29CC JUMP JUMPDEST SWAP4 POP PUSH2 0x2A02 DUP2 DUP6 PUSH1 0x20 DUP7 ADD PUSH2 0x24B9 JUMP JUMPDEST PUSH2 0x2A0B DUP2 PUSH2 0x2179 JUMP JUMPDEST DUP5 ADD SWAP2 POP POP SWAP3 SWAP2 POP POP JUMP JUMPDEST PUSH2 0x2A1F DUP2 PUSH2 0x2131 JUMP JUMPDEST DUP3 MSTORE POP POP JUMP JUMPDEST PUSH1 0x0 PUSH1 0x60 DUP3 ADD SWAP1 POP DUP2 DUP2 SUB PUSH1 0x0 DUP4 ADD MSTORE PUSH2 0x2A3F DUP2 DUP7 PUSH2 0x29DD JUMP JUMPDEST SWAP1 POP PUSH2 0x2A4E PUSH1 0x20 DUP4 ADD DUP6 PUSH2 0x2A16 JUMP JUMPDEST DUP2 DUP2 SUB PUSH1 0x40 DUP4 ADD MSTORE PUSH2 0x2A60 DUP2 DUP5 PUSH2 0x29DD JUMP JUMPDEST SWAP1 POP SWAP5 SWAP4 POP POP POP POP JUMP JUMPDEST PUSH32 0x416D6F756E74206D757374206265206174206C65617374203120776569000000 PUSH1 0x0 DUP3 ADD MSTORE POP JUMP JUMPDEST PUSH1 0x0 PUSH2 0x2AA0 PUSH1 0x1D DUP4 PUSH2 0x29CC JUMP JUMPDEST SWAP2 POP PUSH2 0x2AAB DUP3 PUSH2 0x2A6A JUMP JUMPDEST PUSH1 0x20 DUP3 ADD SWAP1 POP SWAP2 SWAP1 POP JUMP JUMPDEST PUSH1 0x0 PUSH1 0x20 DUP3 ADD SWAP1 POP DUP2 DUP2 SUB PUSH1 0x0 DUP4 ADD MSTORE PUSH2 0x2ACF DUP2 PUSH2 0x2A93 JUMP JUMPDEST SWAP1 POP SWAP2 SWAP1 POP JUMP JUMPDEST PUSH32 0x4E487B7100000000000000000000000000000000000000000000000000000000 PUSH1 0x0 MSTORE PUSH1 0x22 PUSH1 0x4 MSTORE PUSH1 0x24 PUSH1 0x0 REVERT JUMPDEST PUSH1 0x0 PUSH1 0x2 DUP3 DIV SWAP1 POP PUSH1 0x1 DUP3 AND DUP1 PUSH2 0x2B1D JUMPI PUSH1 0x7F DUP3 AND SWAP2 POP JUMPDEST PUSH1 0x20 DUP3 LT DUP2 SUB PUSH2 0x2B30 JUMPI PUSH2 0x2B2F PUSH2 0x2AD6 JUMP JUMPDEST JUMPDEST POP SWAP2 SWAP1 POP JUMP JUMPDEST PUSH1 0x0 DUP2 SWAP1 POP DUP2 PUSH1 0x0 MSTORE PUSH1 0x20 PUSH1 0x0 KECCAK256 SWAP1 POP SWAP2 SWAP1 POP JUMP JUMPDEST PUSH1 0x0 PUSH1 0x20 PUSH1 0x1F DUP4 ADD DIV SWAP1 POP SWAP2 SWAP1 POP JUMP JUMPDEST PUSH1 0x0 DUP3 DUP3 SHL SWAP1 POP SWAP3 SWAP2 POP POP JUMP JUMPDEST PUSH1 0x0 PUSH1 0x8 DUP4 MUL PUSH2 0x2B98 PUSH32 0xFFFFFFFFFFFFFFFFFFFFFFFFFFFFFFFFFFFFFFFFFFFFFFFFFFFFFFFFFFFFFFFF DUP3 PUSH2 0x2B5B JUMP JUMPDEST PUSH2 0x2BA2 DUP7 DUP4 PUSH2 0x2B5B JUMP JUMPDEST SWAP6 POP DUP1 NOT DUP5 AND SWAP4 POP DUP1 DUP7 AND DUP5 OR SWAP3 POP POP POP SWAP4 SWAP3 POP POP POP JUMP JUMPDEST PUSH1 0x0 DUP2 SWAP1 POP SWAP2 SWAP1 POP JUMP JUMPDEST PUSH1 0x0 PUSH2 0x2BDF PUSH2 0x2BDA PUSH2 0x2BD5 DUP5 PUSH2 0x22B5 JUMP JUMPDEST PUSH2 0x2BBA JUMP JUMPDEST PUSH2 0x22B5 JUMP JUMPDEST SWAP1 POP SWAP2 SWAP1 POP JUMP JUMPDEST PUSH1 0x0 DUP2 SWAP1 POP SWAP2 SWAP1 POP JUMP JUMPDEST PUSH2 0x2BF9 DUP4 PUSH2 0x2BC4 JUMP JUMPDEST PUSH2 0x2C0D PUSH2 0x2C05 DUP3 PUSH2 0x2BE6 JUMP JUMPDEST DUP5 DUP5 SLOAD PUSH2 0x2B68 JUMP JUMPDEST DUP3 SSTORE POP POP POP POP JUMP JUMPDEST PUSH1 0x0 SWAP1 JUMP JUMPDEST PUSH2 0x2C22 PUSH2 0x2C15 JUMP JUMPDEST PUSH2 0x2C2D DUP2 DUP5 DUP5 PUSH2 0x2BF0 JUMP JUMPDEST POP POP POP JUMP JUMPDEST JUMPDEST DUP2 DUP2 LT ISZERO PUSH2 0x2C51 JUMPI PUSH2 0x2C46 PUSH1 0x0 DUP3 PUSH2 0x2C1A JUMP JUMPDEST PUSH1 0x1 DUP2 ADD SWAP1 POP PUSH2 0x2C33 JUMP JUMPDEST POP POP JUMP JUMPDEST PUSH1 0x1F DUP3 GT ISZERO PUSH2 0x2C96 JUMPI PUSH2 0x2C67 DUP2 PUSH2 0x2B36 JUMP JUMPDEST PUSH2 0x2C70 DUP5 PUSH2 0x2B4B JUMP JUMPDEST DUP2 ADD PUSH1 0x20 DUP6 LT ISZERO PUSH2 0x2C7F JUMPI DUP2 SWAP1 POP JUMPDEST PUSH2 0x2C93 PUSH2 0x2C8B DUP6 PUSH2 0x2B4B JUMP JUMPDEST DUP4 ADD DUP3 PUSH2 0x2C32 JUMP JUMPDEST POP POP JUMPDEST POP POP POP JUMP JUMPDEST PUSH1 0x0 DUP3 DUP3 SHR SWAP1 POP SWAP3 SWAP2 POP POP JUMP JUMPDEST PUSH1 0x0 PUSH2 0x2CB9 PUSH1 0x0 NOT DUP5 PUSH1 0x8 MUL PUSH2 0x2C9B JUMP JUMPDEST NOT DUP1 DUP4 AND SWAP2 POP POP SWAP3 SWAP2 POP POP JUMP JUMPDEST PUSH1 0x0 PUSH2 0x2CD2 DUP4 DUP4 PUSH2 0x2CA8 JUMP JUMPDEST SWAP2 POP DUP3 PUSH1 0x2 MUL DUP3 OR SWAP1 POP SWAP3 SWAP2 POP POP JUMP JUMPDEST PUSH2 0x2CEB DUP3 PUSH2 0x249D JUMP JUMPDEST PUSH8 0xFFFFFFFFFFFFFFFF DUP2 GT ISZERO PUSH2 0x2D04 JUMPI PUSH2 0x2D03 PUSH2 0x218A JUMP JUMPDEST JUMPDEST PUSH2 0x2D0E DUP3 SLOAD PUSH2 0x2B05 JUMP JUMPDEST PUSH2 0x2D19 DUP3 DUP3 DUP6 PUSH2 0x2C55 JUMP JUMPDEST PUSH1 0x0 PUSH1 0x20 SWAP1 POP PUSH1 0x1F DUP4 GT PUSH1 0x1 DUP2 EQ PUSH2 0x2D4C JUMPI PUSH1 0x0 DUP5 ISZERO PUSH2 0x2D3A JUMPI DUP3 DUP8 ADD MLOAD SWAP1 POP JUMPDEST PUSH2 0x2D44 DUP6 DUP3 PUSH2 0x2CC6 JUMP JUMPDEST DUP7 SSTORE POP PUSH2 0x2DAC JUMP JUMPDEST PUSH1 0x1F NOT DUP5 AND PUSH2 0x2D5A DUP7 PUSH2 0x2B36 JUMP JUMPDEST PUSH1 0x0 JUMPDEST DUP3 DUP2 LT ISZERO PUSH2 0x2D82 JUMPI DUP5 DUP10 ADD MLOAD DUP3 SSTORE PUSH1 0x1 DUP3 ADD SWAP2 POP PUSH1 0x20 DUP6 ADD SWAP5 POP PUSH1 0x20 DUP2 ADD SWAP1 POP PUSH2 0x2D5D JUMP JUMPDEST DUP7 DUP4 LT ISZERO PUSH2 0x2D9F JUMPI DUP5 DUP10 ADD MLOAD PUSH2 0x2D9B PUSH1 0x1F DUP10 AND DUP3 PUSH2 0x2CA8 JUMP JUMPDEST DUP4 SSTORE POP JUMPDEST PUSH1 0x1 PUSH1 0x2 DUP9 MUL ADD DUP9 SSTORE POP POP POP JUMPDEST POP POP POP POP POP POP JUMP JUMPDEST PUSH2 0x2DBD DUP2 PUSH2 0x22B5 JUMP JUMPDEST DUP3 MSTORE POP POP JUMP JUMPDEST PUSH1 0x0 PUSH2 0x2DDE PUSH2 0x2DD9 PUSH2 0x2DD4 DUP5 PUSH2 0x2111 JUMP JUMPDEST PUSH2 0x2BBA JUMP JUMPDEST PUSH2 0x2111 JUMP JUMPDEST SWAP1 POP SWAP2 SWAP1 POP JUMP JUMPDEST PUSH1 0x0 PUSH2 0x2DF0 DUP3 PUSH2 0x2DC3 JUMP JUMPDEST SWAP1 POP SWAP2 SWAP1 POP JUMP JUMPDEST PUSH1 0x0 PUSH2 0x2E02 DUP3 PUSH2 0x2DE5 JUMP JUMPDEST SWAP1 POP SWAP2 SWAP1 POP JUMP JUMPDEST PUSH2 0x2E12 DUP2 PUSH2 0x2DF7 JUMP JUMPDEST DUP3 MSTORE POP POP JUMP JUMPDEST PUSH1 0x0 PUSH1 0xE0 DUP3 ADD SWAP1 POP PUSH2 0x2E2D PUSH1 0x0 DUP4 ADD DUP11 PUSH2 0x2A16 JUMP JUMPDEST PUSH2 0x2E3A PUSH1 0x20 DUP4 ADD DUP10 PUSH2 0x2DB4 JUMP JUMPDEST DUP2 DUP2 SUB PUSH1 0x40 DUP4 ADD MSTORE PUSH2 0x2E4C DUP2 DUP9 PUSH2 0x29DD JUMP JUMPDEST SWAP1 POP PUSH2 0x2E5B PUSH1 0x60 DUP4 ADD DUP8 PUSH2 0x2E09 JUMP JUMPDEST PUSH2 0x2E68 PUSH1 0x80 DUP4 ADD DUP7 PUSH2 0x2E09 JUMP JUMPDEST PUSH2 0x2E75 PUSH1 0xA0 DUP4 ADD DUP6 PUSH2 0x2DB4 JUMP JUMPDEST DUP2 DUP2 SUB PUSH1 0xC0 DUP4 ADD MSTORE PUSH2 0x2E87 DUP2 DUP5 PUSH2 0x29DD JUMP JUMPDEST SWAP1 POP SWAP9 SWAP8 POP POP POP POP POP POP POP POP JUMP JUMPDEST PUSH32 0x796F752063616E6E6F7420617070726F766520746865207472616E7361637469 PUSH1 0x0 DUP3 ADD MSTORE PUSH32 0x6F6E000000000000000000000000000000000000000000000000000000000000 PUSH1 0x20 DUP3 ADD MSTORE POP JUMP JUMPDEST PUSH1 0x0 PUSH2 0x2EF1 PUSH1 0x22 DUP4 PUSH2 0x29CC JUMP JUMPDEST SWAP2 POP PUSH2 0x2EFC DUP3 PUSH2 0x2E95 JUMP JUMPDEST PUSH1 0x40 DUP3 ADD SWAP1 POP SWAP2 SWAP1 POP JUMP JUMPDEST PUSH1 0x0 PUSH1 0x20 DUP3 ADD SWAP1 POP DUP2 DUP2 SUB PUSH1 0x0 DUP4 ADD MSTORE PUSH2 0x2F20 DUP2 PUSH2 0x2EE4 JUMP JUMPDEST SWAP1 POP SWAP2 SWAP1 POP JUMP JUMPDEST PUSH32 0x616D6F756E74206D757374206265206174206C65617374203120776569000000 PUSH1 0x0 DUP3 ADD MSTORE POP JUMP JUMPDEST PUSH1 0x0 PUSH2 0x2F5D PUSH1 0x1D DUP4 PUSH2 0x29CC JUMP JUMPDEST SWAP2 POP PUSH2 0x2F68 DUP3 PUSH2 0x2F27 JUMP JUMPDEST PUSH1 0x20 DUP3 ADD SWAP1 POP SWAP2 SWAP1 POP JUMP JUMPDEST PUSH1 0x0 PUSH1 0x20 DUP3 ADD SWAP1 POP DUP2 DUP2 SUB PUSH1 0x0 DUP4 ADD MSTORE PUSH2 0x2F8C DUP2 PUSH2 0x2F50 JUMP JUMPDEST SWAP1 POP SWAP2 SWAP1 POP JUMP JUMPDEST PUSH32 0x616D6F756E74206D757374206265206C657373207468616E206F722065717561 PUSH1 0x0 DUP3 ADD MSTORE PUSH32 0x6C20746F207468652076616C7565000000000000000000000000000000000000 PUSH1 0x20 DUP3 ADD MSTORE POP JUMP JUMPDEST PUSH1 0x0 PUSH2 0x2FEF PUSH1 0x2E DUP4 PUSH2 0x29CC JUMP JUMPDEST SWAP2 POP PUSH2 0x2FFA DUP3 PUSH2 0x2F93 JUMP JUMPDEST PUSH1 0x40 DUP3 ADD SWAP1 POP SWAP2 SWAP1 POP JUMP JUMPDEST PUSH1 0x0 PUSH1 0x20 DUP3 ADD SWAP1 POP DUP2 DUP2 SUB PUSH1 0x0 DUP4 ADD MSTORE PUSH2 0x301E DUP2 PUSH2 0x2FE2 JUMP JUMPDEST SWAP1 POP SWAP2 SWAP1 POP JUMP JUMPDEST PUSH32 0x4E487B7100000000000000000000000000000000000000000000000000000000 PUSH1 0x0 MSTORE PUSH1 0x11 PUSH1 0x4 MSTORE PUSH1 0x24 PUSH1 0x0 REVERT JUMPDEST PUSH1 0x0 PUSH2 0x305F DUP3 PUSH2 0x22B5 JUMP JUMPDEST SWAP2 POP PUSH2 0x306A DUP4 PUSH2 0x22B5 JUMP JUMPDEST SWAP3 POP DUP3 DUP3 SUB SWAP1 POP DUP2 DUP2 GT ISZERO PUSH2 0x3082 JUMPI PUSH2 0x3081 PUSH2 0x3025 JUMP JUMPDEST JUMPDEST SWAP3 SWAP2 POP POP JUMP JUMPDEST PUSH1 0x0 DUP2 SLOAD SWAP1 POP PUSH2 0x3097 DUP2 PUSH2 0x2B05 JUMP JUMPDEST SWAP1 POP SWAP2 SWAP1 POP JUMP JUMPDEST DUP2 DUP2 SUB PUSH2 0x30AC JUMPI POP POP PUSH2 0x3184 JUMP JUMPDEST PUSH2 0x30B5 DUP3 PUSH2 0x3088 JUMP JUMPDEST PUSH8 0xFFFFFFFFFFFFFFFF DUP2 GT ISZERO PUSH2 0x30CE JUMPI PUSH2 0x30CD PUSH2 0x218A JUMP JUMPDEST JUMPDEST PUSH2 0x30D8 DUP3 SLOAD PUSH2 0x2B05 JUMP JUMPDEST PUSH2 0x30E3 DUP3 DUP3 DUP6 PUSH2 0x2C55 JUMP JUMPDEST PUSH1 0x0 PUSH1 0x1F DUP4 GT PUSH1 0x1 DUP2 EQ PUSH2 0x3112 JUMPI PUSH1 0x0 DUP5 ISZERO PUSH2 0x3100 JUMPI DUP3 DUP8 ADD SLOAD SWAP1 POP JUMPDEST PUSH2 0x310A DUP6 DUP3 PUSH2 0x2CC6 JUMP JUMPDEST DUP7 SSTORE POP PUSH2 0x317D JUMP JUMPDEST PUSH1 0x1F NOT DUP5 AND PUSH2 0x3120 DUP8 PUSH2 0x2B36 JUMP JUMPDEST SWAP7 POP PUSH2 0x312B DUP7 PUSH2 0x2B36 JUMP JUMPDEST PUSH1 0x0 JUMPDEST DUP3 DUP2 LT ISZERO PUSH2 0x3153 JUMPI DUP5 DUP10 ADD SLOAD DUP3 SSTORE PUSH1 0x1 DUP3 ADD SWAP2 POP PUSH1 0x1 DUP6 ADD SWAP5 POP PUSH1 0x20 DUP2 ADD SWAP1 POP PUSH2 0x312E JUMP JUMPDEST DUP7 DUP4 LT ISZERO PUSH2 0x3170 JUMPI DUP5 DUP10 ADD SLOAD PUSH2 0x316C PUSH1 0x1F DUP10 AND DUP3 PUSH2 0x2CA8 JUMP JUMPDEST DUP4 SSTORE POP JUMPDEST PUSH1 0x1 PUSH1 0x2 DUP9 MUL ADD DUP9 SSTORE POP POP POP JUMPDEST POP POP POP POP POP POP JUMPDEST JUMP JUMPDEST PUSH1 0x0 DUP2 SLOAD PUSH2 0x3193 DUP2 PUSH2 0x2B05 JUMP JUMPDEST PUSH2 0x319D DUP2 DUP7 PUSH2 0x29CC JUMP JUMPDEST SWAP5 POP PUSH1 0x1 DUP3 AND PUSH1 0x0 DUP2 EQ PUSH2 0x31B8 JUMPI PUSH1 0x1 DUP2 EQ PUSH2 0x31CE JUMPI PUSH2 0x3201 JUMP JUMPDEST PUSH1 0xFF NOT DUP4 AND DUP7 MSTORE DUP2 ISZERO ISZERO PUSH1 0x20 MUL DUP7 ADD SWAP4 POP PUSH2 0x3201 JUMP JUMPDEST PUSH2 0x31D7 DUP6 PUSH2 0x2B36 JUMP JUMPDEST PUSH1 0x0 JUMPDEST DUP4 DUP2 LT ISZERO PUSH2 0x31F9 JUMPI DUP2 SLOAD DUP2 DUP10 ADD MSTORE PUSH1 0x1 DUP3 ADD SWAP2 POP PUSH1 0x20 DUP2 ADD SWAP1 POP PUSH2 0x31DA JUMP JUMPDEST DUP1 DUP9 ADD SWAP6 POP POP POP JUMPDEST POP POP POP SWAP3 SWAP2 POP POP JUMP JUMPDEST PUSH1 0x0 PUSH2 0x120 DUP3 ADD SWAP1 POP PUSH2 0x3220 PUSH1 0x0 DUP4 ADD DUP13 PUSH2 0x2A16 JUMP JUMPDEST PUSH2 0x322D PUSH1 0x20 DUP4 ADD DUP12 PUSH2 0x2DB4 JUMP JUMPDEST DUP2 DUP2 SUB PUSH1 0x40 DUP4 ADD MSTORE PUSH2 0x323F DUP2 DUP11 PUSH2 0x3186 JUMP JUMPDEST SWAP1 POP PUSH2 0x324E PUSH1 0x60 DUP4 ADD DUP10 PUSH2 0x2E09 JUMP JUMPDEST PUSH2 0x325B PUSH1 0x80 DUP4 ADD DUP9 PUSH2 0x2E09 JUMP JUMPDEST PUSH2 0x3268 PUSH1 0xA0 DUP4 ADD DUP8 PUSH2 0x2DB4 JUMP JUMPDEST DUP2 DUP2 SUB PUSH1 0xC0 DUP4 ADD MSTORE PUSH2 0x327A DUP2 DUP7 PUSH2 0x3186 JUMP JUMPDEST SWAP1 POP DUP2 DUP2 SUB PUSH1 0xE0 DUP4 ADD MSTORE PUSH2 0x328E DUP2 DUP6 PUSH2 0x29DD JUMP JUMPDEST SWAP1 POP PUSH2 0x329E PUSH2 0x100 DUP4 ADD DUP5 PUSH2 0x2DB4 JUMP JUMPDEST SWAP11 SWAP10 POP POP POP POP POP POP POP POP POP POP JUMP JUMPDEST PUSH1 0x0 DUP2 MLOAD SWAP1 POP SWAP2 SWAP1 POP JUMP JUMPDEST PUSH1 0x0 DUP2 SWAP1 POP PUSH1 0x20 DUP3 ADD SWAP1 POP SWAP2 SWAP1 POP JUMP JUMPDEST PUSH1 0x0 PUSH32 0xFFFFFFFFFFFFFFFFFFFFFFFFFFFFFFFFFFFFFFFF000000000000000000000000 DUP3 AND SWAP1 POP SWAP2 SWAP1 POP JUMP JUMPDEST PUSH1 0x0 PUSH2 0x32FF DUP3 MLOAD PUSH2 0x32C7 JUMP JUMPDEST DUP1 SWAP2 POP POP SWAP2 SWAP1 POP JUMP JUMPDEST PUSH1 0x0 PUSH2 0x3313 DUP3 PUSH2 0x32AC JUMP JUMPDEST DUP3 PUSH2 0x331D DUP5 PUSH2 0x32B7 JUMP JUMPDEST SWAP1 POP PUSH2 0x3328 DUP2 PUSH2 0x32F3 JUMP JUMPDEST SWAP3 POP PUSH1 0x14 DUP3 LT ISZERO PUSH2 0x3368 JUMPI PUSH2 0x3363 PUSH32 0xFFFFFFFFFFFFFFFFFFFFFFFFFFFFFFFFFFFFFFFF000000000000000000000000 DUP4 PUSH1 0x14 SUB PUSH1 0x8 MUL PUSH2 0x2B5B JUMP JUMPDEST DUP4 AND SWAP3 POP JUMPDEST POP POP SWAP2 SWAP1 POP JUMP JUMPDEST PUSH1 0x0 PUSH1 0x60 DUP3 ADD SWAP1 POP PUSH2 0x3384 PUSH1 0x0 DUP4 ADD DUP7 PUSH2 0x2E09 JUMP JUMPDEST PUSH2 0x3391 PUSH1 0x20 DUP4 ADD DUP6 PUSH2 0x2A16 JUMP JUMPDEST PUSH2 0x339E PUSH1 0x40 DUP4 ADD DUP5 PUSH2 0x2DB4 JUMP JUMPDEST SWAP5 SWAP4 POP POP POP POP JUMP JUMPDEST PUSH1 0x0 PUSH2 0x33B1 DUP3 PUSH2 0x22B5 JUMP JUMPDEST SWAP2 POP PUSH2 0x33BC DUP4 PUSH2 0x22B5 JUMP JUMPDEST SWAP3 POP DUP3 DUP3 ADD SWAP1 POP DUP1 DUP3 GT ISZERO PUSH2 0x33D4 JUMPI PUSH2 0x33D3 PUSH2 0x3025 JUMP JUMPDEST JUMPDEST SWAP3 SWAP2 POP POP JUMP JUMPDEST PUSH1 0x0 PUSH2 0x33E5 DUP3 PUSH2 0x22B5 JUMP JUMPDEST SWAP2 POP PUSH32 0xFFFFFFFFFFFFFFFFFFFFFFFFFFFFFFFFFFFFFFFFFFFFFFFFFFFFFFFFFFFFFFFF DUP3 SUB PUSH2 0x3417 JUMPI PUSH2 0x3416 PUSH2 0x3025 JUMP JUMPDEST JUMPDEST PUSH1 0x1 DUP3 ADD SWAP1 POP SWAP2 SWAP1 POP JUMP JUMPDEST PUSH32 0x4E487B7100000000000000000000000000000000000000000000000000000000 PUSH1 0x0 MSTORE PUSH1 0x32 PUSH1 0x4 MSTORE PUSH1 0x24 PUSH1 0x0 REVERT JUMPDEST PUSH32 0x796F752063616E6E6F742063616E63656C20746865207472616E73616374696F PUSH1 0x0 DUP3 ADD MSTORE PUSH32 0x6E00000000000000000000000000000000000000000000000000000000000000 PUSH1 0x20 DUP3 ADD MSTORE POP JUMP JUMPDEST PUSH1 0x0 PUSH2 0x34AD PUSH1 0x21 DUP4 PUSH2 0x29CC JUMP JUMPDEST SWAP2 POP PUSH2 0x34B8 DUP3 PUSH2 0x3451 JUMP JUMPDEST PUSH1 0x40 DUP3 ADD SWAP1 POP SWAP2 SWAP1 POP JUMP JUMPDEST PUSH1 0x0 PUSH1 0x20 DUP3 ADD SWAP1 POP DUP2 DUP2 SUB PUSH1 0x0 DUP4 ADD MSTORE PUSH2 0x34DC DUP2 PUSH2 0x34A0 JUMP JUMPDEST SWAP1 POP SWAP2 SWAP1 POP JUMP JUMPDEST PUSH32 0x53746F726520616C726561647920657869737473000000000000000000000000 PUSH1 0x0 DUP3 ADD MSTORE POP JUMP JUMPDEST PUSH1 0x0 PUSH2 0x3519 PUSH1 0x14 DUP4 PUSH2 0x29CC JUMP JUMPDEST SWAP2 POP PUSH2 0x3524 DUP3 PUSH2 0x34E3 JUMP JUMPDEST PUSH1 0x20 DUP3 ADD SWAP1 POP SWAP2 SWAP1 POP JUMP JUMPDEST PUSH1 0x0 PUSH1 0x20 DUP3 ADD SWAP1 POP DUP2 DUP2 SUB PUSH1 0x0 DUP4 ADD MSTORE PUSH2 0x3548 DUP2 PUSH2 0x350C JUMP JUMPDEST SWAP1 POP SWAP2 SWAP1 POP JUMP JUMPDEST PUSH32 0x796F752063616E6E6F74207472616E7366657220746865206E66740000000000 PUSH1 0x0 DUP3 ADD MSTORE POP JUMP JUMPDEST PUSH1 0x0 PUSH2 0x3585 PUSH1 0x1B DUP4 PUSH2 0x29CC JUMP JUMPDEST SWAP2 POP PUSH2 0x3590 DUP3 PUSH2 0x354F JUMP JUMPDEST PUSH1 0x20 DUP3 ADD SWAP1 POP SWAP2 SWAP1 POP JUMP JUMPDEST PUSH1 0x0 PUSH1 0x20 DUP3 ADD SWAP1 POP DUP2 DUP2 SUB PUSH1 0x0 DUP4 ADD MSTORE PUSH2 0x35B4 DUP2 PUSH2 0x3578 JUMP JUMPDEST SWAP1 POP SWAP2 SWAP1 POP JUMP JUMPDEST PUSH1 0x0 PUSH1 0x60 DUP3 ADD SWAP1 POP PUSH2 0x35D0 PUSH1 0x0 DUP4 ADD DUP7 PUSH2 0x2E09 JUMP JUMPDEST PUSH2 0x35DD PUSH1 0x20 DUP4 ADD DUP6 PUSH2 0x2E09 JUMP JUMPDEST PUSH2 0x35EA PUSH1 0x40 DUP4 ADD DUP5 PUSH2 0x2DB4 JUMP JUMPDEST SWAP5 SWAP4 POP POP POP POP JUMP JUMPDEST PUSH32 0x5265656E7472616E637947756172643A207265656E7472616E742063616C6C00 PUSH1 0x0 DUP3 ADD MSTORE POP JUMP JUMPDEST PUSH1 0x0 PUSH2 0x3628 PUSH1 0x1F DUP4 PUSH2 0x29CC JUMP JUMPDEST SWAP2 POP PUSH2 0x3633 DUP3 PUSH2 0x35F2 JUMP JUMPDEST PUSH1 0x20 DUP3 ADD SWAP1 POP SWAP2 SWAP1 POP JUMP JUMPDEST PUSH1 0x0 PUSH1 0x20 DUP3 ADD SWAP1 POP DUP2 DUP2 SUB PUSH1 0x0 DUP4 ADD MSTORE PUSH2 0x3657 DUP2 PUSH2 0x361B JUMP JUMPDEST SWAP1 POP SWAP2 SWAP1 POP JUMP INVALID ADDRESS PUSH25 0x30303030303030303030303030303030303030303030303030 ADDRESS ADDRESS ADDRESS ADDRESS ADDRESS ADDRESS ADDRESS ADDRESS ADDRESS ADDRESS ADDRESS ADDRESS ADDRESS ADDRESS ADDRESS LOG2 PUSH5 0x6970667358 0x22 SLT KECCAK256 DUP2 0xD 0xDC MSIZE SWAP7 GASPRICE JUMPDEST 0x4B ADDMOD ISZERO 0xB8 EXTCODESIZE 0xFC 0x5D PUSH3 0xB88260 0xE0 EXTCODESIZE DUP5 0xC1 DUP16 0xB2 0xD6 EXTCODECOPY 0xE SLT PUSH32 0x5341DA64736F6C63430008130033000000000000000000000000000000000000 "},"methodIdentifiers":{"addStore(string,address,string)":"c8883e44","approveTransaction(address,uint256,uint256,string)":"8252dda3","cancelTransaction(address,uint256)":"a86658ab","getAllStores()":"8b4bd105","getMyTransactions()":"97e4ca70","getStoreTransactions(address)":"b44a8cea","initTransaction(address,string,uint256,uint256,address,string)":"535dd68b","stores(uint256)":"e8a59cd8","transferNFT(address,uint256,address)":"d2f0922a"}}}}}