{
  "_format": "hh-sol-artifact-1",
  "contractName": "Walley",
  "sourceName": "contracts/Walley.sol",
  "abi": [
    {
      "inputs": [
        {
          "internalType": "address",
          "name": "_marketplaceContract",
          "type": "address"
        }
      ],
      "stateMutability": "nonpayable",
      "type": "constructor"
    },
    {
      "anonymous": false,
      "inputs": [
        {
          "indexed": true,
          "internalType": "address",
          "name": "owner",
          "type": "address"
        },
        {
          "indexed": true,
          "internalType": "address",
          "name": "approved",
          "type": "address"
        },
        {
          "indexed": true,
          "internalType": "uint256",
          "name": "tokenId",
          "type": "uint256"
        }
      ],
      "name": "Approval",
      "type": "event"
    },
    {
      "anonymous": false,
      "inputs": [
        {
          "indexed": true,
          "internalType": "address",
          "name": "owner",
          "type": "address"
        },
        {
          "indexed": true,
          "internalType": "address",
          "name": "operator",
          "type": "address"
        },
        {
          "indexed": false,
          "internalType": "bool",
          "name": "approved",
          "type": "bool"
        }
      ],
      "name": "ApprovalForAll",
      "type": "event"
    },
    {
      "anonymous": false,
      "inputs": [
        {
          "indexed": false,
          "internalType": "uint256",
          "name": "_fromTokenId",
          "type": "uint256"
        },
        {
          "indexed": false,
          "internalType": "uint256",
          "name": "_toTokenId",
          "type": "uint256"
        }
      ],
      "name": "BatchMetadataUpdate",
      "type": "event"
    },
    {
      "anonymous": false,
      "inputs": [
        {
          "indexed": false,
          "internalType": "uint256",
          "name": "_tokenId",
          "type": "uint256"
        }
      ],
      "name": "MetadataUpdate",
      "type": "event"
    },
    {
      "anonymous": false,
      "inputs": [
        {
          "indexed": false,
          "internalType": "uint256",
          "name": "",
          "type": "uint256"
        }
      ],
      "name": "NFTMinted",
      "type": "event"
    },
    {
      "anonymous": false,
      "inputs": [
        {
          "indexed": true,
          "internalType": "address",
          "name": "from",
          "type": "address"
        },
        {
          "indexed": true,
          "internalType": "address",
          "name": "to",
          "type": "address"
        },
        {
          "indexed": true,
          "internalType": "uint256",
          "name": "tokenId",
          "type": "uint256"
        }
      ],
      "name": "Transfer",
      "type": "event"
    },
    {
      "inputs": [
        {
          "internalType": "address",
          "name": "to",
          "type": "address"
        },
        {
          "internalType": "uint256",
          "name": "tokenId",
          "type": "uint256"
        }
      ],
      "name": "approve",
      "outputs": [],
      "stateMutability": "nonpayable",
      "type": "function"
    },
    {
      "inputs": [
        {
          "internalType": "address",
          "name": "owner",
          "type": "address"
        }
      ],
      "name": "balanceOf",
      "outputs": [
        {
          "internalType": "uint256",
          "name": "",
          "type": "uint256"
        }
      ],
      "stateMutability": "view",
      "type": "function"
    },
    {
      "inputs": [
        {
          "internalType": "uint256",
          "name": "tokenId",
          "type": "uint256"
        },
        {
          "internalType": "string",
          "name": "password",
          "type": "string"
        }
      ],
      "name": "checkPassword",
      "outputs": [
        {
          "internalType": "bool",
          "name": "",
          "type": "bool"
        }
      ],
      "stateMutability": "view",
      "type": "function"
    },
    {
      "inputs": [
        {
          "internalType": "uint256",
          "name": "tokenId",
          "type": "uint256"
        }
      ],
      "name": "getApproved",
      "outputs": [
        {
          "internalType": "address",
          "name": "",
          "type": "address"
        }
      ],
      "stateMutability": "view",
      "type": "function"
    },
    {
      "inputs": [
        {
          "internalType": "address",
          "name": "owner",
          "type": "address"
        },
        {
          "internalType": "address",
          "name": "operator",
          "type": "address"
        }
      ],
      "name": "isApprovedForAll",
      "outputs": [
        {
          "internalType": "bool",
          "name": "",
          "type": "bool"
        }
      ],
      "stateMutability": "view",
      "type": "function"
    },
    {
      "inputs": [
        {
          "internalType": "string",
          "name": "password",
          "type": "string"
        }
      ],
      "name": "mint",
      "outputs": [],
      "stateMutability": "nonpayable",
      "type": "function"
    },
    {
      "inputs": [],
      "name": "name",
      "outputs": [
        {
          "internalType": "string",
          "name": "",
          "type": "string"
        }
      ],
      "stateMutability": "view",
      "type": "function"
    },
    {
      "inputs": [
        {
          "internalType": "uint256",
          "name": "tokenId",
          "type": "uint256"
        }
      ],
      "name": "ownerOf",
      "outputs": [
        {
          "internalType": "address",
          "name": "",
          "type": "address"
        }
      ],
      "stateMutability": "view",
      "type": "function"
    },
    {
      "inputs": [
        {
          "internalType": "address",
          "name": "from",
          "type": "address"
        },
        {
          "internalType": "address",
          "name": "to",
          "type": "address"
        },
        {
          "internalType": "uint256",
          "name": "tokenId",
          "type": "uint256"
        }
      ],
      "name": "safeTransferFrom",
      "outputs": [],
      "stateMutability": "nonpayable",
      "type": "function"
    },
    {
      "inputs": [
        {
          "internalType": "address",
          "name": "from",
          "type": "address"
        },
        {
          "internalType": "address",
          "name": "to",
          "type": "address"
        },
        {
          "internalType": "uint256",
          "name": "tokenId",
          "type": "uint256"
        },
        {
          "internalType": "bytes",
          "name": "data",
          "type": "bytes"
        }
      ],
      "name": "safeTransferFrom",
      "outputs": [],
      "stateMutability": "nonpayable",
      "type": "function"
    },
    {
      "inputs": [
        {
          "internalType": "address",
          "name": "operator",
          "type": "address"
        },
        {
          "internalType": "bool",
          "name": "approved",
          "type": "bool"
        }
      ],
      "name": "setApprovalForAll",
      "outputs": [],
      "stateMutability": "nonpayable",
      "type": "function"
    },
    {
      "inputs": [
        {
          "internalType": "bytes4",
          "name": "interfaceId",
          "type": "bytes4"
        }
      ],
      "name": "supportsInterface",
      "outputs": [
        {
          "internalType": "bool",
          "name": "",
          "type": "bool"
        }
      ],
      "stateMutability": "view",
      "type": "function"
    },
    {
      "inputs": [],
      "name": "symbol",
      "outputs": [
        {
          "internalType": "string",
          "name": "",
          "type": "string"
        }
      ],
      "stateMutability": "view",
      "type": "function"
    },
    {
      "inputs": [
        {
          "internalType": "uint256",
          "name": "tokenId",
          "type": "uint256"
        }
      ],
      "name": "tokenURI",
      "outputs": [
        {
          "internalType": "string",
          "name": "",
          "type": "string"
        }
      ],
      "stateMutability": "view",
      "type": "function"
    },
    {
      "inputs": [
        {
          "internalType": "address",
          "name": "from",
          "type": "address"
        },
        {
          "internalType": "address",
          "name": "to",
          "type": "address"
        },
        {
          "internalType": "uint256",
          "name": "tokenId",
          "type": "uint256"
        }
      ],
      "name": "transferFrom",
      "outputs": [],
      "stateMutability": "nonpayable",
      "type": "function"
    }
  ],
  "bytecode": "0x60806040523480156200001157600080fd5b50604051620031343803806200313483398181016040528101906200003791906200017b565b6040518060400160405280600681526020017f57616c6c657900000000000000000000000000000000000000000000000000008152506040518060400160405280600381526020017f574c4c00000000000000000000000000000000000000000000000000000000008152508160009081620000b4919062000427565b508060019081620000c6919062000427565b50505080600860006101000a81548173ffffffffffffffffffffffffffffffffffffffff021916908373ffffffffffffffffffffffffffffffffffffffff160217905550506200050e565b600080fd5b600073ffffffffffffffffffffffffffffffffffffffff82169050919050565b6000620001438262000116565b9050919050565b620001558162000136565b81146200016157600080fd5b50565b60008151905062000175816200014a565b92915050565b60006020828403121562000194576200019362000111565b5b6000620001a48482850162000164565b91505092915050565b600081519050919050565b7f4e487b7100000000000000000000000000000000000000000000000000000000600052604160045260246000fd5b7f4e487b7100000000000000000000000000000000000000000000000000000000600052602260045260246000fd5b600060028204905060018216806200022f57607f821691505b602082108103620002455762000244620001e7565b5b50919050565b60008190508160005260206000209050919050565b60006020601f8301049050919050565b600082821b905092915050565b600060088302620002af7fffffffffffffffffffffffffffffffffffffffffffffffffffffffffffffffff8262000270565b620002bb868362000270565b95508019841693508086168417925050509392505050565b6000819050919050565b6000819050919050565b60006200030862000302620002fc84620002d3565b620002dd565b620002d3565b9050919050565b6000819050919050565b6200032483620002e7565b6200033c62000333826200030f565b8484546200027d565b825550505050565b600090565b6200035362000344565b6200036081848462000319565b505050565b5b8181101562000388576200037c60008262000349565b60018101905062000366565b5050565b601f821115620003d757620003a1816200024b565b620003ac8462000260565b81016020851015620003bc578190505b620003d4620003cb8562000260565b83018262000365565b50505b505050565b600082821c905092915050565b6000620003fc60001984600802620003dc565b1980831691505092915050565b6000620004178383620003e9565b9150826002028217905092915050565b6200043282620001ad565b67ffffffffffffffff8111156200044e576200044d620001b8565b5b6200045a825462000216565b620004678282856200038c565b600060209050601f8311600181146200049f57600084156200048a578287015190505b62000496858262000409565b86555062000506565b601f198416620004af866200024b565b60005b82811015620004d957848901518255600182019150602085019450602081019050620004b2565b86831015620004f95784890151620004f5601f891682620003e9565b8355505b6001600288020188555050505b505050505050565b612c16806200051e6000396000f3fe608060405234801561001057600080fd5b50600436106100f55760003560e01c80636794631011610097578063b88d4fde11610066578063b88d4fde14610296578063c87b56dd146102b2578063d85d3d27146102e2578063e985e9c5146102fe576100f5565b806367946310146101fc57806370a082311461022c57806395d89b411461025c578063a22cb4651461027a576100f5565b8063095ea7b3116100d3578063095ea7b31461017857806323b872dd1461019457806342842e0e146101b05780636352211e146101cc576100f5565b806301ffc9a7146100fa57806306fdde031461012a578063081812fc14610148575b600080fd5b610114600480360381019061010f9190611b37565b61032e565b6040516101219190611b7f565b60405180910390f35b61013261038f565b60405161013f9190611c2a565b60405180910390f35b610162600480360381019061015d9190611c82565b610421565b60405161016f9190611cf0565b60405180910390f35b610192600480360381019061018d9190611d37565b610467565b005b6101ae60048036038101906101a99190611d77565b61057e565b005b6101ca60048036038101906101c59190611d77565b6105de565b005b6101e660048036038101906101e19190611c82565b6105fe565b6040516101f39190611cf0565b60405180910390f35b61021660048036038101906102119190611eff565b610684565b6040516102239190611b7f565b60405180910390f35b61024660048036038101906102419190611f5b565b61077d565b6040516102539190611f97565b60405180910390f35b610264610834565b6040516102719190611c2a565b60405180910390f35b610294600480360381019061028f9190611fde565b6108c6565b005b6102b060048036038101906102ab91906120bf565b6108dc565b005b6102cc60048036038101906102c79190611c82565b61093e565b6040516102d99190611c2a565b60405180910390f35b6102fc60048036038101906102f79190612142565b610a50565b005b6103186004803603810190610313919061218b565b610afb565b6040516103259190611b7f565b60405180910390f35b6000634906490660e01b7bffffffffffffffffffffffffffffffffffffffffffffffffffffffff1916827bffffffffffffffffffffffffffffffffffffffffffffffffffffffff19161480610388575061038782610b8f565b5b9050919050565b60606000805461039e906121fa565b80601f01602080910402602001604051908101604052809291908181526020018280546103ca906121fa565b80156104175780601f106103ec57610100808354040283529160200191610417565b820191906000526020600020905b8154815290600101906020018083116103fa57829003601f168201915b5050505050905090565b600061042c82610c71565b6004600083815260200190815260200160002060009054906101000a900473ffffffffffffffffffffffffffffffffffffffff169050919050565b6000610472826105fe565b90508073ffffffffffffffffffffffffffffffffffffffff168373ffffffffffffffffffffffffffffffffffffffff16036104e2576040517f08c379a00000000000000000000000000000000000000000000000000000000081526004016104d99061229d565b60405180910390fd5b8073ffffffffffffffffffffffffffffffffffffffff16610501610cbc565b73ffffffffffffffffffffffffffffffffffffffff161480610530575061052f8161052a610cbc565b610afb565b5b61056f576040517f08c379a00000000000000000000000000000000000000000000000000000000081526004016105669061232f565b60405180910390fd5b6105798383610cc4565b505050565b61058f610589610cbc565b82610d7d565b6105ce576040517f08c379a00000000000000000000000000000000000000000000000000000000081526004016105c5906123c1565b60405180910390fd5b6105d9838383610e12565b505050565b6105f9838383604051806020016040528060008152506108dc565b505050565b60008061060a8361110b565b9050600073ffffffffffffffffffffffffffffffffffffffff168173ffffffffffffffffffffffffffffffffffffffff160361067b576040517f08c379a00000000000000000000000000000000000000000000000000000000081526004016106729061242d565b60405180910390fd5b80915050919050565b6000806009600085815260200190815260200160002080546106a5906121fa565b80601f01602080910402602001604051908101604052809291908181526020018280546106d1906121fa565b801561071e5780601f106106f35761010080835404028352916020019161071e565b820191906000526020600020905b81548152906001019060200180831161070157829003601f168201915b50505050509050826040516020016107369190612489565b604051602081830303815290604052805190602001208160405160200161075d9190612489565b604051602081830303815290604052805190602001201491505092915050565b60008073ffffffffffffffffffffffffffffffffffffffff168273ffffffffffffffffffffffffffffffffffffffff16036107ed576040517f08c379a00000000000000000000000000000000000000000000000000000000081526004016107e490612512565b60405180910390fd5b600360008373ffffffffffffffffffffffffffffffffffffffff1673ffffffffffffffffffffffffffffffffffffffff168152602001908152602001600020549050919050565b606060018054610843906121fa565b80601f016020809104026020016040519081016040528092919081815260200182805461086f906121fa565b80156108bc5780601f10610891576101008083540402835291602001916108bc565b820191906000526020600020905b81548152906001019060200180831161089f57829003601f168201915b5050505050905090565b6108d86108d1610cbc565b8383611148565b5050565b6108ed6108e7610cbc565b83610d7d565b61092c576040517f08c379a0000000000000000000000000000000000000000000000000000000008152600401610923906123c1565b60405180910390fd5b610938848484846112b4565b50505050565b606061094982610c71565b6000600660008481526020019081526020016000208054610969906121fa565b80601f0160208091040260200160405190810160405280929190818152602001828054610995906121fa565b80156109e25780601f106109b7576101008083540402835291602001916109e2565b820191906000526020600020905b8154815290600101906020018083116109c557829003601f168201915b5050505050905060006109f3611310565b90506000815103610a08578192505050610a4b565b600082511115610a3d578082604051602001610a25929190612532565b60405160208183030381529060405292505050610a4b565b610a4684611327565b925050505b919050565b610a5a600761138f565b6000610a6660076113a5565b9050610a7233826113b3565b81600960008381526020019081526020016000209081610a929190612702565b50610ac0600860009054906101000a900473ffffffffffffffffffffffffffffffffffffffff1660016108c6565b7fd9dc24857f317ed9abbbb42e920ede0104231eb1d3d70236a74887ffaf15986881604051610aef9190611f97565b60405180910390a15050565b6000600560008473ffffffffffffffffffffffffffffffffffffffff1673ffffffffffffffffffffffffffffffffffffffff16815260200190815260200160002060008373ffffffffffffffffffffffffffffffffffffffff1673ffffffffffffffffffffffffffffffffffffffff16815260200190815260200160002060009054906101000a900460ff16905092915050565b60007f80ac58cd000000000000000000000000000000000000000000000000000000007bffffffffffffffffffffffffffffffffffffffffffffffffffffffff1916827bffffffffffffffffffffffffffffffffffffffffffffffffffffffff19161480610c5a57507f5b5e139f000000000000000000000000000000000000000000000000000000007bffffffffffffffffffffffffffffffffffffffffffffffffffffffff1916827bffffffffffffffffffffffffffffffffffffffffffffffffffffffff1916145b80610c6a5750610c69826113d1565b5b9050919050565b610c7a8161143b565b610cb9576040517f08c379a0000000000000000000000000000000000000000000000000000000008152600401610cb09061242d565b60405180910390fd5b50565b600033905090565b816004600083815260200190815260200160002060006101000a81548173ffffffffffffffffffffffffffffffffffffffff021916908373ffffffffffffffffffffffffffffffffffffffff160217905550808273ffffffffffffffffffffffffffffffffffffffff16610d37836105fe565b73ffffffffffffffffffffffffffffffffffffffff167f8c5be1e5ebec7d5bd14f71427d1e84f3dd0314c0f7b2291e5b200ac8c7c3b92560405160405180910390a45050565b600080610d89836105fe565b90508073ffffffffffffffffffffffffffffffffffffffff168473ffffffffffffffffffffffffffffffffffffffff161480610dcb5750610dca8185610afb565b5b80610e0957508373ffffffffffffffffffffffffffffffffffffffff16610df184610421565b73ffffffffffffffffffffffffffffffffffffffff16145b91505092915050565b8273ffffffffffffffffffffffffffffffffffffffff16610e32826105fe565b73ffffffffffffffffffffffffffffffffffffffff1614610e88576040517f08c379a0000000000000000000000000000000000000000000000000000000008152600401610e7f90612846565b60405180910390fd5b600073ffffffffffffffffffffffffffffffffffffffff168273ffffffffffffffffffffffffffffffffffffffff1603610ef7576040517f08c379a0000000000000000000000000000000000000000000000000000000008152600401610eee906128d8565b60405180910390fd5b610f04838383600161147c565b8273ffffffffffffffffffffffffffffffffffffffff16610f24826105fe565b73ffffffffffffffffffffffffffffffffffffffff1614610f7a576040517f08c379a0000000000000000000000000000000000000000000000000000000008152600401610f7190612846565b60405180910390fd5b6004600082815260200190815260200160002060006101000a81549073ffffffffffffffffffffffffffffffffffffffff02191690556001600360008573ffffffffffffffffffffffffffffffffffffffff1673ffffffffffffffffffffffffffffffffffffffff168152602001908152602001600020600082825403925050819055506001600360008473ffffffffffffffffffffffffffffffffffffffff1673ffffffffffffffffffffffffffffffffffffffff16815260200190815260200160002060008282540192505081905550816002600083815260200190815260200160002060006101000a81548173ffffffffffffffffffffffffffffffffffffffff021916908373ffffffffffffffffffffffffffffffffffffffff160217905550808273ffffffffffffffffffffffffffffffffffffffff168473ffffffffffffffffffffffffffffffffffffffff167fddf252ad1be2c89b69c2b068fc378daa952ba7f163c4a11628f55a4df523b3ef60405160405180910390a46111068383836001611482565b505050565b60006002600083815260200190815260200160002060009054906101000a900473ffffffffffffffffffffffffffffffffffffffff169050919050565b8173ffffffffffffffffffffffffffffffffffffffff168373ffffffffffffffffffffffffffffffffffffffff16036111b6576040517f08c379a00000000000000000000000000000000000000000000000000000000081526004016111ad90612944565b60405180910390fd5b80600560008573ffffffffffffffffffffffffffffffffffffffff1673ffffffffffffffffffffffffffffffffffffffff16815260200190815260200160002060008473ffffffffffffffffffffffffffffffffffffffff1673ffffffffffffffffffffffffffffffffffffffff16815260200190815260200160002060006101000a81548160ff0219169083151502179055508173ffffffffffffffffffffffffffffffffffffffff168373ffffffffffffffffffffffffffffffffffffffff167f17307eab39ab6107e8899845ad3d59bd9653f200f220920489ca2b5937696c31836040516112a79190611b7f565b60405180910390a3505050565b6112bf848484610e12565b6112cb84848484611488565b61130a576040517f08c379a0000000000000000000000000000000000000000000000000000000008152600401611301906129d6565b60405180910390fd5b50505050565b606060405180602001604052806000815250905090565b606061133282610c71565b600061133c611310565b9050600081511161135c5760405180602001604052806000815250611387565b806113668461160f565b604051602001611377929190612532565b6040516020818303038152906040525b915050919050565b6001816000016000828254019250508190555050565b600081600001549050919050565b6113cd8282604051806020016040528060008152506116dd565b5050565b60007f01ffc9a7000000000000000000000000000000000000000000000000000000007bffffffffffffffffffffffffffffffffffffffffffffffffffffffff1916827bffffffffffffffffffffffffffffffffffffffffffffffffffffffff1916149050919050565b60008073ffffffffffffffffffffffffffffffffffffffff1661145d8361110b565b73ffffffffffffffffffffffffffffffffffffffff1614159050919050565b50505050565b50505050565b60006114a98473ffffffffffffffffffffffffffffffffffffffff16611738565b15611602578373ffffffffffffffffffffffffffffffffffffffff1663150b7a026114d2610cbc565b8786866040518563ffffffff1660e01b81526004016114f49493929190612a4b565b6020604051808303816000875af192505050801561153057506040513d601f19601f8201168201806040525081019061152d9190612aac565b60015b6115b2573d8060008114611560576040519150601f19603f3d011682016040523d82523d6000602084013e611565565b606091505b5060008151036115aa576040517f08c379a00000000000000000000000000000000000000000000000000000000081526004016115a1906129d6565b60405180910390fd5b805181602001fd5b63150b7a0260e01b7bffffffffffffffffffffffffffffffffffffffffffffffffffffffff1916817bffffffffffffffffffffffffffffffffffffffffffffffffffffffff191614915050611607565b600190505b949350505050565b60606000600161161e8461175b565b01905060008167ffffffffffffffff81111561163d5761163c611dd4565b5b6040519080825280601f01601f19166020018201604052801561166f5781602001600182028036833780820191505090505b509050600082602001820190505b6001156116d2578080600190039150507f3031323334353637383961626364656600000000000000000000000000000000600a86061a8153600a85816116c6576116c5612ad9565b5b0494506000850361167d575b819350505050919050565b6116e783836118ae565b6116f46000848484611488565b611733576040517f08c379a000000000000000000000000000000000000000000000000000000000815260040161172a906129d6565b60405180910390fd5b505050565b6000808273ffffffffffffffffffffffffffffffffffffffff163b119050919050565b600080600090507a184f03e93ff9f4daa797ed6e38ed64bf6a1f01000000000000000083106117b9577a184f03e93ff9f4daa797ed6e38ed64bf6a1f01000000000000000083816117af576117ae612ad9565b5b0492506040810190505b6d04ee2d6d415b85acef810000000083106117f6576d04ee2d6d415b85acef810000000083816117ec576117eb612ad9565b5b0492506020810190505b662386f26fc10000831061182557662386f26fc10000838161181b5761181a612ad9565b5b0492506010810190505b6305f5e100831061184e576305f5e100838161184457611843612ad9565b5b0492506008810190505b612710831061187357612710838161186957611868612ad9565b5b0492506004810190505b60648310611896576064838161188c5761188b612ad9565b5b0492506002810190505b600a83106118a5576001810190505b80915050919050565b600073ffffffffffffffffffffffffffffffffffffffff168273ffffffffffffffffffffffffffffffffffffffff160361191d576040517f08c379a000000000000000000000000000000000000000000000000000000000815260040161191490612b54565b60405180910390fd5b6119268161143b565b15611966576040517f08c379a000000000000000000000000000000000000000000000000000000000815260040161195d90612bc0565b60405180910390fd5b61197460008383600161147c565b61197d8161143b565b156119bd576040517f08c379a00000000000000000000000000000000000000000000000000000000081526004016119b490612bc0565b60405180910390fd5b6001600360008473ffffffffffffffffffffffffffffffffffffffff1673ffffffffffffffffffffffffffffffffffffffff16815260200190815260200160002060008282540192505081905550816002600083815260200190815260200160002060006101000a81548173ffffffffffffffffffffffffffffffffffffffff021916908373ffffffffffffffffffffffffffffffffffffffff160217905550808273ffffffffffffffffffffffffffffffffffffffff16600073ffffffffffffffffffffffffffffffffffffffff167fddf252ad1be2c89b69c2b068fc378daa952ba7f163c4a11628f55a4df523b3ef60405160405180910390a4611ac7600083836001611482565b5050565b6000604051905090565b600080fd5b600080fd5b60007fffffffff0000000000000000000000000000000000000000000000000000000082169050919050565b611b1481611adf565b8114611b1f57600080fd5b50565b600081359050611b3181611b0b565b92915050565b600060208284031215611b4d57611b4c611ad5565b5b6000611b5b84828501611b22565b91505092915050565b60008115159050919050565b611b7981611b64565b82525050565b6000602082019050611b946000830184611b70565b92915050565b600081519050919050565b600082825260208201905092915050565b60005b83811015611bd4578082015181840152602081019050611bb9565b60008484015250505050565b6000601f19601f8301169050919050565b6000611bfc82611b9a565b611c068185611ba5565b9350611c16818560208601611bb6565b611c1f81611be0565b840191505092915050565b60006020820190508181036000830152611c448184611bf1565b905092915050565b6000819050919050565b611c5f81611c4c565b8114611c6a57600080fd5b50565b600081359050611c7c81611c56565b92915050565b600060208284031215611c9857611c97611ad5565b5b6000611ca684828501611c6d565b91505092915050565b600073ffffffffffffffffffffffffffffffffffffffff82169050919050565b6000611cda82611caf565b9050919050565b611cea81611ccf565b82525050565b6000602082019050611d056000830184611ce1565b92915050565b611d1481611ccf565b8114611d1f57600080fd5b50565b600081359050611d3181611d0b565b92915050565b60008060408385031215611d4e57611d4d611ad5565b5b6000611d5c85828601611d22565b9250506020611d6d85828601611c6d565b9150509250929050565b600080600060608486031215611d9057611d8f611ad5565b5b6000611d9e86828701611d22565b9350506020611daf86828701611d22565b9250506040611dc086828701611c6d565b9150509250925092565b600080fd5b600080fd5b7f4e487b7100000000000000000000000000000000000000000000000000000000600052604160045260246000fd5b611e0c82611be0565b810181811067ffffffffffffffff82111715611e2b57611e2a611dd4565b5b80604052505050565b6000611e3e611acb565b9050611e4a8282611e03565b919050565b600067ffffffffffffffff821115611e6a57611e69611dd4565b5b611e7382611be0565b9050602081019050919050565b82818337600083830152505050565b6000611ea2611e9d84611e4f565b611e34565b905082815260208101848484011115611ebe57611ebd611dcf565b5b611ec9848285611e80565b509392505050565b600082601f830112611ee657611ee5611dca565b5b8135611ef6848260208601611e8f565b91505092915050565b60008060408385031215611f1657611f15611ad5565b5b6000611f2485828601611c6d565b925050602083013567ffffffffffffffff811115611f4557611f44611ada565b5b611f5185828601611ed1565b9150509250929050565b600060208284031215611f7157611f70611ad5565b5b6000611f7f84828501611d22565b91505092915050565b611f9181611c4c565b82525050565b6000602082019050611fac6000830184611f88565b92915050565b611fbb81611b64565b8114611fc657600080fd5b50565b600081359050611fd881611fb2565b92915050565b60008060408385031215611ff557611ff4611ad5565b5b600061200385828601611d22565b925050602061201485828601611fc9565b9150509250929050565b600067ffffffffffffffff82111561203957612038611dd4565b5b61204282611be0565b9050602081019050919050565b600061206261205d8461201e565b611e34565b90508281526020810184848401111561207e5761207d611dcf565b5b612089848285611e80565b509392505050565b600082601f8301126120a6576120a5611dca565b5b81356120b684826020860161204f565b91505092915050565b600080600080608085870312156120d9576120d8611ad5565b5b60006120e787828801611d22565b94505060206120f887828801611d22565b935050604061210987828801611c6d565b925050606085013567ffffffffffffffff81111561212a57612129611ada565b5b61213687828801612091565b91505092959194509250565b60006020828403121561215857612157611ad5565b5b600082013567ffffffffffffffff81111561217657612175611ada565b5b61218284828501611ed1565b91505092915050565b600080604083850312156121a2576121a1611ad5565b5b60006121b085828601611d22565b92505060206121c185828601611d22565b9150509250929050565b7f4e487b7100000000000000000000000000000000000000000000000000000000600052602260045260246000fd5b6000600282049050600182168061221257607f821691505b602082108103612225576122246121cb565b5b50919050565b7f4552433732313a20617070726f76616c20746f2063757272656e74206f776e6560008201527f7200000000000000000000000000000000000000000000000000000000000000602082015250565b6000612287602183611ba5565b91506122928261222b565b604082019050919050565b600060208201905081810360008301526122b68161227a565b9050919050565b7f4552433732313a20617070726f76652063616c6c6572206973206e6f7420746f60008201527f6b656e206f776e6572206f7220617070726f76656420666f7220616c6c000000602082015250565b6000612319603d83611ba5565b9150612324826122bd565b604082019050919050565b600060208201905081810360008301526123488161230c565b9050919050565b7f4552433732313a2063616c6c6572206973206e6f7420746f6b656e206f776e6560008201527f72206f7220617070726f76656400000000000000000000000000000000000000602082015250565b60006123ab602d83611ba5565b91506123b68261234f565b604082019050919050565b600060208201905081810360008301526123da8161239e565b9050919050565b7f4552433732313a20696e76616c696420746f6b656e2049440000000000000000600082015250565b6000612417601883611ba5565b9150612422826123e1565b602082019050919050565b600060208201905081810360008301526124468161240a565b9050919050565b600081905092915050565b600061246382611b9a565b61246d818561244d565b935061247d818560208601611bb6565b80840191505092915050565b60006124958284612458565b915081905092915050565b7f4552433732313a2061646472657373207a65726f206973206e6f74206120766160008201527f6c6964206f776e65720000000000000000000000000000000000000000000000602082015250565b60006124fc602983611ba5565b9150612507826124a0565b604082019050919050565b6000602082019050818103600083015261252b816124ef565b9050919050565b600061253e8285612458565b915061254a8284612458565b91508190509392505050565b60008190508160005260206000209050919050565b60006020601f8301049050919050565b600082821b905092915050565b6000600883026125b87fffffffffffffffffffffffffffffffffffffffffffffffffffffffffffffffff8261257b565b6125c2868361257b565b95508019841693508086168417925050509392505050565b6000819050919050565b60006125ff6125fa6125f584611c4c565b6125da565b611c4c565b9050919050565b6000819050919050565b612619836125e4565b61262d61262582612606565b848454612588565b825550505050565b600090565b612642612635565b61264d818484612610565b505050565b5b818110156126715761266660008261263a565b600181019050612653565b5050565b601f8211156126b65761268781612556565b6126908461256b565b8101602085101561269f578190505b6126b36126ab8561256b565b830182612652565b50505b505050565b600082821c905092915050565b60006126d9600019846008026126bb565b1980831691505092915050565b60006126f283836126c8565b9150826002028217905092915050565b61270b82611b9a565b67ffffffffffffffff81111561272457612723611dd4565b5b61272e82546121fa565b612739828285612675565b600060209050601f83116001811461276c576000841561275a578287015190505b61276485826126e6565b8655506127cc565b601f19841661277a86612556565b60005b828110156127a25784890151825560018201915060208501945060208101905061277d565b868310156127bf57848901516127bb601f8916826126c8565b8355505b6001600288020188555050505b505050505050565b7f4552433732313a207472616e736665722066726f6d20696e636f72726563742060008201527f6f776e6572000000000000000000000000000000000000000000000000000000602082015250565b6000612830602583611ba5565b915061283b826127d4565b604082019050919050565b6000602082019050818103600083015261285f81612823565b9050919050565b7f4552433732313a207472616e7366657220746f20746865207a65726f2061646460008201527f7265737300000000000000000000000000000000000000000000000000000000602082015250565b60006128c2602483611ba5565b91506128cd82612866565b604082019050919050565b600060208201905081810360008301526128f1816128b5565b9050919050565b7f4552433732313a20617070726f766520746f2063616c6c657200000000000000600082015250565b600061292e601983611ba5565b9150612939826128f8565b602082019050919050565b6000602082019050818103600083015261295d81612921565b9050919050565b7f4552433732313a207472616e7366657220746f206e6f6e20455243373231526560008201527f63656976657220696d706c656d656e7465720000000000000000000000000000602082015250565b60006129c0603283611ba5565b91506129cb82612964565b604082019050919050565b600060208201905081810360008301526129ef816129b3565b9050919050565b600081519050919050565b600082825260208201905092915050565b6000612a1d826129f6565b612a278185612a01565b9350612a37818560208601611bb6565b612a4081611be0565b840191505092915050565b6000608082019050612a606000830187611ce1565b612a6d6020830186611ce1565b612a7a6040830185611f88565b8181036060830152612a8c8184612a12565b905095945050505050565b600081519050612aa681611b0b565b92915050565b600060208284031215612ac257612ac1611ad5565b5b6000612ad084828501612a97565b91505092915050565b7f4e487b7100000000000000000000000000000000000000000000000000000000600052601260045260246000fd5b7f4552433732313a206d696e7420746f20746865207a65726f2061646472657373600082015250565b6000612b3e602083611ba5565b9150612b4982612b08565b602082019050919050565b60006020820190508181036000830152612b6d81612b31565b9050919050565b7f4552433732313a20746f6b656e20616c7265616479206d696e74656400000000600082015250565b6000612baa601c83611ba5565b9150612bb582612b74565b602082019050919050565b60006020820190508181036000830152612bd981612b9d565b905091905056fea2646970667358221220ff2d3bb6bbfd6b8904eddef0da307029c1ac6272689000bb71714490048ed95a64736f6c63430008130033",
  "linkReferences": {},
  "deployedLinkReferences": {}
}