{
  "_format": "hh-sol-artifact-1",
  "contractName": "Walley",
  "sourceName": "contracts/Walley.sol",
  "abi": [
    {
      "inputs": [
        {
          "internalType": "address",
          "name": "_marketplaceContract",
          "type": "address"
        }
      ],
      "stateMutability": "nonpayable",
      "type": "constructor"
    },
    {
      "anonymous": false,
      "inputs": [
        {
          "indexed": true,
          "internalType": "address",
          "name": "owner",
          "type": "address"
        },
        {
          "indexed": true,
          "internalType": "address",
          "name": "approved",
          "type": "address"
        },
        {
          "indexed": true,
          "internalType": "uint256",
          "name": "tokenId",
          "type": "uint256"
        }
      ],
      "name": "Approval",
      "type": "event"
    },
    {
      "anonymous": false,
      "inputs": [
        {
          "indexed": true,
          "internalType": "address",
          "name": "owner",
          "type": "address"
        },
        {
          "indexed": true,
          "internalType": "address",
          "name": "operator",
          "type": "address"
        },
        {
          "indexed": false,
          "internalType": "bool",
          "name": "approved",
          "type": "bool"
        }
      ],
      "name": "ApprovalForAll",
      "type": "event"
    },
    {
      "anonymous": false,
      "inputs": [
        {
          "indexed": false,
          "internalType": "uint256",
          "name": "_fromTokenId",
          "type": "uint256"
        },
        {
          "indexed": false,
          "internalType": "uint256",
          "name": "_toTokenId",
          "type": "uint256"
        }
      ],
      "name": "BatchMetadataUpdate",
      "type": "event"
    },
    {
      "anonymous": false,
      "inputs": [
        {
          "indexed": false,
          "internalType": "uint256",
          "name": "_tokenId",
          "type": "uint256"
        }
      ],
      "name": "MetadataUpdate",
      "type": "event"
    },
    {
      "anonymous": false,
      "inputs": [
        {
          "indexed": false,
          "internalType": "uint256",
          "name": "",
          "type": "uint256"
        }
      ],
      "name": "NFTMinted",
      "type": "event"
    },
    {
      "anonymous": false,
      "inputs": [
        {
          "indexed": true,
          "internalType": "address",
          "name": "from",
          "type": "address"
        },
        {
          "indexed": true,
          "internalType": "address",
          "name": "to",
          "type": "address"
        },
        {
          "indexed": true,
          "internalType": "uint256",
          "name": "tokenId",
          "type": "uint256"
        }
      ],
      "name": "Transfer",
      "type": "event"
    },
    {
      "inputs": [
        {
          "internalType": "address",
          "name": "to",
          "type": "address"
        },
        {
          "internalType": "uint256",
          "name": "tokenId",
          "type": "uint256"
        }
      ],
      "name": "approve",
      "outputs": [],
      "stateMutability": "nonpayable",
      "type": "function"
    },
    {
      "inputs": [
        {
          "internalType": "address",
          "name": "owner",
          "type": "address"
        }
      ],
      "name": "balanceOf",
      "outputs": [
        {
          "internalType": "uint256",
          "name": "",
          "type": "uint256"
        }
      ],
      "stateMutability": "view",
      "type": "function"
    },
    {
      "inputs": [
        {
          "internalType": "uint256",
          "name": "tokenId",
          "type": "uint256"
        }
      ],
      "name": "getApproved",
      "outputs": [
        {
          "internalType": "address",
          "name": "",
          "type": "address"
        }
      ],
      "stateMutability": "view",
      "type": "function"
    },
    {
      "inputs": [],
      "name": "getToken",
      "outputs": [
        {
          "internalType": "uint256",
          "name": "",
          "type": "uint256"
        }
      ],
      "stateMutability": "view",
      "type": "function"
    },
    {
      "inputs": [
        {
          "internalType": "address",
          "name": "owner",
          "type": "address"
        },
        {
          "internalType": "address",
          "name": "operator",
          "type": "address"
        }
      ],
      "name": "isApprovedForAll",
      "outputs": [
        {
          "internalType": "bool",
          "name": "",
          "type": "bool"
        }
      ],
      "stateMutability": "view",
      "type": "function"
    },
    {
      "inputs": [
        {
          "internalType": "string",
          "name": "password",
          "type": "string"
        }
      ],
      "name": "mint",
      "outputs": [],
      "stateMutability": "nonpayable",
      "type": "function"
    },
    {
      "inputs": [],
      "name": "name",
      "outputs": [
        {
          "internalType": "string",
          "name": "",
          "type": "string"
        }
      ],
      "stateMutability": "view",
      "type": "function"
    },
    {
      "inputs": [
        {
          "internalType": "uint256",
          "name": "tokenId",
          "type": "uint256"
        }
      ],
      "name": "ownerOf",
      "outputs": [
        {
          "internalType": "address",
          "name": "",
          "type": "address"
        }
      ],
      "stateMutability": "view",
      "type": "function"
    },
    {
      "inputs": [
        {
          "internalType": "uint256",
          "name": "tokenId",
          "type": "uint256"
        }
      ],
      "name": "returnPass",
      "outputs": [
        {
          "internalType": "string",
          "name": "",
          "type": "string"
        }
      ],
      "stateMutability": "view",
      "type": "function"
    },
    {
      "inputs": [
        {
          "internalType": "address",
          "name": "from",
          "type": "address"
        },
        {
          "internalType": "address",
          "name": "to",
          "type": "address"
        },
        {
          "internalType": "uint256",
          "name": "tokenId",
          "type": "uint256"
        }
      ],
      "name": "safeTransferFrom",
      "outputs": [],
      "stateMutability": "nonpayable",
      "type": "function"
    },
    {
      "inputs": [
        {
          "internalType": "address",
          "name": "from",
          "type": "address"
        },
        {
          "internalType": "address",
          "name": "to",
          "type": "address"
        },
        {
          "internalType": "uint256",
          "name": "tokenId",
          "type": "uint256"
        },
        {
          "internalType": "bytes",
          "name": "data",
          "type": "bytes"
        }
      ],
      "name": "safeTransferFrom",
      "outputs": [],
      "stateMutability": "nonpayable",
      "type": "function"
    },
    {
      "inputs": [
        {
          "internalType": "address",
          "name": "operator",
          "type": "address"
        },
        {
          "internalType": "bool",
          "name": "approved",
          "type": "bool"
        }
      ],
      "name": "setApprovalForAll",
      "outputs": [],
      "stateMutability": "nonpayable",
      "type": "function"
    },
    {
      "inputs": [
        {
          "internalType": "bytes4",
          "name": "interfaceId",
          "type": "bytes4"
        }
      ],
      "name": "supportsInterface",
      "outputs": [
        {
          "internalType": "bool",
          "name": "",
          "type": "bool"
        }
      ],
      "stateMutability": "view",
      "type": "function"
    },
    {
      "inputs": [],
      "name": "symbol",
      "outputs": [
        {
          "internalType": "string",
          "name": "",
          "type": "string"
        }
      ],
      "stateMutability": "view",
      "type": "function"
    },
    {
      "inputs": [
        {
          "internalType": "uint256",
          "name": "tokenId",
          "type": "uint256"
        }
      ],
      "name": "tokenURI",
      "outputs": [
        {
          "internalType": "string",
          "name": "",
          "type": "string"
        }
      ],
      "stateMutability": "view",
      "type": "function"
    },
    {
      "inputs": [
        {
          "internalType": "address",
          "name": "from",
          "type": "address"
        },
        {
          "internalType": "address",
          "name": "to",
          "type": "address"
        },
        {
          "internalType": "uint256",
          "name": "tokenId",
          "type": "uint256"
        }
      ],
      "name": "transferFrom",
      "outputs": [],
      "stateMutability": "nonpayable",
      "type": "function"
    }
  ],
  "bytecode": "0x60806040523480156200001157600080fd5b50604051620030a7380380620030a783398181016040528101906200003791906200017b565b6040518060400160405280600681526020017f57616c6c657900000000000000000000000000000000000000000000000000008152506040518060400160405280600381526020017f574c4c00000000000000000000000000000000000000000000000000000000008152508160009081620000b4919062000427565b508060019081620000c6919062000427565b50505080600860006101000a81548173ffffffffffffffffffffffffffffffffffffffff021916908373ffffffffffffffffffffffffffffffffffffffff160217905550506200050e565b600080fd5b600073ffffffffffffffffffffffffffffffffffffffff82169050919050565b6000620001438262000116565b9050919050565b620001558162000136565b81146200016157600080fd5b50565b60008151905062000175816200014a565b92915050565b60006020828403121562000194576200019362000111565b5b6000620001a48482850162000164565b91505092915050565b600081519050919050565b7f4e487b7100000000000000000000000000000000000000000000000000000000600052604160045260246000fd5b7f4e487b7100000000000000000000000000000000000000000000000000000000600052602260045260246000fd5b600060028204905060018216806200022f57607f821691505b602082108103620002455762000244620001e7565b5b50919050565b60008190508160005260206000209050919050565b60006020601f8301049050919050565b600082821b905092915050565b600060088302620002af7fffffffffffffffffffffffffffffffffffffffffffffffffffffffffffffffff8262000270565b620002bb868362000270565b95508019841693508086168417925050509392505050565b6000819050919050565b6000819050919050565b60006200030862000302620002fc84620002d3565b620002dd565b620002d3565b9050919050565b6000819050919050565b6200032483620002e7565b6200033c62000333826200030f565b8484546200027d565b825550505050565b600090565b6200035362000344565b6200036081848462000319565b505050565b5b8181101562000388576200037c60008262000349565b60018101905062000366565b5050565b601f821115620003d757620003a1816200024b565b620003ac8462000260565b81016020851015620003bc578190505b620003d4620003cb8562000260565b83018262000365565b50505b505050565b600082821c905092915050565b6000620003fc60001984600802620003dc565b1980831691505092915050565b6000620004178383620003e9565b9150826002028217905092915050565b6200043282620001ad565b67ffffffffffffffff8111156200044e576200044d620001b8565b5b6200045a825462000216565b620004678282856200038c565b600060209050601f8311600181146200049f57600084156200048a578287015190505b62000496858262000409565b86555062000506565b601f198416620004af866200024b565b60005b82811015620004d957848901518255600182019150602085019450602081019050620004b2565b86831015620004f95784890151620004f5601f891682620003e9565b8355505b6001600288020188555050505b505050505050565b612b89806200051e6000396000f3fe608060405234801561001057600080fd5b50600436106101005760003560e01c806370a0823111610097578063c87b56dd11610066578063c87b56dd146102ab578063d624d4ba146102db578063d85d3d271461030b578063e985e9c51461032757610100565b806370a082311461022557806395d89b4114610255578063a22cb46514610273578063b88d4fde1461028f57610100565b806321df0da7116100d357806321df0da71461019f57806323b872dd146101bd57806342842e0e146101d95780636352211e146101f557610100565b806301ffc9a71461010557806306fdde0314610135578063081812fc14610153578063095ea7b314610183575b600080fd5b61011f600480360381019061011a9190611b1d565b610357565b60405161012c9190611b65565b60405180910390f35b61013d6103b8565b60405161014a9190611c10565b60405180910390f35b61016d60048036038101906101689190611c68565b61044a565b60405161017a9190611cd6565b60405180910390f35b61019d60048036038101906101989190611d1d565b610490565b005b6101a76105a7565b6040516101b49190611d6c565b60405180910390f35b6101d760048036038101906101d29190611d87565b6105b8565b005b6101f360048036038101906101ee9190611d87565b610618565b005b61020f600480360381019061020a9190611c68565b610638565b60405161021c9190611cd6565b60405180910390f35b61023f600480360381019061023a9190611dda565b6106be565b60405161024c9190611d6c565b60405180910390f35b61025d610775565b60405161026a9190611c10565b60405180910390f35b61028d60048036038101906102889190611e33565b610807565b005b6102a960048036038101906102a49190611fa8565b61081d565b005b6102c560048036038101906102c09190611c68565b61087f565b6040516102d29190611c10565b60405180910390f35b6102f560048036038101906102f09190611c68565b610991565b6040516103029190611c10565b60405180910390f35b610325600480360381019061032091906120cc565b610a36565b005b610341600480360381019061033c9190612115565b610ae1565b60405161034e9190611b65565b60405180910390f35b6000634906490660e01b7bffffffffffffffffffffffffffffffffffffffffffffffffffffffff1916827bffffffffffffffffffffffffffffffffffffffffffffffffffffffff191614806103b157506103b082610b75565b5b9050919050565b6060600080546103c790612184565b80601f01602080910402602001604051908101604052809291908181526020018280546103f390612184565b80156104405780601f1061041557610100808354040283529160200191610440565b820191906000526020600020905b81548152906001019060200180831161042357829003601f168201915b5050505050905090565b600061045582610c57565b6004600083815260200190815260200160002060009054906101000a900473ffffffffffffffffffffffffffffffffffffffff169050919050565b600061049b82610638565b90508073ffffffffffffffffffffffffffffffffffffffff168373ffffffffffffffffffffffffffffffffffffffff160361050b576040517f08c379a000000000000000000000000000000000000000000000000000000000815260040161050290612227565b60405180910390fd5b8073ffffffffffffffffffffffffffffffffffffffff1661052a610ca2565b73ffffffffffffffffffffffffffffffffffffffff161480610559575061055881610553610ca2565b610ae1565b5b610598576040517f08c379a000000000000000000000000000000000000000000000000000000000815260040161058f906122b9565b60405180910390fd5b6105a28383610caa565b505050565b60006105b36007610d63565b905090565b6105c96105c3610ca2565b82610d71565b610608576040517f08c379a00000000000000000000000000000000000000000000000000000000081526004016105ff9061234b565b60405180910390fd5b610613838383610e06565b505050565b6106338383836040518060200160405280600081525061081d565b505050565b600080610644836110ff565b9050600073ffffffffffffffffffffffffffffffffffffffff168173ffffffffffffffffffffffffffffffffffffffff16036106b5576040517f08c379a00000000000000000000000000000000000000000000000000000000081526004016106ac906123b7565b60405180910390fd5b80915050919050565b60008073ffffffffffffffffffffffffffffffffffffffff168273ffffffffffffffffffffffffffffffffffffffff160361072e576040517f08c379a000000000000000000000000000000000000000000000000000000000815260040161072590612449565b60405180910390fd5b600360008373ffffffffffffffffffffffffffffffffffffffff1673ffffffffffffffffffffffffffffffffffffffff168152602001908152602001600020549050919050565b60606001805461078490612184565b80601f01602080910402602001604051908101604052809291908181526020018280546107b090612184565b80156107fd5780601f106107d2576101008083540402835291602001916107fd565b820191906000526020600020905b8154815290600101906020018083116107e057829003601f168201915b5050505050905090565b610819610812610ca2565b838361113c565b5050565b61082e610828610ca2565b83610d71565b61086d576040517f08c379a00000000000000000000000000000000000000000000000000000000081526004016108649061234b565b60405180910390fd5b610879848484846112a8565b50505050565b606061088a82610c57565b60006006600084815260200190815260200160002080546108aa90612184565b80601f01602080910402602001604051908101604052809291908181526020018280546108d690612184565b80156109235780601f106108f857610100808354040283529160200191610923565b820191906000526020600020905b81548152906001019060200180831161090657829003601f168201915b505050505090506000610934611304565b9050600081510361094957819250505061098c565b60008251111561097e5780826040516020016109669291906124a5565b6040516020818303038152906040529250505061098c565b6109878461131b565b925050505b919050565b60606009600083815260200190815260200160002080546109b190612184565b80601f01602080910402602001604051908101604052809291908181526020018280546109dd90612184565b8015610a2a5780601f106109ff57610100808354040283529160200191610a2a565b820191906000526020600020905b815481529060010190602001808311610a0d57829003601f168201915b50505050509050919050565b610a406007611383565b6000610a4c6007610d63565b9050610a583382611399565b81600960008381526020019081526020016000209081610a789190612675565b50610aa6600860009054906101000a900473ffffffffffffffffffffffffffffffffffffffff166001610807565b7fd9dc24857f317ed9abbbb42e920ede0104231eb1d3d70236a74887ffaf15986881604051610ad59190611d6c565b60405180910390a15050565b6000600560008473ffffffffffffffffffffffffffffffffffffffff1673ffffffffffffffffffffffffffffffffffffffff16815260200190815260200160002060008373ffffffffffffffffffffffffffffffffffffffff1673ffffffffffffffffffffffffffffffffffffffff16815260200190815260200160002060009054906101000a900460ff16905092915050565b60007f80ac58cd000000000000000000000000000000000000000000000000000000007bffffffffffffffffffffffffffffffffffffffffffffffffffffffff1916827bffffffffffffffffffffffffffffffffffffffffffffffffffffffff19161480610c4057507f5b5e139f000000000000000000000000000000000000000000000000000000007bffffffffffffffffffffffffffffffffffffffffffffffffffffffff1916827bffffffffffffffffffffffffffffffffffffffffffffffffffffffff1916145b80610c505750610c4f826113b7565b5b9050919050565b610c6081611421565b610c9f576040517f08c379a0000000000000000000000000000000000000000000000000000000008152600401610c96906123b7565b60405180910390fd5b50565b600033905090565b816004600083815260200190815260200160002060006101000a81548173ffffffffffffffffffffffffffffffffffffffff021916908373ffffffffffffffffffffffffffffffffffffffff160217905550808273ffffffffffffffffffffffffffffffffffffffff16610d1d83610638565b73ffffffffffffffffffffffffffffffffffffffff167f8c5be1e5ebec7d5bd14f71427d1e84f3dd0314c0f7b2291e5b200ac8c7c3b92560405160405180910390a45050565b600081600001549050919050565b600080610d7d83610638565b90508073ffffffffffffffffffffffffffffffffffffffff168473ffffffffffffffffffffffffffffffffffffffff161480610dbf5750610dbe8185610ae1565b5b80610dfd57508373ffffffffffffffffffffffffffffffffffffffff16610de58461044a565b73ffffffffffffffffffffffffffffffffffffffff16145b91505092915050565b8273ffffffffffffffffffffffffffffffffffffffff16610e2682610638565b73ffffffffffffffffffffffffffffffffffffffff1614610e7c576040517f08c379a0000000000000000000000000000000000000000000000000000000008152600401610e73906127b9565b60405180910390fd5b600073ffffffffffffffffffffffffffffffffffffffff168273ffffffffffffffffffffffffffffffffffffffff1603610eeb576040517f08c379a0000000000000000000000000000000000000000000000000000000008152600401610ee29061284b565b60405180910390fd5b610ef88383836001611462565b8273ffffffffffffffffffffffffffffffffffffffff16610f1882610638565b73ffffffffffffffffffffffffffffffffffffffff1614610f6e576040517f08c379a0000000000000000000000000000000000000000000000000000000008152600401610f65906127b9565b60405180910390fd5b6004600082815260200190815260200160002060006101000a81549073ffffffffffffffffffffffffffffffffffffffff02191690556001600360008573ffffffffffffffffffffffffffffffffffffffff1673ffffffffffffffffffffffffffffffffffffffff168152602001908152602001600020600082825403925050819055506001600360008473ffffffffffffffffffffffffffffffffffffffff1673ffffffffffffffffffffffffffffffffffffffff16815260200190815260200160002060008282540192505081905550816002600083815260200190815260200160002060006101000a81548173ffffffffffffffffffffffffffffffffffffffff021916908373ffffffffffffffffffffffffffffffffffffffff160217905550808273ffffffffffffffffffffffffffffffffffffffff168473ffffffffffffffffffffffffffffffffffffffff167fddf252ad1be2c89b69c2b068fc378daa952ba7f163c4a11628f55a4df523b3ef60405160405180910390a46110fa8383836001611468565b505050565b60006002600083815260200190815260200160002060009054906101000a900473ffffffffffffffffffffffffffffffffffffffff169050919050565b8173ffffffffffffffffffffffffffffffffffffffff168373ffffffffffffffffffffffffffffffffffffffff16036111aa576040517f08c379a00000000000000000000000000000000000000000000000000000000081526004016111a1906128b7565b60405180910390fd5b80600560008573ffffffffffffffffffffffffffffffffffffffff1673ffffffffffffffffffffffffffffffffffffffff16815260200190815260200160002060008473ffffffffffffffffffffffffffffffffffffffff1673ffffffffffffffffffffffffffffffffffffffff16815260200190815260200160002060006101000a81548160ff0219169083151502179055508173ffffffffffffffffffffffffffffffffffffffff168373ffffffffffffffffffffffffffffffffffffffff167f17307eab39ab6107e8899845ad3d59bd9653f200f220920489ca2b5937696c318360405161129b9190611b65565b60405180910390a3505050565b6112b3848484610e06565b6112bf8484848461146e565b6112fe576040517f08c379a00000000000000000000000000000000000000000000000000000000081526004016112f590612949565b60405180910390fd5b50505050565b606060405180602001604052806000815250905090565b606061132682610c57565b6000611330611304565b90506000815111611350576040518060200160405280600081525061137b565b8061135a846115f5565b60405160200161136b9291906124a5565b6040516020818303038152906040525b915050919050565b6001816000016000828254019250508190555050565b6113b38282604051806020016040528060008152506116c3565b5050565b60007f01ffc9a7000000000000000000000000000000000000000000000000000000007bffffffffffffffffffffffffffffffffffffffffffffffffffffffff1916827bffffffffffffffffffffffffffffffffffffffffffffffffffffffff1916149050919050565b60008073ffffffffffffffffffffffffffffffffffffffff16611443836110ff565b73ffffffffffffffffffffffffffffffffffffffff1614159050919050565b50505050565b50505050565b600061148f8473ffffffffffffffffffffffffffffffffffffffff1661171e565b156115e8578373ffffffffffffffffffffffffffffffffffffffff1663150b7a026114b8610ca2565b8786866040518563ffffffff1660e01b81526004016114da94939291906129be565b6020604051808303816000875af192505050801561151657506040513d601f19601f820116820180604052508101906115139190612a1f565b60015b611598573d8060008114611546576040519150601f19603f3d011682016040523d82523d6000602084013e61154b565b606091505b506000815103611590576040517f08c379a000000000000000000000000000000000000000000000000000000000815260040161158790612949565b60405180910390fd5b805181602001fd5b63150b7a0260e01b7bffffffffffffffffffffffffffffffffffffffffffffffffffffffff1916817bffffffffffffffffffffffffffffffffffffffffffffffffffffffff1916149150506115ed565b600190505b949350505050565b60606000600161160484611741565b01905060008167ffffffffffffffff81111561162357611622611e7d565b5b6040519080825280601f01601f1916602001820160405280156116555781602001600182028036833780820191505090505b509050600082602001820190505b6001156116b8578080600190039150507f3031323334353637383961626364656600000000000000000000000000000000600a86061a8153600a85816116ac576116ab612a4c565b5b04945060008503611663575b819350505050919050565b6116cd8383611894565b6116da600084848461146e565b611719576040517f08c379a000000000000000000000000000000000000000000000000000000000815260040161171090612949565b60405180910390fd5b505050565b6000808273ffffffffffffffffffffffffffffffffffffffff163b119050919050565b600080600090507a184f03e93ff9f4daa797ed6e38ed64bf6a1f010000000000000000831061179f577a184f03e93ff9f4daa797ed6e38ed64bf6a1f010000000000000000838161179557611794612a4c565b5b0492506040810190505b6d04ee2d6d415b85acef810000000083106117dc576d04ee2d6d415b85acef810000000083816117d2576117d1612a4c565b5b0492506020810190505b662386f26fc10000831061180b57662386f26fc10000838161180157611800612a4c565b5b0492506010810190505b6305f5e1008310611834576305f5e100838161182a57611829612a4c565b5b0492506008810190505b612710831061185957612710838161184f5761184e612a4c565b5b0492506004810190505b6064831061187c576064838161187257611871612a4c565b5b0492506002810190505b600a831061188b576001810190505b80915050919050565b600073ffffffffffffffffffffffffffffffffffffffff168273ffffffffffffffffffffffffffffffffffffffff1603611903576040517f08c379a00000000000000000000000000000000000000000000000000000000081526004016118fa90612ac7565b60405180910390fd5b61190c81611421565b1561194c576040517f08c379a000000000000000000000000000000000000000000000000000000000815260040161194390612b33565b60405180910390fd5b61195a600083836001611462565b61196381611421565b156119a3576040517f08c379a000000000000000000000000000000000000000000000000000000000815260040161199a90612b33565b60405180910390fd5b6001600360008473ffffffffffffffffffffffffffffffffffffffff1673ffffffffffffffffffffffffffffffffffffffff16815260200190815260200160002060008282540192505081905550816002600083815260200190815260200160002060006101000a81548173ffffffffffffffffffffffffffffffffffffffff021916908373ffffffffffffffffffffffffffffffffffffffff160217905550808273ffffffffffffffffffffffffffffffffffffffff16600073ffffffffffffffffffffffffffffffffffffffff167fddf252ad1be2c89b69c2b068fc378daa952ba7f163c4a11628f55a4df523b3ef60405160405180910390a4611aad600083836001611468565b5050565b6000604051905090565b600080fd5b600080fd5b60007fffffffff0000000000000000000000000000000000000000000000000000000082169050919050565b611afa81611ac5565b8114611b0557600080fd5b50565b600081359050611b1781611af1565b92915050565b600060208284031215611b3357611b32611abb565b5b6000611b4184828501611b08565b91505092915050565b60008115159050919050565b611b5f81611b4a565b82525050565b6000602082019050611b7a6000830184611b56565b92915050565b600081519050919050565b600082825260208201905092915050565b60005b83811015611bba578082015181840152602081019050611b9f565b60008484015250505050565b6000601f19601f8301169050919050565b6000611be282611b80565b611bec8185611b8b565b9350611bfc818560208601611b9c565b611c0581611bc6565b840191505092915050565b60006020820190508181036000830152611c2a8184611bd7565b905092915050565b6000819050919050565b611c4581611c32565b8114611c5057600080fd5b50565b600081359050611c6281611c3c565b92915050565b600060208284031215611c7e57611c7d611abb565b5b6000611c8c84828501611c53565b91505092915050565b600073ffffffffffffffffffffffffffffffffffffffff82169050919050565b6000611cc082611c95565b9050919050565b611cd081611cb5565b82525050565b6000602082019050611ceb6000830184611cc7565b92915050565b611cfa81611cb5565b8114611d0557600080fd5b50565b600081359050611d1781611cf1565b92915050565b60008060408385031215611d3457611d33611abb565b5b6000611d4285828601611d08565b9250506020611d5385828601611c53565b9150509250929050565b611d6681611c32565b82525050565b6000602082019050611d816000830184611d5d565b92915050565b600080600060608486031215611da057611d9f611abb565b5b6000611dae86828701611d08565b9350506020611dbf86828701611d08565b9250506040611dd086828701611c53565b9150509250925092565b600060208284031215611df057611def611abb565b5b6000611dfe84828501611d08565b91505092915050565b611e1081611b4a565b8114611e1b57600080fd5b50565b600081359050611e2d81611e07565b92915050565b60008060408385031215611e4a57611e49611abb565b5b6000611e5885828601611d08565b9250506020611e6985828601611e1e565b9150509250929050565b600080fd5b600080fd5b7f4e487b7100000000000000000000000000000000000000000000000000000000600052604160045260246000fd5b611eb582611bc6565b810181811067ffffffffffffffff82111715611ed457611ed3611e7d565b5b80604052505050565b6000611ee7611ab1565b9050611ef38282611eac565b919050565b600067ffffffffffffffff821115611f1357611f12611e7d565b5b611f1c82611bc6565b9050602081019050919050565b82818337600083830152505050565b6000611f4b611f4684611ef8565b611edd565b905082815260208101848484011115611f6757611f66611e78565b5b611f72848285611f29565b509392505050565b600082601f830112611f8f57611f8e611e73565b5b8135611f9f848260208601611f38565b91505092915050565b60008060008060808587031215611fc257611fc1611abb565b5b6000611fd087828801611d08565b9450506020611fe187828801611d08565b9350506040611ff287828801611c53565b925050606085013567ffffffffffffffff81111561201357612012611ac0565b5b61201f87828801611f7a565b91505092959194509250565b600067ffffffffffffffff82111561204657612045611e7d565b5b61204f82611bc6565b9050602081019050919050565b600061206f61206a8461202b565b611edd565b90508281526020810184848401111561208b5761208a611e78565b5b612096848285611f29565b509392505050565b600082601f8301126120b3576120b2611e73565b5b81356120c384826020860161205c565b91505092915050565b6000602082840312156120e2576120e1611abb565b5b600082013567ffffffffffffffff811115612100576120ff611ac0565b5b61210c8482850161209e565b91505092915050565b6000806040838503121561212c5761212b611abb565b5b600061213a85828601611d08565b925050602061214b85828601611d08565b9150509250929050565b7f4e487b7100000000000000000000000000000000000000000000000000000000600052602260045260246000fd5b6000600282049050600182168061219c57607f821691505b6020821081036121af576121ae612155565b5b50919050565b7f4552433732313a20617070726f76616c20746f2063757272656e74206f776e6560008201527f7200000000000000000000000000000000000000000000000000000000000000602082015250565b6000612211602183611b8b565b915061221c826121b5565b604082019050919050565b6000602082019050818103600083015261224081612204565b9050919050565b7f4552433732313a20617070726f76652063616c6c6572206973206e6f7420746f60008201527f6b656e206f776e6572206f7220617070726f76656420666f7220616c6c000000602082015250565b60006122a3603d83611b8b565b91506122ae82612247565b604082019050919050565b600060208201905081810360008301526122d281612296565b9050919050565b7f4552433732313a2063616c6c6572206973206e6f7420746f6b656e206f776e6560008201527f72206f7220617070726f76656400000000000000000000000000000000000000602082015250565b6000612335602d83611b8b565b9150612340826122d9565b604082019050919050565b6000602082019050818103600083015261236481612328565b9050919050565b7f4552433732313a20696e76616c696420746f6b656e2049440000000000000000600082015250565b60006123a1601883611b8b565b91506123ac8261236b565b602082019050919050565b600060208201905081810360008301526123d081612394565b9050919050565b7f4552433732313a2061646472657373207a65726f206973206e6f74206120766160008201527f6c6964206f776e65720000000000000000000000000000000000000000000000602082015250565b6000612433602983611b8b565b915061243e826123d7565b604082019050919050565b6000602082019050818103600083015261246281612426565b9050919050565b600081905092915050565b600061247f82611b80565b6124898185612469565b9350612499818560208601611b9c565b80840191505092915050565b60006124b18285612474565b91506124bd8284612474565b91508190509392505050565b60008190508160005260206000209050919050565b60006020601f8301049050919050565b600082821b905092915050565b60006008830261252b7fffffffffffffffffffffffffffffffffffffffffffffffffffffffffffffffff826124ee565b61253586836124ee565b95508019841693508086168417925050509392505050565b6000819050919050565b600061257261256d61256884611c32565b61254d565b611c32565b9050919050565b6000819050919050565b61258c83612557565b6125a061259882612579565b8484546124fb565b825550505050565b600090565b6125b56125a8565b6125c0818484612583565b505050565b5b818110156125e4576125d96000826125ad565b6001810190506125c6565b5050565b601f821115612629576125fa816124c9565b612603846124de565b81016020851015612612578190505b61262661261e856124de565b8301826125c5565b50505b505050565b600082821c905092915050565b600061264c6000198460080261262e565b1980831691505092915050565b6000612665838361263b565b9150826002028217905092915050565b61267e82611b80565b67ffffffffffffffff81111561269757612696611e7d565b5b6126a18254612184565b6126ac8282856125e8565b600060209050601f8311600181146126df57600084156126cd578287015190505b6126d78582612659565b86555061273f565b601f1984166126ed866124c9565b60005b82811015612715578489015182556001820191506020850194506020810190506126f0565b86831015612732578489015161272e601f89168261263b565b8355505b6001600288020188555050505b505050505050565b7f4552433732313a207472616e736665722066726f6d20696e636f72726563742060008201527f6f776e6572000000000000000000000000000000000000000000000000000000602082015250565b60006127a3602583611b8b565b91506127ae82612747565b604082019050919050565b600060208201905081810360008301526127d281612796565b9050919050565b7f4552433732313a207472616e7366657220746f20746865207a65726f2061646460008201527f7265737300000000000000000000000000000000000000000000000000000000602082015250565b6000612835602483611b8b565b9150612840826127d9565b604082019050919050565b6000602082019050818103600083015261286481612828565b9050919050565b7f4552433732313a20617070726f766520746f2063616c6c657200000000000000600082015250565b60006128a1601983611b8b565b91506128ac8261286b565b602082019050919050565b600060208201905081810360008301526128d081612894565b9050919050565b7f4552433732313a207472616e7366657220746f206e6f6e20455243373231526560008201527f63656976657220696d706c656d656e7465720000000000000000000000000000602082015250565b6000612933603283611b8b565b915061293e826128d7565b604082019050919050565b6000602082019050818103600083015261296281612926565b9050919050565b600081519050919050565b600082825260208201905092915050565b600061299082612969565b61299a8185612974565b93506129aa818560208601611b9c565b6129b381611bc6565b840191505092915050565b60006080820190506129d36000830187611cc7565b6129e06020830186611cc7565b6129ed6040830185611d5d565b81810360608301526129ff8184612985565b905095945050505050565b600081519050612a1981611af1565b92915050565b600060208284031215612a3557612a34611abb565b5b6000612a4384828501612a0a565b91505092915050565b7f4e487b7100000000000000000000000000000000000000000000000000000000600052601260045260246000fd5b7f4552433732313a206d696e7420746f20746865207a65726f2061646472657373600082015250565b6000612ab1602083611b8b565b9150612abc82612a7b565b602082019050919050565b60006020820190508181036000830152612ae081612aa4565b9050919050565b7f4552433732313a20746f6b656e20616c7265616479206d696e74656400000000600082015250565b6000612b1d601c83611b8b565b9150612b2882612ae7565b602082019050919050565b60006020820190508181036000830152612b4c81612b10565b905091905056fea26469706673582212206a936adeeadc7a4559be092c5dff8a8a33cc5d95365e506364e8b1d75392316864736f6c63430008130033",
  "linkReferences": {},
  "deployedLinkReferences": {}
}