{
  "_format": "hh-sol-artifact-1",
  "contractName": "Walley",
  "sourceName": "contracts/Walley.sol",
  "abi": [
    {
      "inputs": [
        {
          "internalType": "address",
          "name": "_marketplaceContract",
          "type": "address"
        }
      ],
      "stateMutability": "nonpayable",
      "type": "constructor"
    },
    {
      "anonymous": false,
      "inputs": [
        {
          "indexed": true,
          "internalType": "address",
          "name": "owner",
          "type": "address"
        },
        {
          "indexed": true,
          "internalType": "address",
          "name": "approved",
          "type": "address"
        },
        {
          "indexed": true,
          "internalType": "uint256",
          "name": "tokenId",
          "type": "uint256"
        }
      ],
      "name": "Approval",
      "type": "event"
    },
    {
      "anonymous": false,
      "inputs": [
        {
          "indexed": true,
          "internalType": "address",
          "name": "owner",
          "type": "address"
        },
        {
          "indexed": true,
          "internalType": "address",
          "name": "operator",
          "type": "address"
        },
        {
          "indexed": false,
          "internalType": "bool",
          "name": "approved",
          "type": "bool"
        }
      ],
      "name": "ApprovalForAll",
      "type": "event"
    },
    {
      "anonymous": false,
      "inputs": [
        {
          "indexed": false,
          "internalType": "uint256",
          "name": "_fromTokenId",
          "type": "uint256"
        },
        {
          "indexed": false,
          "internalType": "uint256",
          "name": "_toTokenId",
          "type": "uint256"
        }
      ],
      "name": "BatchMetadataUpdate",
      "type": "event"
    },
    {
      "anonymous": false,
      "inputs": [
        {
          "indexed": false,
          "internalType": "uint256",
          "name": "_tokenId",
          "type": "uint256"
        }
      ],
      "name": "MetadataUpdate",
      "type": "event"
    },
    {
      "anonymous": false,
      "inputs": [
        {
          "indexed": false,
          "internalType": "uint256",
          "name": "",
          "type": "uint256"
        }
      ],
      "name": "NFTMinted",
      "type": "event"
    },
    {
      "anonymous": false,
      "inputs": [
        {
          "indexed": true,
          "internalType": "address",
          "name": "from",
          "type": "address"
        },
        {
          "indexed": true,
          "internalType": "address",
          "name": "to",
          "type": "address"
        },
        {
          "indexed": true,
          "internalType": "uint256",
          "name": "tokenId",
          "type": "uint256"
        }
      ],
      "name": "Transfer",
      "type": "event"
    },
    {
      "inputs": [
        {
          "internalType": "address",
          "name": "to",
          "type": "address"
        },
        {
          "internalType": "uint256",
          "name": "tokenId",
          "type": "uint256"
        }
      ],
      "name": "approve",
      "outputs": [],
      "stateMutability": "nonpayable",
      "type": "function"
    },
    {
      "inputs": [
        {
          "internalType": "address",
          "name": "owner",
          "type": "address"
        }
      ],
      "name": "balanceOf",
      "outputs": [
        {
          "internalType": "uint256",
          "name": "",
          "type": "uint256"
        }
      ],
      "stateMutability": "view",
      "type": "function"
    },
    {
      "inputs": [
        {
          "internalType": "uint256",
          "name": "tokenId",
          "type": "uint256"
        },
        {
          "internalType": "string",
          "name": "password",
          "type": "string"
        }
      ],
      "name": "checkPassword",
      "outputs": [
        {
          "internalType": "bool",
          "name": "",
          "type": "bool"
        }
      ],
      "stateMutability": "view",
      "type": "function"
    },
    {
      "inputs": [
        {
          "internalType": "uint256",
          "name": "tokenId",
          "type": "uint256"
        }
      ],
      "name": "getApproved",
      "outputs": [
        {
          "internalType": "address",
          "name": "",
          "type": "address"
        }
      ],
      "stateMutability": "view",
      "type": "function"
    },
    {
      "inputs": [
        {
          "internalType": "address",
          "name": "owner",
          "type": "address"
        },
        {
          "internalType": "address",
          "name": "operator",
          "type": "address"
        }
      ],
      "name": "isApprovedForAll",
      "outputs": [
        {
          "internalType": "bool",
          "name": "",
          "type": "bool"
        }
      ],
      "stateMutability": "view",
      "type": "function"
    },
    {
      "inputs": [
        {
          "internalType": "string",
          "name": "password",
          "type": "string"
        }
      ],
      "name": "mint",
      "outputs": [],
      "stateMutability": "nonpayable",
      "type": "function"
    },
    {
      "inputs": [],
      "name": "name",
      "outputs": [
        {
          "internalType": "string",
          "name": "",
          "type": "string"
        }
      ],
      "stateMutability": "view",
      "type": "function"
    },
    {
      "inputs": [
        {
          "internalType": "uint256",
          "name": "tokenId",
          "type": "uint256"
        }
      ],
      "name": "ownerOf",
      "outputs": [
        {
          "internalType": "address",
          "name": "",
          "type": "address"
        }
      ],
      "stateMutability": "view",
      "type": "function"
    },
    {
      "inputs": [
        {
          "internalType": "address",
          "name": "from",
          "type": "address"
        },
        {
          "internalType": "address",
          "name": "to",
          "type": "address"
        },
        {
          "internalType": "uint256",
          "name": "tokenId",
          "type": "uint256"
        }
      ],
      "name": "safeTransferFrom",
      "outputs": [],
      "stateMutability": "nonpayable",
      "type": "function"
    },
    {
      "inputs": [
        {
          "internalType": "address",
          "name": "from",
          "type": "address"
        },
        {
          "internalType": "address",
          "name": "to",
          "type": "address"
        },
        {
          "internalType": "uint256",
          "name": "tokenId",
          "type": "uint256"
        },
        {
          "internalType": "bytes",
          "name": "data",
          "type": "bytes"
        }
      ],
      "name": "safeTransferFrom",
      "outputs": [],
      "stateMutability": "nonpayable",
      "type": "function"
    },
    {
      "inputs": [
        {
          "internalType": "address",
          "name": "operator",
          "type": "address"
        },
        {
          "internalType": "bool",
          "name": "approved",
          "type": "bool"
        }
      ],
      "name": "setApprovalForAll",
      "outputs": [],
      "stateMutability": "nonpayable",
      "type": "function"
    },
    {
      "inputs": [
        {
          "internalType": "bytes4",
          "name": "interfaceId",
          "type": "bytes4"
        }
      ],
      "name": "supportsInterface",
      "outputs": [
        {
          "internalType": "bool",
          "name": "",
          "type": "bool"
        }
      ],
      "stateMutability": "view",
      "type": "function"
    },
    {
      "inputs": [],
      "name": "symbol",
      "outputs": [
        {
          "internalType": "string",
          "name": "",
          "type": "string"
        }
      ],
      "stateMutability": "view",
      "type": "function"
    },
    {
      "inputs": [
        {
          "internalType": "uint256",
          "name": "tokenId",
          "type": "uint256"
        }
      ],
      "name": "tokenURI",
      "outputs": [
        {
          "internalType": "string",
          "name": "",
          "type": "string"
        }
      ],
      "stateMutability": "view",
      "type": "function"
    },
    {
      "inputs": [
        {
          "internalType": "address",
          "name": "from",
          "type": "address"
        },
        {
          "internalType": "address",
          "name": "to",
          "type": "address"
        },
        {
          "internalType": "uint256",
          "name": "tokenId",
          "type": "uint256"
        }
      ],
      "name": "transferFrom",
      "outputs": [],
      "stateMutability": "nonpayable",
      "type": "function"
    }
  ],
  "bytecode": "0x60806040523480156200001157600080fd5b50604051620031483803806200314883398181016040528101906200003791906200017b565b6040518060400160405280600681526020017f57616c6c657900000000000000000000000000000000000000000000000000008152506040518060400160405280600381526020017f574c4c00000000000000000000000000000000000000000000000000000000008152508160009081620000b4919062000427565b508060019081620000c6919062000427565b50505080600860006101000a81548173ffffffffffffffffffffffffffffffffffffffff021916908373ffffffffffffffffffffffffffffffffffffffff160217905550506200050e565b600080fd5b600073ffffffffffffffffffffffffffffffffffffffff82169050919050565b6000620001438262000116565b9050919050565b620001558162000136565b81146200016157600080fd5b50565b60008151905062000175816200014a565b92915050565b60006020828403121562000194576200019362000111565b5b6000620001a48482850162000164565b91505092915050565b600081519050919050565b7f4e487b7100000000000000000000000000000000000000000000000000000000600052604160045260246000fd5b7f4e487b7100000000000000000000000000000000000000000000000000000000600052602260045260246000fd5b600060028204905060018216806200022f57607f821691505b602082108103620002455762000244620001e7565b5b50919050565b60008190508160005260206000209050919050565b60006020601f8301049050919050565b600082821b905092915050565b600060088302620002af7fffffffffffffffffffffffffffffffffffffffffffffffffffffffffffffffff8262000270565b620002bb868362000270565b95508019841693508086168417925050509392505050565b6000819050919050565b6000819050919050565b60006200030862000302620002fc84620002d3565b620002dd565b620002d3565b9050919050565b6000819050919050565b6200032483620002e7565b6200033c62000333826200030f565b8484546200027d565b825550505050565b600090565b6200035362000344565b6200036081848462000319565b505050565b5b8181101562000388576200037c60008262000349565b60018101905062000366565b5050565b601f821115620003d757620003a1816200024b565b620003ac8462000260565b81016020851015620003bc578190505b620003d4620003cb8562000260565b83018262000365565b50505b505050565b600082821c905092915050565b6000620003fc60001984600802620003dc565b1980831691505092915050565b6000620004178383620003e9565b9150826002028217905092915050565b6200043282620001ad565b67ffffffffffffffff8111156200044e576200044d620001b8565b5b6200045a825462000216565b620004678282856200038c565b600060209050601f8311600181146200049f57600084156200048a578287015190505b62000496858262000409565b86555062000506565b601f198416620004af866200024b565b60005b82811015620004d957848901518255600182019150602085019450602081019050620004b2565b86831015620004f95784890151620004f5601f891682620003e9565b8355505b6001600288020188555050505b505050505050565b612c2a806200051e6000396000f3fe608060405234801561001057600080fd5b50600436106100f55760003560e01c80636794631011610097578063b88d4fde11610066578063b88d4fde14610296578063c87b56dd146102b2578063d85d3d27146102e2578063e985e9c5146102fe576100f5565b806367946310146101fc57806370a082311461022c57806395d89b411461025c578063a22cb4651461027a576100f5565b8063095ea7b3116100d3578063095ea7b31461017857806323b872dd1461019457806342842e0e146101b05780636352211e146101cc576100f5565b806301ffc9a7146100fa57806306fdde031461012a578063081812fc14610148575b600080fd5b610114600480360381019061010f9190611b4b565b61032e565b6040516101219190611b93565b60405180910390f35b61013261038f565b60405161013f9190611c3e565b60405180910390f35b610162600480360381019061015d9190611c96565b610421565b60405161016f9190611d04565b60405180910390f35b610192600480360381019061018d9190611d4b565b610467565b005b6101ae60048036038101906101a99190611d8b565b61057e565b005b6101ca60048036038101906101c59190611d8b565b6105de565b005b6101e660048036038101906101e19190611c96565b6105fe565b6040516101f39190611d04565b60405180910390f35b61021660048036038101906102119190611f13565b610684565b6040516102239190611b93565b60405180910390f35b61024660048036038101906102419190611f6f565b610791565b6040516102539190611fab565b60405180910390f35b610264610848565b6040516102719190611c3e565b60405180910390f35b610294600480360381019061028f9190611ff2565b6108da565b005b6102b060048036038101906102ab91906120d3565b6108f0565b005b6102cc60048036038101906102c79190611c96565b610952565b6040516102d99190611c3e565b60405180910390f35b6102fc60048036038101906102f79190612156565b610a64565b005b6103186004803603810190610313919061219f565b610b0f565b6040516103259190611b93565b60405180910390f35b6000634906490660e01b7bffffffffffffffffffffffffffffffffffffffffffffffffffffffff1916827bffffffffffffffffffffffffffffffffffffffffffffffffffffffff19161480610388575061038782610ba3565b5b9050919050565b60606000805461039e9061220e565b80601f01602080910402602001604051908101604052809291908181526020018280546103ca9061220e565b80156104175780601f106103ec57610100808354040283529160200191610417565b820191906000526020600020905b8154815290600101906020018083116103fa57829003601f168201915b5050505050905090565b600061042c82610c85565b6004600083815260200190815260200160002060009054906101000a900473ffffffffffffffffffffffffffffffffffffffff169050919050565b6000610472826105fe565b90508073ffffffffffffffffffffffffffffffffffffffff168373ffffffffffffffffffffffffffffffffffffffff16036104e2576040517f08c379a00000000000000000000000000000000000000000000000000000000081526004016104d9906122b1565b60405180910390fd5b8073ffffffffffffffffffffffffffffffffffffffff16610501610cd0565b73ffffffffffffffffffffffffffffffffffffffff161480610530575061052f8161052a610cd0565b610b0f565b5b61056f576040517f08c379a000000000000000000000000000000000000000000000000000000000815260040161056690612343565b60405180910390fd5b6105798383610cd8565b505050565b61058f610589610cd0565b82610d91565b6105ce576040517f08c379a00000000000000000000000000000000000000000000000000000000081526004016105c5906123d5565b60405180910390fd5b6105d9838383610e26565b505050565b6105f9838383604051806020016040528060008152506108f0565b505050565b60008061060a8361111f565b9050600073ffffffffffffffffffffffffffffffffffffffff168173ffffffffffffffffffffffffffffffffffffffff160361067b576040517f08c379a000000000000000000000000000000000000000000000000000000000815260040161067290612441565b60405180910390fd5b80915050919050565b6000806009600085815260200190815260200160002080546106a59061220e565b80601f01602080910402602001604051908101604052809291908181526020018280546106d19061220e565b801561071e5780601f106106f35761010080835404028352916020019161071e565b820191906000526020600020905b81548152906001019060200180831161070157829003601f168201915b50505050509050825181511461073857600091505061078b565b82604051602001610749919061249d565b6040516020818303038152906040528051906020012081604051602001610770919061249d565b60405160208183030381529060405280519060200120149150505b92915050565b60008073ffffffffffffffffffffffffffffffffffffffff168273ffffffffffffffffffffffffffffffffffffffff1603610801576040517f08c379a00000000000000000000000000000000000000000000000000000000081526004016107f890612526565b60405180910390fd5b600360008373ffffffffffffffffffffffffffffffffffffffff1673ffffffffffffffffffffffffffffffffffffffff168152602001908152602001600020549050919050565b6060600180546108579061220e565b80601f01602080910402602001604051908101604052809291908181526020018280546108839061220e565b80156108d05780601f106108a5576101008083540402835291602001916108d0565b820191906000526020600020905b8154815290600101906020018083116108b357829003601f168201915b5050505050905090565b6108ec6108e5610cd0565b838361115c565b5050565b6109016108fb610cd0565b83610d91565b610940576040517f08c379a0000000000000000000000000000000000000000000000000000000008152600401610937906123d5565b60405180910390fd5b61094c848484846112c8565b50505050565b606061095d82610c85565b600060066000848152602001908152602001600020805461097d9061220e565b80601f01602080910402602001604051908101604052809291908181526020018280546109a99061220e565b80156109f65780601f106109cb576101008083540402835291602001916109f6565b820191906000526020600020905b8154815290600101906020018083116109d957829003601f168201915b505050505090506000610a07611324565b90506000815103610a1c578192505050610a5f565b600082511115610a51578082604051602001610a39929190612546565b60405160208183030381529060405292505050610a5f565b610a5a8461133b565b925050505b919050565b610a6e60076113a3565b6000610a7a60076113b9565b9050610a8633826113c7565b81600960008381526020019081526020016000209081610aa69190612716565b50610ad4600860009054906101000a900473ffffffffffffffffffffffffffffffffffffffff1660016108da565b7fd9dc24857f317ed9abbbb42e920ede0104231eb1d3d70236a74887ffaf15986881604051610b039190611fab565b60405180910390a15050565b6000600560008473ffffffffffffffffffffffffffffffffffffffff1673ffffffffffffffffffffffffffffffffffffffff16815260200190815260200160002060008373ffffffffffffffffffffffffffffffffffffffff1673ffffffffffffffffffffffffffffffffffffffff16815260200190815260200160002060009054906101000a900460ff16905092915050565b60007f80ac58cd000000000000000000000000000000000000000000000000000000007bffffffffffffffffffffffffffffffffffffffffffffffffffffffff1916827bffffffffffffffffffffffffffffffffffffffffffffffffffffffff19161480610c6e57507f5b5e139f000000000000000000000000000000000000000000000000000000007bffffffffffffffffffffffffffffffffffffffffffffffffffffffff1916827bffffffffffffffffffffffffffffffffffffffffffffffffffffffff1916145b80610c7e5750610c7d826113e5565b5b9050919050565b610c8e8161144f565b610ccd576040517f08c379a0000000000000000000000000000000000000000000000000000000008152600401610cc490612441565b60405180910390fd5b50565b600033905090565b816004600083815260200190815260200160002060006101000a81548173ffffffffffffffffffffffffffffffffffffffff021916908373ffffffffffffffffffffffffffffffffffffffff160217905550808273ffffffffffffffffffffffffffffffffffffffff16610d4b836105fe565b73ffffffffffffffffffffffffffffffffffffffff167f8c5be1e5ebec7d5bd14f71427d1e84f3dd0314c0f7b2291e5b200ac8c7c3b92560405160405180910390a45050565b600080610d9d836105fe565b90508073ffffffffffffffffffffffffffffffffffffffff168473ffffffffffffffffffffffffffffffffffffffff161480610ddf5750610dde8185610b0f565b5b80610e1d57508373ffffffffffffffffffffffffffffffffffffffff16610e0584610421565b73ffffffffffffffffffffffffffffffffffffffff16145b91505092915050565b8273ffffffffffffffffffffffffffffffffffffffff16610e46826105fe565b73ffffffffffffffffffffffffffffffffffffffff1614610e9c576040517f08c379a0000000000000000000000000000000000000000000000000000000008152600401610e939061285a565b60405180910390fd5b600073ffffffffffffffffffffffffffffffffffffffff168273ffffffffffffffffffffffffffffffffffffffff1603610f0b576040517f08c379a0000000000000000000000000000000000000000000000000000000008152600401610f02906128ec565b60405180910390fd5b610f188383836001611490565b8273ffffffffffffffffffffffffffffffffffffffff16610f38826105fe565b73ffffffffffffffffffffffffffffffffffffffff1614610f8e576040517f08c379a0000000000000000000000000000000000000000000000000000000008152600401610f859061285a565b60405180910390fd5b6004600082815260200190815260200160002060006101000a81549073ffffffffffffffffffffffffffffffffffffffff02191690556001600360008573ffffffffffffffffffffffffffffffffffffffff1673ffffffffffffffffffffffffffffffffffffffff168152602001908152602001600020600082825403925050819055506001600360008473ffffffffffffffffffffffffffffffffffffffff1673ffffffffffffffffffffffffffffffffffffffff16815260200190815260200160002060008282540192505081905550816002600083815260200190815260200160002060006101000a81548173ffffffffffffffffffffffffffffffffffffffff021916908373ffffffffffffffffffffffffffffffffffffffff160217905550808273ffffffffffffffffffffffffffffffffffffffff168473ffffffffffffffffffffffffffffffffffffffff167fddf252ad1be2c89b69c2b068fc378daa952ba7f163c4a11628f55a4df523b3ef60405160405180910390a461111a8383836001611496565b505050565b60006002600083815260200190815260200160002060009054906101000a900473ffffffffffffffffffffffffffffffffffffffff169050919050565b8173ffffffffffffffffffffffffffffffffffffffff168373ffffffffffffffffffffffffffffffffffffffff16036111ca576040517f08c379a00000000000000000000000000000000000000000000000000000000081526004016111c190612958565b60405180910390fd5b80600560008573ffffffffffffffffffffffffffffffffffffffff1673ffffffffffffffffffffffffffffffffffffffff16815260200190815260200160002060008473ffffffffffffffffffffffffffffffffffffffff1673ffffffffffffffffffffffffffffffffffffffff16815260200190815260200160002060006101000a81548160ff0219169083151502179055508173ffffffffffffffffffffffffffffffffffffffff168373ffffffffffffffffffffffffffffffffffffffff167f17307eab39ab6107e8899845ad3d59bd9653f200f220920489ca2b5937696c31836040516112bb9190611b93565b60405180910390a3505050565b6112d3848484610e26565b6112df8484848461149c565b61131e576040517f08c379a0000000000000000000000000000000000000000000000000000000008152600401611315906129ea565b60405180910390fd5b50505050565b606060405180602001604052806000815250905090565b606061134682610c85565b6000611350611324565b90506000815111611370576040518060200160405280600081525061139b565b8061137a84611623565b60405160200161138b929190612546565b6040516020818303038152906040525b915050919050565b6001816000016000828254019250508190555050565b600081600001549050919050565b6113e18282604051806020016040528060008152506116f1565b5050565b60007f01ffc9a7000000000000000000000000000000000000000000000000000000007bffffffffffffffffffffffffffffffffffffffffffffffffffffffff1916827bffffffffffffffffffffffffffffffffffffffffffffffffffffffff1916149050919050565b60008073ffffffffffffffffffffffffffffffffffffffff166114718361111f565b73ffffffffffffffffffffffffffffffffffffffff1614159050919050565b50505050565b50505050565b60006114bd8473ffffffffffffffffffffffffffffffffffffffff1661174c565b15611616578373ffffffffffffffffffffffffffffffffffffffff1663150b7a026114e6610cd0565b8786866040518563ffffffff1660e01b81526004016115089493929190612a5f565b6020604051808303816000875af192505050801561154457506040513d601f19601f820116820180604052508101906115419190612ac0565b60015b6115c6573d8060008114611574576040519150601f19603f3d011682016040523d82523d6000602084013e611579565b606091505b5060008151036115be576040517f08c379a00000000000000000000000000000000000000000000000000000000081526004016115b5906129ea565b60405180910390fd5b805181602001fd5b63150b7a0260e01b7bffffffffffffffffffffffffffffffffffffffffffffffffffffffff1916817bffffffffffffffffffffffffffffffffffffffffffffffffffffffff19161491505061161b565b600190505b949350505050565b6060600060016116328461176f565b01905060008167ffffffffffffffff81111561165157611650611de8565b5b6040519080825280601f01601f1916602001820160405280156116835781602001600182028036833780820191505090505b509050600082602001820190505b6001156116e6578080600190039150507f3031323334353637383961626364656600000000000000000000000000000000600a86061a8153600a85816116da576116d9612aed565b5b04945060008503611691575b819350505050919050565b6116fb83836118c2565b611708600084848461149c565b611747576040517f08c379a000000000000000000000000000000000000000000000000000000000815260040161173e906129ea565b60405180910390fd5b505050565b6000808273ffffffffffffffffffffffffffffffffffffffff163b119050919050565b600080600090507a184f03e93ff9f4daa797ed6e38ed64bf6a1f01000000000000000083106117cd577a184f03e93ff9f4daa797ed6e38ed64bf6a1f01000000000000000083816117c3576117c2612aed565b5b0492506040810190505b6d04ee2d6d415b85acef8100000000831061180a576d04ee2d6d415b85acef81000000008381611800576117ff612aed565b5b0492506020810190505b662386f26fc10000831061183957662386f26fc10000838161182f5761182e612aed565b5b0492506010810190505b6305f5e1008310611862576305f5e100838161185857611857612aed565b5b0492506008810190505b612710831061188757612710838161187d5761187c612aed565b5b0492506004810190505b606483106118aa57606483816118a05761189f612aed565b5b0492506002810190505b600a83106118b9576001810190505b80915050919050565b600073ffffffffffffffffffffffffffffffffffffffff168273ffffffffffffffffffffffffffffffffffffffff1603611931576040517f08c379a000000000000000000000000000000000000000000000000000000000815260040161192890612b68565b60405180910390fd5b61193a8161144f565b1561197a576040517f08c379a000000000000000000000000000000000000000000000000000000000815260040161197190612bd4565b60405180910390fd5b611988600083836001611490565b6119918161144f565b156119d1576040517f08c379a00000000000000000000000000000000000000000000000000000000081526004016119c890612bd4565b60405180910390fd5b6001600360008473ffffffffffffffffffffffffffffffffffffffff1673ffffffffffffffffffffffffffffffffffffffff16815260200190815260200160002060008282540192505081905550816002600083815260200190815260200160002060006101000a81548173ffffffffffffffffffffffffffffffffffffffff021916908373ffffffffffffffffffffffffffffffffffffffff160217905550808273ffffffffffffffffffffffffffffffffffffffff16600073ffffffffffffffffffffffffffffffffffffffff167fddf252ad1be2c89b69c2b068fc378daa952ba7f163c4a11628f55a4df523b3ef60405160405180910390a4611adb600083836001611496565b5050565b6000604051905090565b600080fd5b600080fd5b60007fffffffff0000000000000000000000000000000000000000000000000000000082169050919050565b611b2881611af3565b8114611b3357600080fd5b50565b600081359050611b4581611b1f565b92915050565b600060208284031215611b6157611b60611ae9565b5b6000611b6f84828501611b36565b91505092915050565b60008115159050919050565b611b8d81611b78565b82525050565b6000602082019050611ba86000830184611b84565b92915050565b600081519050919050565b600082825260208201905092915050565b60005b83811015611be8578082015181840152602081019050611bcd565b60008484015250505050565b6000601f19601f8301169050919050565b6000611c1082611bae565b611c1a8185611bb9565b9350611c2a818560208601611bca565b611c3381611bf4565b840191505092915050565b60006020820190508181036000830152611c588184611c05565b905092915050565b6000819050919050565b611c7381611c60565b8114611c7e57600080fd5b50565b600081359050611c9081611c6a565b92915050565b600060208284031215611cac57611cab611ae9565b5b6000611cba84828501611c81565b91505092915050565b600073ffffffffffffffffffffffffffffffffffffffff82169050919050565b6000611cee82611cc3565b9050919050565b611cfe81611ce3565b82525050565b6000602082019050611d196000830184611cf5565b92915050565b611d2881611ce3565b8114611d3357600080fd5b50565b600081359050611d4581611d1f565b92915050565b60008060408385031215611d6257611d61611ae9565b5b6000611d7085828601611d36565b9250506020611d8185828601611c81565b9150509250929050565b600080600060608486031215611da457611da3611ae9565b5b6000611db286828701611d36565b9350506020611dc386828701611d36565b9250506040611dd486828701611c81565b9150509250925092565b600080fd5b600080fd5b7f4e487b7100000000000000000000000000000000000000000000000000000000600052604160045260246000fd5b611e2082611bf4565b810181811067ffffffffffffffff82111715611e3f57611e3e611de8565b5b80604052505050565b6000611e52611adf565b9050611e5e8282611e17565b919050565b600067ffffffffffffffff821115611e7e57611e7d611de8565b5b611e8782611bf4565b9050602081019050919050565b82818337600083830152505050565b6000611eb6611eb184611e63565b611e48565b905082815260208101848484011115611ed257611ed1611de3565b5b611edd848285611e94565b509392505050565b600082601f830112611efa57611ef9611dde565b5b8135611f0a848260208601611ea3565b91505092915050565b60008060408385031215611f2a57611f29611ae9565b5b6000611f3885828601611c81565b925050602083013567ffffffffffffffff811115611f5957611f58611aee565b5b611f6585828601611ee5565b9150509250929050565b600060208284031215611f8557611f84611ae9565b5b6000611f9384828501611d36565b91505092915050565b611fa581611c60565b82525050565b6000602082019050611fc06000830184611f9c565b92915050565b611fcf81611b78565b8114611fda57600080fd5b50565b600081359050611fec81611fc6565b92915050565b6000806040838503121561200957612008611ae9565b5b600061201785828601611d36565b925050602061202885828601611fdd565b9150509250929050565b600067ffffffffffffffff82111561204d5761204c611de8565b5b61205682611bf4565b9050602081019050919050565b600061207661207184612032565b611e48565b90508281526020810184848401111561209257612091611de3565b5b61209d848285611e94565b509392505050565b600082601f8301126120ba576120b9611dde565b5b81356120ca848260208601612063565b91505092915050565b600080600080608085870312156120ed576120ec611ae9565b5b60006120fb87828801611d36565b945050602061210c87828801611d36565b935050604061211d87828801611c81565b925050606085013567ffffffffffffffff81111561213e5761213d611aee565b5b61214a878288016120a5565b91505092959194509250565b60006020828403121561216c5761216b611ae9565b5b600082013567ffffffffffffffff81111561218a57612189611aee565b5b61219684828501611ee5565b91505092915050565b600080604083850312156121b6576121b5611ae9565b5b60006121c485828601611d36565b92505060206121d585828601611d36565b9150509250929050565b7f4e487b7100000000000000000000000000000000000000000000000000000000600052602260045260246000fd5b6000600282049050600182168061222657607f821691505b602082108103612239576122386121df565b5b50919050565b7f4552433732313a20617070726f76616c20746f2063757272656e74206f776e6560008201527f7200000000000000000000000000000000000000000000000000000000000000602082015250565b600061229b602183611bb9565b91506122a68261223f565b604082019050919050565b600060208201905081810360008301526122ca8161228e565b9050919050565b7f4552433732313a20617070726f76652063616c6c6572206973206e6f7420746f60008201527f6b656e206f776e6572206f7220617070726f76656420666f7220616c6c000000602082015250565b600061232d603d83611bb9565b9150612338826122d1565b604082019050919050565b6000602082019050818103600083015261235c81612320565b9050919050565b7f4552433732313a2063616c6c6572206973206e6f7420746f6b656e206f776e6560008201527f72206f7220617070726f76656400000000000000000000000000000000000000602082015250565b60006123bf602d83611bb9565b91506123ca82612363565b604082019050919050565b600060208201905081810360008301526123ee816123b2565b9050919050565b7f4552433732313a20696e76616c696420746f6b656e2049440000000000000000600082015250565b600061242b601883611bb9565b9150612436826123f5565b602082019050919050565b6000602082019050818103600083015261245a8161241e565b9050919050565b600081905092915050565b600061247782611bae565b6124818185612461565b9350612491818560208601611bca565b80840191505092915050565b60006124a9828461246c565b915081905092915050565b7f4552433732313a2061646472657373207a65726f206973206e6f74206120766160008201527f6c6964206f776e65720000000000000000000000000000000000000000000000602082015250565b6000612510602983611bb9565b915061251b826124b4565b604082019050919050565b6000602082019050818103600083015261253f81612503565b9050919050565b6000612552828561246c565b915061255e828461246c565b91508190509392505050565b60008190508160005260206000209050919050565b60006020601f8301049050919050565b600082821b905092915050565b6000600883026125cc7fffffffffffffffffffffffffffffffffffffffffffffffffffffffffffffffff8261258f565b6125d6868361258f565b95508019841693508086168417925050509392505050565b6000819050919050565b600061261361260e61260984611c60565b6125ee565b611c60565b9050919050565b6000819050919050565b61262d836125f8565b6126416126398261261a565b84845461259c565b825550505050565b600090565b612656612649565b612661818484612624565b505050565b5b818110156126855761267a60008261264e565b600181019050612667565b5050565b601f8211156126ca5761269b8161256a565b6126a48461257f565b810160208510156126b3578190505b6126c76126bf8561257f565b830182612666565b50505b505050565b600082821c905092915050565b60006126ed600019846008026126cf565b1980831691505092915050565b600061270683836126dc565b9150826002028217905092915050565b61271f82611bae565b67ffffffffffffffff81111561273857612737611de8565b5b612742825461220e565b61274d828285612689565b600060209050601f831160018114612780576000841561276e578287015190505b61277885826126fa565b8655506127e0565b601f19841661278e8661256a565b60005b828110156127b657848901518255600182019150602085019450602081019050612791565b868310156127d357848901516127cf601f8916826126dc565b8355505b6001600288020188555050505b505050505050565b7f4552433732313a207472616e736665722066726f6d20696e636f72726563742060008201527f6f776e6572000000000000000000000000000000000000000000000000000000602082015250565b6000612844602583611bb9565b915061284f826127e8565b604082019050919050565b6000602082019050818103600083015261287381612837565b9050919050565b7f4552433732313a207472616e7366657220746f20746865207a65726f2061646460008201527f7265737300000000000000000000000000000000000000000000000000000000602082015250565b60006128d6602483611bb9565b91506128e18261287a565b604082019050919050565b60006020820190508181036000830152612905816128c9565b9050919050565b7f4552433732313a20617070726f766520746f2063616c6c657200000000000000600082015250565b6000612942601983611bb9565b915061294d8261290c565b602082019050919050565b6000602082019050818103600083015261297181612935565b9050919050565b7f4552433732313a207472616e7366657220746f206e6f6e20455243373231526560008201527f63656976657220696d706c656d656e7465720000000000000000000000000000602082015250565b60006129d4603283611bb9565b91506129df82612978565b604082019050919050565b60006020820190508181036000830152612a03816129c7565b9050919050565b600081519050919050565b600082825260208201905092915050565b6000612a3182612a0a565b612a3b8185612a15565b9350612a4b818560208601611bca565b612a5481611bf4565b840191505092915050565b6000608082019050612a746000830187611cf5565b612a816020830186611cf5565b612a8e6040830185611f9c565b8181036060830152612aa08184612a26565b905095945050505050565b600081519050612aba81611b1f565b92915050565b600060208284031215612ad657612ad5611ae9565b5b6000612ae484828501612aab565b91505092915050565b7f4e487b7100000000000000000000000000000000000000000000000000000000600052601260045260246000fd5b7f4552433732313a206d696e7420746f20746865207a65726f2061646472657373600082015250565b6000612b52602083611bb9565b9150612b5d82612b1c565b602082019050919050565b60006020820190508181036000830152612b8181612b45565b9050919050565b7f4552433732313a20746f6b656e20616c7265616479206d696e74656400000000600082015250565b6000612bbe601c83611bb9565b9150612bc982612b88565b602082019050919050565b60006020820190508181036000830152612bed81612bb1565b905091905056fea2646970667358221220bcd1fad6f0e6df041a7cdbedf236fe52088b10d9b7926511a8c366b67a686c7364736f6c63430008130033",
  "linkReferences": {},
  "deployedLinkReferences": {}
}